:020000040800F2
:10000000F8FF0320CD05000CF711000C3F12000C87
:100010006F12000C7112000C7312000C7512000CA0
:100020000000000000000000000000007512000C3D
:100030006D12000C000000007512000C7512000C0F
:100040007512000C7512000C7512000C7512000C64
:100050007512000C7512000C7512000C7512000C54
:100060007512000C7512000C7512000C7512000C44
:100070007512000C7512000C7512000C7512000C34
:1002B0007512000C7512000CF8FF0320CD05000C20
:1002C000F711000C3F12000C6F12000C7112000CA1
:1002D0007312000C7512000C0000000000000000FA
:1002E000000000007512000C6D12000C00000000F0
:1002F0007512000C7512000C7512000C7512000CB2
:100300007512000C7512000C7512000C7512000CA1
:100310007512000C7512000C7512000C7512000C91
:100320007512000C7512000C7512000C7512000C81
:020000040A00F0
:1000400000000000FFFFFFFF07000000FF050000A9
:100054000F0F00007000000002000000000000000C
:100064000202000000000000000000000000000088
:1000740000000000000101004000000000F80D0C29
:0400A000FFFFFFFF60
:0C200000000000400100FEFFFFFFFFFF9A
:10202000FFFFFFFFFFFFFFFFFFFFFFFFFFFFFFFFC0
:10203000FFFFFFFFFFFFFFFFFFFFFFFFFFFFFFFFB0
:10204000FFFFFFFFFFFFFFFFFFFFFFFFFFFFFFFFA0
:10205000FFFFFFFFFFFFFFFFFFFFFFFFFFFFFFFF90
:10206000FFFFFFFFFFFFFFFFFFFFFFFFFFFFFFFF80
:10207000FFFFFFFFFFFFFFFFFFFFFFFFFFFFFFFF70
:10208000FFFFFFFFFFFFFFFFFFFFFFFFFFFFFFFF60
:10209000FFFFFFFFFFFFFFFFFFFFFFFFFFFFFFFF50
:1020A000FFFFFFFFFFFFFFFFFFFFFFFFFFFFFFFF40
:1020B000FFFFFFFFFFFFFFFFFFFFFFFFFFFFFFFF30
:1020C000FFFFFFFFFFFFFFFFFFFFFFFFFFFFFFFF20
:1020D000FFFFFFFFFFFFFFFFFFFFFFFFFFFFFFFF10
:1020E0000607000004CF0F0036F70707863A000006
:1020F000FF0300003F000000BF000000FFFFFFFFE4
:04210000FFFFFFFFDF
:10211000FFFFFFFFFFFFFFFFFFFFFFFFFFFFFFFFCF
:04212000FFFFFFFFBF
:108000000000FFFF0000FFFF0000FFFF0000FFFF78
:108010000000FFFF0000FFFF0000FFFF0000FFFF68
:10802000FFFFFFFFFFFFFFFFFFFFFFFFFFFFFFFF60
:10803000FFFFFFFFFFFFFFFFFFFFFFFFFFFFFFFF50
:1080400044000000FFFFFFFF07000000FF050000E5
:108054000F0F00007000000002000000000000008C
:108064000202000000000000000000000000000008
:1080740000000000000101004000000000F80D0CA9
:0480A000FFFFFFFFE0
:0CA00000000000400000FFFFFFFFFFFF1A
:10A02000FFFFFFFFFFFFFFFFFFFFFFFFFFFFFFFF40
:10A03000FFFFFFFFFFFFFFFFFFFFFFFFFFFFFFFF30
:10A04000FFFFFFFFFFFFFFFFFFFFFFFFFFFFFFFF20
:10A05000FFFFFFFFFFFFFFFFFFFFFFFFFFFFFFFF10
:10A06000FFFFFFFFFFFFFFFFFFFFFFFFFFFFFFFF00
:10A07000FFFFFFFFFFFFFFFFFFFFFFFFFFFFFFFFF0
:10A08000FFFFFFFFFFFFFFFFFFFFFFFFFFFFFFFFE0
:10A09000FFFFFFFFFFFFFFFFFFFFFFFFFFFFFFFFD0
:10A0A000FFFFFFFFFFFFFFFFFFFFFFFFFFFFFFFFC0
:10A0B000FFFFFFFFFFFFFFFFFFFFFFFFFFFFFFFFB0
:10A0C000FFFFFFFFFFFFFFFFFFFFFFFFFFFFFFFFA0
:10A0D000FFFFFFFFFFFFFFFFFFFFFFFFFFFFFFFF90
:10A0E0000607000004CF0F0036F70707863A000086
:10A0F000FF0300003F000000BF000000FFFFFFFF64
:04A10000FFFFFFFF5F
:10A11000FFFFFFFFFFFFFFFFFFFFFFFFFFFFFFFF4F
:04A12000FFFFFFFF3F
:020000040C00EE
:100000000844714672467346B7EE000AF7EE000ADE
:10001000B7EE001AF7EE001AB7EE002AF7EE002A44
:10002000B7EE003AF7EE003AB7EE004AF7EE004AB4
:10003000B7EE005AF7EE005AB7EE006AF7EE006A24
:10004000B7EE007AF7EE007A8EF3008C10B4F1EE82
:1000500010CA4FF66074C0F6FF740CEA040CE1EEAF
:1000600010CA10BCF4467447F8B500BFF8BC08BC11
:100070009E4670477D0D000CF8B500BFF8BC08BC6B
:100080009E467047590D000C2DE9F0410646AEB072
:1000900015460027059105990B78002B00F0FA8092
:1000A00000244FF0FF33CDE909430EAB0B940C93C2
:1000B00080230D930B5D0BB1252B26D134B1224645
:1000C000304600F0A7FE059B23440593059B1A7854
:1000D000252A40F0D78003F10108CDF81480059857
:1000E00003782B2B1AD025D8202B1BD0232B1DD0E7
:1000F0002A2B27D000F00EFE0B90059B1A78303A81
:10010000092A2ED801330593F7E70134D2E7099B7A
:1001100043F00103013009930590E0E7099B43F0A8
:100120000403F7E7099B43F00803F3E7099B43F057
:100130001003EFE72D2BEAD0302BD9D1099B43F0E8
:100140000203E7E72B6801301A1D1B680590002B9E
:100150002A600B9305DA099A5B4282F001020B9345
:100160000992099BDA0744BF23F002030993059B18
:100170001A782E2A0DD10022581C0A9205905A781E
:100180002A2A25D1023305932B681A1D1B682A6081
:100190000A9305A800F05CFE059B0390187801F017
:1001A00043F86928039979D032DC632800F0CB80CA
:1001B00019DC252800F0D980612853D000234FF0A6
:1001C000FF32CDF8148009930B930A920093D4E088
:1001D00000F0A0FD0A90059B1A78303A092AD8D879
:1001E00001330593F7E7642858D06728E6DC2A46F0
:1001F00006A800F0D8FE002800F0A180059B09A900
:1002000030465A1C059206AA1B7801F029F838E0FE
:10021000702873D015DC6E2800F08C806F28CDD14B
:100220002B46002206A800F07BF9002800F087800A
:10023000059B06AA09A930460133059301F00EF883
:100240001FE075283AD0782848D07328B6D1802985
:1002500075D1059B2A6801330593131D2B6000237C
:1002600012687DE02A4606A800F09DFE002866D0B0
:10027000059B09A930465A1C059206AA1B7800F076
:10028000EFFF04443C44A7427ADD3E4B4F224FF03F
:10029000FF371A6038462EB0BDE8F0812B460122A8
:1002A00006A800F03DF9002849D0059B06AA09A937
:1002B00030460133059300F0D1FFE2E72B460022E0
:1002C00006A800F02DF9002839D0059B06AA09A937
:1002D00030460133059300F0C1FFD2E72B460022E0
:1002E00006A800F01DF950B3059B5A1C05921B7817
:1002F00006AA09A9304600F0B3FFC2E72B46002248
:10030000F02106A800F00CF9C8B1059B0133059354
:10031000DDE9062313430BD11B4800F017FF099BAF
:100320000246194900930B9B304600F0B2FAA8E749
:100330007823DDE72B463A1906A800F0E9FA059B79
:10034000013305939EE78029F9D1059B013305937D
:100350002B681A1D1B682A6006AA8DF81830012325
:1003600009A9304600F07EFF8BE78029E7D1059B85
:1003700001330593099B00930B9B01220349D3E7AB
:10038000274688E6900400203612000C3C12000C30
:10039000580400201C000000000000008804002019
:1003A00004000000000000000804002050000000CD
:1003B00000000000980400206C0000000100000014
:1003C000A4040020A0040020A404002000000000D9
:1003D00025000000080000200004000000000000CC
:1003E000000000000000000000000000000000000D
:1003F0000000000000000000000000005912000C86
:1004000000000000000000000000000000000000EC
:10041000030A000C000000000000000000000000C3
:1004200000000000000000000000000000000020AC
:100430000804000000000000640500202000000007
:1004400001000000010000000300000000000000A7
:10045000000000000000000000000000000000009C
:10046000800400208004002008000000000000003C
:100470008C0400200800000000000000040500209B
:100480006000000001000000010000000300000007
:10049000000000000000000000000000000000005C
:1004A000000000007D0B000C0000000000000000B8
:1004B000000000004912000C7D12000C000000003A
:1004C000000000000000000000000000000000002C
:1004D000000000000000000000000000000000001C
:1004E000000000000000000084050020040000005F
:1004F000010000000100000094040020040000003E
:1005000000000000740400200C0000000000000047
:1005100000000000000000006666666666666666AB
:10052000882910B536D012DC812943D003DC80291C
:1005300040D0002010BD82290ED08429F9D119683D
:1005400002B30A1D1A60B1F90020D3171EE0A029DA
:100550002BD00BDC9029ECD11968073121F0070171
:1005600001F108021A60D1E900230FE0C02901D08F
:10057000F029DED11A68111D196013680360002389
:10058000436005E00A1D1A600A880023C0E90023C1
:100590000120CFE7196822B10A1D1A6091F90020E5
:1005A000D3E70A1D1A600A78EFE71A68111D12686E
:1005B0001960CAE719681AB10A1D1A600A68C4E707
:1005C0000C1D1C600B68C0E90032E1E708B51F4B49
:1005D00098471F4B9847EFF3108172B61D4BD3F825
:1005E000882042F47002C3F88820D3F88C2042F4AB
:1005F0004062C3F88C20184A536843F07C43536030
:10060000BFF34F8FBFF36F8F01B962B6134A936880
:1006100023F0010393601346DA6812F0010FFBD157
:100620000E4B24225A6001229A6000F047FC0C4BCA
:1006300023F07F03074A93600A4B98470A4B984779
:100640000A4B984700F060F8FEE700BF7712000CF5
:100650007712000C00ED00E030EF00E000808044F5
:1006600000000008210B000C7712000C7712000C20
:100670001F4B01221A611F4AD36943F48033D361AF
:10068000D36813F4807FFBD01B4B0C229A64F022BA
:100690005A640022DA661A46936F13F0400FFBD1BA
:1006A000154A8823D364136C43F4206343F0020398
:1006B0001364136913F0807FFBD0104B104A1A6249
:1006C0001A46536813F0040FFBD10C4B0D4A5A62C3
:1006D0001A46536813F0080FFBD1084B4122C3F8A8
:1006E000E8201A46D2F8E83013F0400FFAD07047ED
:1006F00000E000440080004400C0004400000144C9
:10070000060101000601020010B582B04FF04163FE
:100710001C68002000F040FB1A4800F095FCB4F182
:10072000FF3F2DD084F38888174B1B680193019CF1
:10073000640864002046214622462346B7EE000A9C
:10074000F7EE000AB7EE001AF7EE001AB7EE002A2D
:10075000F7EE002AB7EE003AF7EE003AB7EE004A9D
:10076000F7EE004AB7EE005AF7EE005AB7EE006A0D
:10077000F7EE006AB7EE007AF7EE007A00F02CFA96
:10078000FEE700BFD80D000C0400100CF0B51F4CA4
:100790002568A446002D36D0002229461646134669
:1007A000D1F800E00F6986450AD132B1176101F135
:1007B00010031846F0BD3946F2E7CCF80070F6E7B2
:1007C00005D9EBB11C68A6453CBF16460B460A4648
:1007D000002FF0D1002BECD019461F6951F8102BD7
:1007E000121A102A05D918600844103A0761074602
:1007F00002609D420B460CBFCCF800703761D8E711
:1008000016460B46E3E72B46D3E700BF94040020CF
:100810002DE9FF4183690446466917464FF00208F7
:100820006D46F61A00930392CDE9016116444246E3
:100830002946206800F0CCFBB04209D1D4E902324D
:100840001A44C4E90533A262384604B0BDE8F08119
:1008500000280DDA62680023B8F1020F42F010029E
:10086000A362C4E90533626011D06B68FF1AEBE73D
:100870006B68361A984282BF0835C01A08F1FF38F3
:100880002B6803442B606B68181A6860CFE71F461B
:10089000DAE72DE9FF471D460C9B06468A4613F012
:1008A0000109144601D195420BD8224651463046E3
:1008B00000F0B0FAA54204D82546284604B0BDE8A9
:1008C000F0872F1B20216846102F3A46B84628BFD4
:1008D000102200F07DFCB8F10F0F11D83B096FF02A
:1008E0000F026946304602FB037200F093FAB9F139
:1008F000000FE2D122465146304600F08BFADCE789
:10090000102269463046A8F1100800F083FAE2E7A9
:10091000842910B523D00CDC812903D0822913D07F
:1009200080290BD119680C1D1C600B6803601A60CC
:1009300013E0902921D003DC882917D0002010BDB6
:10094000A029EFD0C029ECE719680C1D1C600B68CA
:10095000D11703601046C3E900010120EFE71968D1
:100960000C1D1C600B6803601A80F6E719680C1DEB
:100970001C600B6803601A70EFE719680C1D1C609F
:10098000D31709680160C1E90023E6E7F8B5846A76
:1009900005460F46164654B1AB6A6A699B1AB342C4
:1009A0000BD2324639462846FFF732FFF8BD00F039
:1009B000B5FB0028F0D02046F8E7002EF1D095F9DD
:1009C0003430002B1BDBDBB23446621EB95C99422B
:1009D00012D1224639462846FFF71AFFA042E5D336
:1009E0002744341B22463946686900F089FB6B694D
:1009F00030461C446C61D9E71446002AE5D13446E0
:100A0000F0E77FB5C368154600910446002B18BF78
:100A1000013A0E466946019282680068CDE90223D8
:100A2000022200F0ABFA002808DC00F0180383F083
:100A3000080263681343636005460FE0019A82422F
:100A4000FAD2A368801AE2681844E36320642AB1EA
:100A50005A1C2E44E2631B7806F8013C284604B079
:100A600070BD704737B5154D04462B6873B100F063
:100A7000FDFA019001A800F08CFB0F30019920F0E5
:100A80000F0000F06FFB60B100232B60002C08BF4B
:100A900001240F3434F00F0405D1094B0C222046F9
:100AA0001A6003B030BD042C38BF04242046FFF781
:100AB0006DFE0028F5D040F8044CF2E784050020D4
:100AC00090040020154B012283F8582083F8592008
:100AD000222283F83C200022DA664FF00071C3F82E
:100AE00080104FF0C061C3F8901083F8D92083F8CC
:100AF000BC204FF0E061C3F8EC10C3F86C214FF458
:100B00008011C3F880110431C3F8901183F8D42107
:100B100083F8BA21C3F8EC11704700BF001080447D
:100B200038B50E4A00230E4C13600E4A0E4D13606A
:100B30000E4A13600E4A13600E4A13600E4A536247
:100B400013610123936000F067FB00F095FBAC425A
:100B500000D338BD54F8043B9847F8E78C040020D4
:100B60007400000C140400207800000C1004002015
:100B7000080400200C0400201804002038B50D469D
:100B8000044608B9002038BD43689B0607D5D0E964
:100B900005239A4216D80023A362C4E90533D4E999
:100BA0000F13994204D20122C91A206800F05CFB9D
:100BB0000023C4E90F33002DE4D02068BDE838409D
:100BC00000F045BB0022C36A114698476369002BB9
:100BD000E1D14FF0FF30D6E72DE9E04F2746A046A0
:100BE000A146A246A346A4462DED108B4FF000056A
:100BF00045EC185B45EC195A45EC1A5A45EC1B5A62
:100C000045EC1C5A45EC1D5A45EC1E5A45EC1F5A42
:100C1000F1EE105A4FF66076C0F6FF763540E1EE01
:100C2000105A84F3008825462646A447BDEC108B55
:100C3000BDE8E08F10B370B506460D4600F058F9D8
:100C4000D5B100240E4A137E13F0040FFBD0538B52
:100C500013F0070F0BD1536803F00703012B936ABE
:100C600014BF335526F814300134A542EBD1A54208
:100C700014BF0020012070BD2C46F8E7002070470B
:100C800000200045022A70B5044616461D461AD0BB
:100C900043689B0617D441B9002D08BF4FF4806507
:100CA00005F10800FFF7DEFE01466368012E43F000
:100CB0002003636014BFFF230A2384F83430034BFE
:100CC000C4E90215E362002070BD00BF8D09000C6D
:100CD000D0B110B40446C9B1084421460C4A64425C
:100CE000137E13F0010FFBD0536803F00703012BB1
:100CF00014BF0B7834F81130936201318142EFD187
:100D000001205DF8044B7047002070470120F8E790
:100D10000020004510B5027803460130202AFAD0A1
:100D2000A2F109010429F6D92B2A07D02D2A11D1C5
:100D300001210133013B00200A2403E00021F8E7F0
:100D40006043801A13F8012F303A092AF8D901B903
:100D5000404210BD0021EDE710B5054C227832B9B4
:100D6000044B13B1044800E000BF0123237010BD01
:100D700058040020000000000000000008B5034BEC
:100D80001BB10349034800E000BF08BD000000009C
:100D90005C0400200000000008B50D4B1B6800211A
:100DA000186800F031FA0B4B1B680021186800F03E
:100DB0002BFAFFF787FEFFF75BFC00F032F900F03B
:100DC0001BFA00F061F8FFF74CFE00F02BF908BDAC
:100DD0009C040020800500200D0A53656375726530
:100DE00020426F6F7420697320537563636573735A
:100DF00066756C2C204C454430206F6E20746865FD
:100E000020626F61726420626C696E6B73202020B7
:100E1000200000BF38B543680446154613F4807FB0
:100E200011D003699A4228BF1D465DB12A46406928
:100E300000F066F9226963692B44551B0022636147
:100E400025611A7038BDDB06FCD400F073F9F9E7B0
:100E500000230C4A30B512F8134024B902EB4303C7
:100E60005B78184630BD01680D78A54209BF02EBDA
:100E70004303013301315B7814BFDBB201600A2BFD
:100E8000E9D9EEE77C11000C0A4B0B4A1A604FF6C9
:100E900022029A814FF440325A601A46D369002BDD
:100EA000FCD1044A136843F002031360D369002B9A
:100EB000FCD17047002000450401104070B50A487D
:100EC0004FF6FF76094D016811B9436803B970BD4B
:100ED000836800F10C0442683340204655F8233003
:100EE000984704EB8000EEE79003000CA811000C7B
:100EF0000A4B5B8B13F0070F0ED0084B80221A763B
:100F000007225A831B7E13F0040F05D0034B9A6A05
:100F10001A7E12F0040FFAD1704700BF002000457E
:100F2000064B1A680AB9064A1A60064A116809B9D6
:100F3000054911601A68054B1A6070477C0400204F
:100F40009005002078040020900700207404002001
:100F500010B5084C23680BB9FFF7E2FF2268064979
:100F600010440968814234BF4FF0FF3220601046C0
:100F700010BD00BF74040020780400202DE9F0416A
:100F80000024804617460E462546BD4202DB204619
:100F9000BDE8F0817268404656F8081B013500F044
:100FA00075F80444F1E7802910DB812901DD8329EC
:100FB0000CD11368073323F0070303F10801116014
:100FC000D3E90023C0E900230120704700207047C7
:100FD0002DE9F0410024804617460E462546BD42C5
:100FE00002DB2046BDE8F0817268404656F8081BD7
:100FF000013500F069F80444F1E790F948305A1ED1
:101000001343426880F8483012F0040317BF42F0DF
:101010001002C0E90F3342604FF0FF3008BF18469E
:1010200070477047074AD36823F4E0631B041B0C26
:1010300043F0BF6343F40033D360BFF35F8F62B606
:10104000704700BF00ED00E00FB4074B07B504AADE
:101050001B6852F8041B1868019200F043F803B0B3
:101060005DF804EB04B070478005002010B5054C16
:1010700022680AB9FFF754FF034B18682368C01AA7
:1010800010BD00BF740400207804002038B550B9AA
:1010900052B10C46012529462046FFF7CBFD00281A
:1010A000F9D0012000E0002038BD002310B59342A4
:1010B00006D113F0030018BF012000EB930010BD10
:1010C000C45CCC540133F2E738B50D461446012810
:1010D00001D0204638BD21462846FFF7F9FD0028FB
:1010E000F9D0F6E713B50446019201AAFEF7CCFF4A
:1010F000636813F0100F18BF4FF0FF3002B010BD3F
:101100005AB10A44431E10B411F8014B914203F83E
:10111000014FF9D15DF8044B7047704710B5044694
:10112000FFF76BFF28B9A368E268C4E905331344ED
:10113000A36210BD10B4C46A1CB123465DF8044B11
:10114000184700685DF8044BFFF7BEBF037833B162
:10115000034613F8012F002AFBD1181A70471846CE
:10116000704700BF044A136823B91060036101602F
:1011700001207047002070479404002068076C0924
:101180004C836A9074A07AC00080688800846C8266
:1011900000810068002808B501DA002008BDFFF7CB
:1011A000D7FE431CFAD1F8E7E511000CAB10000C98
:1011B0005512000C5512000C5512000C08B500F029
:1011C0003FF8024B1860586008BD00BF8004002043
:1011D00032B1C9B20244034603F8011B9342FBD16A
:1011E000704700BF0A440023914201D1002070479C
:1011F00001F8013BF8E7FEE7024B04221A725A722B
:10120000704700BF0060004400294FF480630CBFAA
:1012100002220022FFF736BD08B5FFF7CFFF00F02E
:101220002CF800F02AF808BDA0F14103192B98BF53
:1012300040F020007047286E696C29002500FEE709
:1012400000487047040500200068FFF73DBF4FF0DD
:10125000FF30704700207047002070470020704723
:10126000002070470020704700207047FEE7FEE72F
:0E127000FEE7FEE7FEE77047704770477047E5
:020000040C0FDF
:08F000007FE97FE900F7FCBF86
:020000040C10DE
:10000000F8FF0720D902100C8105100C8305100C95
:1000100000000000000000000000000000000000E0
:100020000000000000000000000000001705100C98
:1000300000000000000000001705100CA104100CC7
:1000400000000000000000000000000000000000B0
:1000500000000000000000000000000000000000A0
:100060000000000000000000000000000000000090
:100070000000000000000000000000000000000080
:1002B0000000000000000000F8B500BFF8BC08BC5A
:1002C0009E467047FD03100CF8B500BFF8BC08BC93
:1002D0009E467047D903100C08B51F4B98471F4B1B
:1002E0009847EFF3108172B61D4BD3F8882042F483
:1002F0007002C3F88820D3F88C2042F44062C3F81F
:100300008C20184A536843F07C435360BFF34F8FEF
:10031000BFF36F8F01B962B6134A936823F00103EC
:1003200093601346DA6812F0010FFBD10E4B2422C2
:100330005A6001229A6000F06FF80C4B23F07F03A3
:10034000074A93600A4B98470A4B98470A4B9847CD
:1003500000F0C8F8FEE700BF8505100C8505100CFD
:1003600000ED00E030EF00E0008080440000100C61
:100370007D03100C8505100C8505100C38B50E4A50
:1003800000230E4C13600E4A0E4D13600E4A13608C
:100390000E4A13600E4A13600E4A53621361012322
:1003A000936000F0F0F800F0EEF8AC4200D338BDF6
:1003B00054F8043B9847F8E77C000420C402100C72
:1003C0000C000420C802100C0800042000000420C7
:1003D000040004201000042010B5054C227832B926
:1003E000044B13B1044800E000BF0123237010BD8B
:1003F00050000420000000000000000008B5034B7E
:100400001BB10349034800E000BF08BD0000000025
:10041000540004200000000070B50A484FF6FF7633
:10042000094D016811B9436803B970BD836800F1D3
:100430000C0442683340204655F82330984704EBBB
:100440008000EEE74C04100C2C05100C500004202A
:100450002C000000000000000000042050000000FC
:10046000000000007C0004200400000000000000E8
:10047000000000000000000066666666064A002371
:10048000136093606FF07F41516006211160034A51
:1004900093601360704700BF10E000E06C00042020
:1004A00008B5064B5868064A12689A6801329A6085
:1004B0001B6813B1014B1B68984708BD6C000420F2
:1004C00010E000E0002310B5934206D113F00300C2
:1004D00018BF012000EB930010BDC45CCC54013365
:1004E000F2E7704708B5002000F033F80021034818
:1004F00000F03EF800F010F8FEE700BF6305100CB6
:100500004FF089434FF00072C3F898204FF48012E7
:10051000C3F898217047FEE7034B00229A601A68DF
:1005200042F001021A60704710E000E04105100C33
:10053000C504100C7D05100C7D05100C7D05100CFC
:100540000A440023914201D10020704701F8013B89
:10055000F8E708B5FFF792FFFFF7D2FFFFF7C1FFFB
:1005600008BD4FF089434FF48012C3F89C217047B7
:10057000014B1860596070476C00042000207047E0
:08058000FEE7FEE7704770473B
:00000001FF
