:020000040800F2
:10000000F8FF03201908000C4B16000C3317000CE6
:100010009D18000C9F18000CA118000C9714000CE0
:100020000000000000000000000000009714000C19
:100030006F18000C000000009714000CA916000CAB
:100040009714000C9714000C9714000C9714000CD4
:100050009714000C9714000C9714000C9714000CC4
:100060009714000C9714000C9714000C9714000CB4
:100070009714000C9714000C9714000C9714000CA4
:1002B0009714000C9714000CF8FF03201908000C89
:1002C0004B16000C3317000C9D18000C9F18000CE7
:1002D000A118000C9714000C0000000000000000A2
:1002E000000000009714000C6F18000C00000000C4
:1002F0009714000CA916000C9714000C9714000C0E
:100300009714000C9714000C9714000C9714000C11
:100310009714000C9714000C9714000C9714000C01
:100320009714000C9714000C9714000C9714000CF1
:100330009714000C9714000C9714000C9714000CE1
:020000040A00F0
:1000400000000000FFFFFFFF07000000FF050000A9
:100054000F0F00007000000002000000000000000C
:100064000202000000000000000000000000000088
:1000740000000000000101004000000000F80D0C29
:0400A000FFFFFFFF60
:0C200000000000400100FEFFFFFFFFFF9A
:10202000FFFFFFFFFFFFFFFFFFFFFFFFFFFFFFFFC0
:10203000FFFFFFFFFFFFFFFFFFFFFFFFFFFFFFFFB0
:10204000FFFFFFFFFFFFFFFFFFFFFFFFFFFFFFFFA0
:10205000FFFFFFFFFFFFFFFFFFFFFFFFFFFFFFFF90
:10206000FFFFFFFFFFFFFFFFFFFFFFFFFFFFFFFF80
:10207000FFFFFFFFFFFFFFFFFFFFFFFFFFFFFFFF70
:10208000FFFFFFFFFFFFFFFFFFFFFFFFFFFFFFFF60
:10209000FFFFFFFFFFFFFFFFFFFFFFFFFFFFFFFF50
:1020A000FFFFFFFFFFFFFFFFFFFFFFFFFFFFFFFF40
:1020B000FFFFFFFFFFFFFFFFFFFFFFFFFFFFFFFF30
:1020C000FFFFFFFFFFFFFFFFFFFFFFFFFFFFFFFF20
:1020D000FFFFFFFFFFFFFFFFFFFFFFFFFFFFFFFF10
:1020E0000607000004CF0F0036F70707863A000006
:1020F000FF0300003F000000BF000000FFFFFFFFE4
:04210000FFFFFFFFDF
:10211000FFFFFFFFFFFFFFFFFFFFFFFFFFFFFFFFCF
:04212000FFFFFFFFBF
:108000000000FFFF0000FFFF0000FFFF0000FFFF78
:108010000000FFFF0000FFFF0000FFFF0000FFFF68
:10802000FFFFFFFFFFFFFFFFFFFFFFFFFFFFFFFF60
:10803000FFFFFFFFFFFFFFFFFFFFFFFFFFFFFFFF50
:1080400044000000FFFFFFFF07000000FF050000E5
:108054000F0F00007000000002000000000000008C
:108064000202000000000000000000000000000008
:10807400000000000001010040000000FFFFFFFFBE
:0480A000FFFFFFFFE0
:0CA00000000000400000FFFFFFFFFFFF1A
:10A02000FFFFFFFFFFFFFFFFFFFFFFFFFFFFFFFF40
:10A03000FFFFFFFFFFFFFFFFFFFFFFFFFFFFFFFF30
:10A04000FFFFFFFFFFFFFFFFFFFFFFFFFFFFFFFF20
:10A05000FFFFFFFFFFFFFFFFFFFFFFFFFFFFFFFF10
:10A06000FFFFFFFFFFFFFFFFFFFFFFFFFFFFFFFF00
:10A07000FFFFFFFFFFFFFFFFFFFFFFFFFFFFFFFFF0
:10A08000FFFFFFFFFFFFFFFFFFFFFFFFFFFFFFFFE0
:10A09000FFFFFFFFFFFFFFFFFFFFFFFFFFFFFFFFD0
:10A0A000FFFFFFFFFFFFFFFFFFFFFFFFFFFFFFFFC0
:10A0B000FFFFFFFFFFFFFFFFFFFFFFFFFFFFFFFFB0
:10A0C000FFFFFFFFFFFFFFFFFFFFFFFFFFFFFFFFA0
:10A0D000FFFFFFFFFFFFFFFFFFFFFFFFFFFFFFFF90
:10A0E0000607000004CF0F0036F70707863A000086
:10A0F000FF0300003F000000BF000000FFFFFFFF64
:04A10000FFFFFFFF5F
:10A11000FFFFFFFFFFFFFFFFFFFFFFFFFFFFFFFF4F
:04A12000FFFFFFFF3F
:020000040C00EE
:100000000844714672467346B7EE000AF7EE000ADE
:10001000B7EE001AF7EE001AB7EE002AF7EE002A44
:10002000B7EE003AF7EE003AB7EE004AF7EE004AB4
:10003000B7EE005AF7EE005AB7EE006AF7EE006A24
:10004000B7EE007AF7EE007A8EF3008C10B4F1EE82
:1000500010CA4FF66074C0F6FF740CEA040CE1EEAF
:1000600010CA10BCF446744708B500F09BFABDE80E
:1000700008407046714672467346B7EE000AF7EEC6
:10008000000AB7EE001AF7EE001AB7EE002AF7EEF4
:10009000002AB7EE003AF7EE003AB7EE004AF7EE64
:1000A000004AB7EE005AF7EE005AB7EE006AF7EED4
:1000B000006AB7EE007AF7EE007A8EF3008C10B487
:1000C000F1EE10CA4FF66074C0F6FF740CEA040C2F
:1000D000E1EE10CA10BCF44674470000F8B500BF4A
:1000E000F8BC08BC9E4670472D12000CF8B500BF46
:1000F000F8BC08BC9E4670470912000C2DE9F0417F
:100100000646AEB015460027059105990B78002BE1
:1001100000F0FA8000244FF0FF33CDE909430EAB25
:100120000B940C9380230D930B5D0BB1252B26D1E3
:1001300034B12246304601F0C5F8059B23440593AF
:10014000059B1A78252A40F0D78003F10108CDF8E5
:100150001480059803782B2B1AD025D8202B1BD080
:10016000232B1DD02A2B27D001F02CF80B90059BB8
:100170001A78303A092A2ED801330593F7E701346B
:10018000D2E7099B43F00103013009930590E0E7B2
:10019000099B43F00403F7E7099B43F00803F3E7E7
:1001A000099B43F01003EFE72D2BEAD0302BD9D178
:1001B000099B43F00203E7E72B6801301A1D1B6817
:1001C0000590002B2A600B9305DA099A5B4282F0B6
:1001D00001020B930992099BDA0744BF23F0020343
:1001E0000993059B1A782E2A0DD10022581C0A92D9
:1001F00005905A782A2A25D1023305932B681A1DB7
:100200001B682A600A9305A801F07AF8059B039001
:10021000187801F01DFB6928039979D032DC632836
:1002200000F0CB8019DC252800F0D980612853D05C
:1002300000234FF0FF32CDF8148009930B930A92FC
:100240000093D4E000F0BEFF0A90059B1A78303A84
:10025000092AD8D801330593F7E7642858D06728CE
:10026000E6DC2A4606A801F057F9002800F0A18034
:10027000059B09A930465A1C059206AA1B7801F075
:1002800007FB38E0702873D015DC6E2800F08C80F6
:100290006F28CDD12B46002206A800F067FA00286F
:1002A00000F08780059B06AA09A930460133059313
:1002B00001F0ECFA1FE075283AD0782848D073286E
:1002C000B6D1802975D1059B2A6801330593131D8A
:1002D0002B60002312687DE02A4606A801F01CF975
:1002E000002866D0059B09A930465A1C059206AA2B
:1002F0001B7801F0CDFA04443C44A7427ADD3E4B22
:100300004F224FF0FF371A6038462EB0BDE8F0811B
:100310002B46012206A800F029FA002849D0059BA7
:1003200006AA09A930460133059301F0AFFAE2E7C6
:100330002B46002206A800F019FA002839D0059BA8
:1003400006AA09A930460133059301F09FFAD2E7C6
:100350002B46002206A800F009FA50B3059B5A1C50
:1003600005921B7806AA09A9304601F091FAC2E766
:100370002B460022F02106A800F0F8F9C8B1059B31
:1003800001330593DDE9062313430BD11B4801F02C
:10039000F5F9099B0246194900930B9B304600F082
:1003A0005CFBA8E77823DDE72B463A1906A800F0A6
:1003B000D1FB059B013305939EE78029F9D1059B6D
:1003C000013305932B681A1D1B682A6006AA8DF855
:1003D0001830012309A9304601F05CFA8BE7802927
:1003E000E7D1059B01330593099B00930B9B0122E9
:1003F0000349D3E7274688E6A00400205E18000CD6
:100400006418000C580400202800000000000000C0
:100410009404002004000000000000009804002064
:100420000800000000000000940500200400000007
:100430000100000001000000A004002004000000F2
:100440000000000008040020500000000000000030
:10045000A80400206C00000001000000B40400208B
:10046000B0040020B40400200000000025000000BB
:100470000800002000040000000000000000000050
:10048000000000000000000000000000000000006C
:1004900000000000000000008918000C00000000AF
:1004A000000000000000000000000000F10D000C42
:1004B000000000000000000000000000000000003C
:1004C0000000000000000000000000200804000000
:1004D0000000000074050020200000000100000062
:1004E0000100000003000000000000000000000008
:1004F0000000000000000000000000008C0400204C
:100500008C0400200800000000000000A40400206B
:10051000040000000000000014050020600000003E
:1005200001000000010000000300000000000000C6
:1005300000000000000000000000000000000000BB
:10054000090F000C00000000000000000000000087
:100550007918000CA718000C000000000000000033
:10056000000000000000000000000000000000008B
:10057000000000000000000000000000000000007B
:1005800000000000800400200C00000000000000BB
:10059000000000000000000066666666666666662B
:1005A0006666666610B54FF090431B6813F0020F45
:1005B00004D143F002034FF0904213604FF0904497
:1005C00063692A4800F050FF01F0A6F86369C3F39D
:1005D0000212012A0CD0022A3AD0254800F0C6FFA8
:1005E0004FF090435B69C3F30233052B36D010BD47
:1005F000C3F30233012B20D04FF090435B6913F01B
:10060000010F05D04FF09042536913F0010FFBD159
:100610004FF09043D3F8443113F4801F14D01548A1
:1006200000F0A4FF01F078F8134800F09FFF0120CC
:1006300000F00AFE00F050FAD2E7104800F096FFF2
:100640000A4800F0E1FEF5E70D4800F08FFFEBE708
:100650000C4800F08BFF00F03FFAC1E70A4800F0B9
:1006600085FF0A4B01221A60C1E700BF00F80D0C9C
:100670004007000CC406000C1007000C9006000C8C
:10068000EC06000C2807000C5407000C9404002012
:1006900053454355524520424F4F5420495320441F
:1006A000495341424C45442C204E45454420544F2B
:1006B000204C4F4144204649524D57415245200D50
:1006C0000000000053494D554C54414E454F555381
:1006D0002053454355524520424F4F5420697320C3
:1006E000454E41424C45440D0000000053455155D4
:1006F000454E5449414C2053454355524520424FA5
:100700004F5420697320454E41424C45440D000032
:100710004649414E4C495A45205345435552452080
:10072000424F4F54200D000053454355524520423F
:100730004F4F5420495320444F4E452E0D0000008A
:10074000454E54455245442053414645204D4F4463
:1007500045200D0053454355524520424F4F5420EC
:10076000495320446F6E65200D0000BF882910B5E5
:1007700036D012DC812943D003DC802940D0002010
:1007800010BD82290ED08429F9D1196802B30A1D3F
:100790001A60B1F90020D3171EE0A0292BD00BDC82
:1007A0009029ECD11968073121F0070101F1080205
:1007B0001A60D1E900230FE0C02901D0F029DED171
:1007C0001A68111D1960136803600023436005E077
:1007D0000A1D1A600A880023C0E900230120CFE720
:1007E000196822B10A1D1A6091F90020D3E70A1D89
:1007F0001A600A78EFE71A68111D12681960CAE7D3
:1008000019681AB10A1D1A600A68C4E70C1D1C6039
:100810000B68C0E90032E1E708B51F4B98471F4B52
:100820009847EFF3108172B61D4BD3F8882042F43D
:100830007002C3F88820D3F88C2042F44062C3F8D9
:100840008C20184A536843F07C435360BFF34F8FAA
:10085000BFF36F8F01B962B6134A936823F00103A7
:1008600093601346DA6812F0010FFBD10E4B24227D
:100870005A6001229A6000F095FD0C4B23F07F0333
:10088000074A93600A4B98470A4B98470A4B984788
:1008900000F09EF9FEE700BF5F10000C5F10000C37
:1008A00000ED00E030EF00E0008080440000000830
:1008B000AD0E000C5F10000C5F10000C1F4B0122EE
:1008C0001A611F4AD36943F48033D361D36813F4A8
:1008D000807FFBD01B4B0C229A64F0225A640022CA
:1008E000DA661A46936F13F0400FFBD1154A88233E
:1008F000D364136C43F4206343F00203136413695D
:1009000013F0807FFBD0104B104A1A621A465368CE
:1009100013F0040FFBD10C4B0D4A5A621A46536870
:1009200013F0080FFBD1084B4122C3F8E8201A4608
:10093000D2F8E83013F0400FFAD0704700E00044DE
:100940000080004400C00044000001440601010092
:1009500006010200F0B51F4C2568A446002D36D0D4
:100960000022294616461346D1F800E00F69864555
:100970000AD132B1176101F110031846F0BD3946B2
:10098000F2E7CCF80070F6E705D9EBB11C68A64594
:100990003CBF16460B460A46002FF0D1002BECD088
:1009A00019461F6951F8102B121A102A05D9186020
:1009B0000844103A0761074602609D420B460CBF8F
:1009C000CCF800703761D8E716460B46E3E72B46B4
:1009D000D3E700BF9C0400202DE9FF418369044652
:1009E000466917464FF002086D46F61A00930392C7
:1009F000CDE90161164442462946206800F0A1FD78
:100A0000B04209D1D4E902321A44C4E90533A262E2
:100A1000384604B0BDE8F08100280DDA6268002392
:100A2000B8F1020F42F01002A362C4E9053362601C
:100A300011D06B68FF1AEBE76B68361A984282BFD9
:100A40000835C01A08F1FF382B6803442B606B6827
:100A5000181A6860CFE71F46DAE72DE9FF471D4601
:100A60000C9B06468A4613F00109144601D19542B3
:100A70000BD822465146304600F024FCA54204D84B
:100A80002546284604B0BDE8F0872F1B2021684684
:100A9000102F3A46B84628BF102200F09BFEB8F14E
:100AA0000F0F11D83B096FF00F026946304602FB69
:100AB000037200F007FCB9F1000FE2D12246514663
:100AC000304600F0FFFBDCE7102269463046A8F113
:100AD000100800F0F7FBE2E770B5202000F058F9AD
:100AE00004461E220021023000F074FE10202080F7
:100AF0002023A37000232371637100F049F9064697
:100B00000146204600F07AFEF5680E4800F07AFDB6
:100B1000012D0ED04DB1022D0FD0204600F030FB3C
:100B2000304600F02DFB284670BD074800F01EFD42
:100B3000F3E7064800F01AFDEFE7054800F016FD60
:100B4000EBE700BF6010000C8010000C8C10000C54
:100B50009C10000C842910B523D00CDC812903D013
:100B6000822913D080290BD119680C1D1C600B68D9
:100B700003601A6013E0902921D003DC882917D084
:100B8000002010BDA029EFD0C029ECE719680C1D8A
:100B90001C600B68D11703601046C3E900010120F7
:100BA000EFE719680C1D1C600B6803601A80F6E7FC
:100BB00019680C1D1C600B6803601A70EFE7196858
:100BC0000C1D1C60D31709680160C1E90023E6E72A
:100BD00010B582B04FF041631C68002000F0AEFAFF
:100BE000B4F1FF3F2DD084F38888164B1B68019326
:100BF000019C640864002046214622462346B7EE45
:100C0000000AF7EE000AB7EE001AF7EE001AB7EE88
:100C1000002AF7EE002AB7EE003AF7EE003AB7EEF8
:100C2000004AF7EE004AB7EE005AF7EE005AB7EE68
:100C3000006AF7EE006AB7EE007AF7EE007A00F08D
:100C400091F9FEE70400100CF8B5846A05460F46DA
:100C5000164654B1AB6A6A699B1AB3420BD232464C
:100C600039462846FFF7B8FEF8BD00F06FFD0028B2
:100C7000F0D02046F8E7002EF1D095F93430002B63
:100C80001BDBDBB23446621EB95C994212D12246AC
:100C900039462846FFF7A0FEA042E5D32744341B7F
:100CA00022463946686900F029FD6B6930461C44CC
:100CB0006C61D9E71446002AE5D13446F0E7704765
:100CC000184B012283F8582083F85920222283F8F8
:100CD0003C200022DA664FF00071C3F880104FF01C
:100CE000C061C3F8901083F8D920062083F8DA0099
:100CF00083F8BC2083F8BD20C3F8EC10C3F86C2146
:100D00004FF48011C3F880110431C3F8901183F8B7
:100D1000C20183F8D42183F8B12183F8BA21C3F842
:100D2000EC117047001080444FF09043D3F84021FD
:100D30005B6913F0010F0DD012F4801F0AD14FF040
:100D40009043D3F840115A6912F0010F02D011F408
:100D5000801FF6D0038801684FF09042C2F850110E
:100D6000043B9BB28BB110B401224FF0904450F879
:100D70002210C4F800110132D2B2043B9BB2002B06
:100D8000F5D101205DF8044B704701207047704792
:100D900037B5154D04462B6873B100F057FC019030
:100DA00001A800F0F7FC0F30019920F00F0000F0CF
:100DB000C1FC60B100232B60002C08BF01240F345C
:100DC00034F00F0405D1094B0C2220461A6003B001
:100DD00030BD042C38BF04242046FFF7BBFD00289B
:100DE000F5D040F8044CF2E794050020A004002060
:100DF0007FB5C368154600910446002B18BF013A21
:100E00000E466946019282680068CDE902230222FB
:100E100000F06DFB002808DC00F0180383F00802E6
:100E200063681343636005460FE0019A8242FAD279
:100E3000A368801AE2681844E36320642AB15A1C4C
:100E40002E44E2631B7806F8013C284604B070BDCE
:100E500030B404464FF09043D3F84421586912F45B
:100E6000801F1ED1D3F84421586912F4801FF9D095
:100E7000C0F303400C4B1A682260043A92B272B17C
:100E800001234FF0904503F1400155F8211044F83B
:100E900023100133DBB2043A92B2002AF3D130BC02
:100EA0007047C0F30340E5E75401004838B50E4AE7
:100EB00000230E4C13600E4A0E4D13600E4A136051
:100EC0000E4A13600E4A13600E4A536213610123E7
:100ED000936000F0B5FC00F0E4FCAC4200D338BDF8
:100EE00054F8043B9847F8E7A4040020E800000CFD
:100EF00014040020EC00000C100400200804002062
:100F00000C0400201804002038B50D46044608B92A
:100F1000002038BD43689B0607D5D0E905239A42D7
:100F200016D80023A362C4E90533D4E90F1399420C
:100F300004D20122C91A206800F0AEFC0023C4E9E3
:100F40000F33002DE4D02068BDE8384000F097BC96
:100F50000022C36A114698476369002BE1D14FF024
:100F6000FF30D6E72DE9E04F2746A046A146A2462E
:100F7000A346A4462DED108B4FF0000545EC185B01
:100F800045EC195A45EC1A5A45EC1B5A45EC1C5ACB
:100F900045EC1D5A45EC1E5A45EC1F5AF1EE105A0D
:100FA0004FF66076C0F6FF763540E1EE105A84F3D6
:100FB000008825462646A447BDEC108BBDE8E08F8F
:100FC00010B370B506460D4600F006FAD5B1002400
:100FD0000E4A137E13F0040FFBD0538B13F0070F50
:100FE0000BD1536803F00703012B936A14BF3355E9
:100FF00026F814300134A542EBD1A54214BF0020DD
:10100000012070BD2C46F8E7002070470020004505
:10101000836A13B504468DF8071073B16369A26A39
:10102000934212D3E36A01220DF10701204698474B
:10103000012806D19DF8070005E000F087FB002895
:10104000ECD04FF0FF3002B010BD9DF8070094F9CE
:1010500034209042E6D05A1C62611870F3E7704762
:101060004745542053656375726520426F6F742045
:10107000436F6E66696775726174696F6E203A00BE
:101080002044495341424C4544200D002053494DD2
:10109000554C54414E454F5553200D00205345515A
:1010A00055454E5449414C200D0000BF022A70B5F1
:1010B000044616461D461AD043689B0617D441B90C
:1010C000002D08BF4FF4806505F10800FFF760FEB2
:1010D00001466368012E43F02003636014BFFF23C1
:1010E0000A2384F83430034BC4E90215E36200207C
:1010F00070BD00BF490C000CD0B110B40446C9B19A
:10110000084421460C4A6442137E13F0010FFBD0C1
:10111000536803F00703012B14BF0B7834F8113028
:10112000936201318142EFD101205DF8044B704799
:10113000002070470120F8E70020004508B50E4B5D
:101140001B680021186800F073FB0C4B1B68002122
:10115000186800F06DFBFFF7B3FDFFF7AFFBFFF77B
:1011600016FE00F03DFA00F05BFB00F001F9FFF71E
:10117000A6FD00F023FA08BDAC0400209005002075
:1011800070B590B10E4DA0F110042A682E46A2B1A0
:1011900050F8101C43189A42136807D11033126993
:1011A0000B44026040F8103C2C6070BD1033D51821
:1011B000AC4202D10B441360F7E702603460F4E7FD
:1011C0009C04002010B5027803460130202AFAD092
:1011D000A2F109010429F6D92B2A07D02D2A11D111
:1011E00001210133013B00200A2403E00021F8E73C
:1011F0006043801A13F8012F303A092AF8D901B94F
:10120000404210BD0021EDE710B5054C227832B9FF
:10121000044B13B1044800E000BF0123237010BD4C
:1012200058040020000000000000000008B5034B37
:101230001BB10349034800E000BF08BD00000000E7
:101240005C0400200000000070B505462020FFF778
:101250009FFD044600234380142202800371032370
:10126000437105611020FFF793FD054601462046B6
:1012700000F0C4FAAE682046FFF782FF2846FFF769
:101280007FFF304670BD10B44C6802460B46A40682
:1012900003D45DF8044B00F04FB8C0B291F934109C
:1012A000814203D059699C6AA14205D31146184670
:1012B0005DF8044BFFF7ACBE4C1C5C610A705DF836
:1012C000044B704738B543680446154613F4807FD5
:1012D00011D003699A4228BF1D465DB12A46406974
:1012E00000F00CFA226963692B44551B00226361EC
:1012F00025611A7038BDDB06FCD400F033FAF9E73B
:1013000000230C4A30B512F8134024B902EB430312
:101310005B78184630BD01680D78A54209BF02EB25
:101320004303013301315B7814BFDBB201600A2B48
:10133000E9D9EEE7AA17000C07B54A68C0B20B4618
:10134000D2058DF8070006D54A69511C5961107005
:1013500003B05DF804FB01220DF10701184600F00F
:1013600001FA10B19DF80700F2E74FF0FF30EFE708
:101370000A4B0B4A1A604FF622029A814FF4403210
:101380005A601A46D369002BFCD1044A136843F013
:1013900002031360D369002BFCD170470020004585
:1013A0000401004070B50A484FF6FF76094D016808
:1013B00011B9436803B970BD836800F10C04426839
:1013C0003340204655F82330984704EB8000EEE781
:1013D0000404000CC017000C0A4B5B8B13F0070FC2
:1013E0000ED0084B80221A7607225A831B7E13F0F8
:1013F000040F05D0034B9A6A1A7E12F0040FFAD13B
:10140000704700BF0020004538B505462020FFF793
:10141000BFFC0446002343801422028020228270F5
:101420000371012343710561FFF77EFC2046FFF73E
:10143000A7FE00F071F938BD064B1A680AB9064AD2
:101440001A60064A116809B9054911601A68054B06
:101450001A60704788040020A00500208404002042
:10146000A00700208004002070B506462020FFF76A
:101470008FFC0446002343801422028020228270C5
:101480000371012545710661FFF74EFC2046FFF709
:1014900077FE284670BDFEE710B5084C23680BB9EF
:1014A000FFF7CAFF2268064910440968814234BF29
:1014B0004FF0FF322060104610BD00BF80040020B6
:1014C0008404002070B5002902FB01F614460D4685
:1014D00018BF144601463246184608BF002400F0E3
:1014E00041F9864218BFB0FBF5F4204670BD2DE9E6
:1014F000F0410024804617460E462546BD4202DBD9
:101500002046BDE8F0817268404656F8081B013558
:1015100000F0ACF80444F1E7802910DB812901DDFB
:1015200083290CD11368073323F0070303F1080163
:101530001160D3E90023C0E9002301207047002097
:1015400070472DE9F0410024804617460E46254697
:10155000BD4202DB2046BDE8F0817268404656F885
:10156000081B013500F0AEF80444F1E710B5084C53
:101570002368196800F058F8002807DB23680A2060
:10158000196800F070F9C00F404210BD0120FBE760
:101590009005002090F948305A1E1343426880F8A5
:1015A000483012F0040317BF42F01002C0E90F33B5
:1015B00042604FF0FF3008BF18467047074AD368B3
:1015C00023F4E0631B041B0C43F0BF6343F40033BC
:1015D000D360BFF35F8F62B6704700BF00ED00E0DD
:1015E000064A0023136093606FF07F41516006212B
:1015F0001160034A93601360704700BF10E000E081
:10160000740400200FB4074B07B504AA1B6852F8F6
:10161000041B1868019200F063F803B05DF804EB56
:1016200004B070479005002070B50E46054600F0E6
:10163000A5F804460246334601212846FFF742FF3B
:10164000001B18BF4FF0FF3070BDFEE710B5054C12
:1016500022680AB9FFF7F0FE034B18682368C01A26
:1016600010BD00BF800400208404002038B550B9AC
:1016700052B10C46012529462046FFF7A1FC00285F
:10168000F9D0012000E0002038BD002310B59342BE
:1016900006D113F0030018BF012000EB930010BD2A
:1016A000C45CCC540133F2E708B5054B9A680132AB
:1016B0009A601B681BB1024B58681B68984708BDAD
:1016C0007404002038B50D461446012801D0204688
:1016D00038BD21462846FFF70FFD0028F9D0F6E770
:1016E00013B50446019201AAFEF708FD636813F0E2
:1016F000100F18BF4FF0FF3002B010BD5AB10A44AE
:10170000431E10B411F8014B914203F8014FF9D177
:101710005DF8044B7047704738B51020FFF738FB71
:101720000446FFF795FBA5682046FFF729FD2846EC
:1017300038BDFEE7044A136823B9106003610160F5
:1017400001207047002070479C04002010B504461B
:10175000FFF720FF28B9A368E268C4E90533134402
:10176000A36210BD10B4C46A1CB123465DF8044BDB
:10177000184700685DF8044BFFF7A4BF037833B146
:10178000034613F8012F002AFBD1181A7047184698
:10179000704700BF0068002808B501DA002008BDC6
:1017A000FFF77AFE431CFAD1F8E768076C094C830F
:1017B0006A9074A07AC00080688800846C8200817E
:1017C0000F18000C8B16000C8518000C8518000CE7
:1017D0008518000C32B1C9B20244034603F8011B5C
:1017E0009342FBD1704700BF08B500F041F8024BAF
:1017F0001860586008BD00BF8C04002010B50C466E
:10180000FFF792FA2046FFF723FB012010BD0A44A0
:101810000023914201D10020704701F8013BF8E715
:10182000024B04221A725A72704700BF00600044D3
:1018300000294FF480630CBF02220022FFF736BC60
:1018400008B5FFF7D1FF00F02DF800F02BF808BD28
:10185000A0F14103192B98BF40F020007047286E7B
:10186000696C2900250008B5FFF70DFD08BDFEE7EE
:1018700000487047140500200068FFF723BF4FF0B1
:10188000FF307047002070470020704700207047ED
:10189000002070470020704700207047FEE7FEE7F9
:0818A000FEE770477047704736
:020000040C0FDF
:10F000007FE97FE900F7FCBF7FE97FE901F72CB8D2
:020000040C10DE
:10000000F8FF0720D902100C8505100C8705100C8D
:1000100000000000000000000000000000000000E0
:100020000000000000000000000000008305100C2C
:1000300000000000000000008305100CA104100C5B
:1000400000000000000000000000000000000000B0
:1000500000000000000000000000000000000000A0
:100060000000000000000000000000000000000090
:100070000000000000000000000000000000000080
:1002B0000000000000000000F8B500BFF8BC08BC5A
:1002C0009E467047FD03100CF8B500BFF8BC08BC93
:1002D0009E467047D903100C08B51F4B98471F4B1B
:1002E0009847EFF3108172B61D4BD3F8882042F483
:1002F0007002C3F88820D3F88C2042F44062C3F81F
:100300008C20184A536843F07C435360BFF34F8FEF
:10031000BFF36F8F01B962B6134A936823F00103EC
:1003200093601346DA6812F0010FFBD10E4B2422C2
:100330005A6001229A6000F06FF80C4B23F07F03A3
:10034000074A93600A4B98470A4B98470A4B9847CD
:1003500000F0B8F8FEE700BF8905100C8905100C05
:1003600000ED00E030EF00E0008080440000100C61
:100370007D03100C8905100C8905100C38B50E4A48
:1003800000230E4C13600E4A0E4D13600E4A13608C
:100390000E4A13600E4A13600E4A53621361012322
:1003A000936000F0F2F800F0F0F8AC4200D338BDF2
:1003B00054F8043B9847F8E77C000420C402100C72
:1003C0000C000420C802100C0800042000000420C7
:1003D000040004201000042010B5054C227832B926
:1003E000044B13B1044800E000BF0123237010BD8B
:1003F00050000420000000000000000008B5034B7E
:100400001BB10349034800E000BF08BD0000000025
:10041000540004200000000070B50A484FF6FF7633
:10042000094D016811B9436803B970BD836800F1D3
:100430000C0442683340204655F82330984704EBBB
:100440008000EEE74C04100C2C05100C500004202A
:100450002C000000000000000000042050000000FC
:10046000000000007C0004200400000000000000E8
:10047000000000000000000066666666064A002371
:10048000136093606FF07F41516006211160034A51
:1004900093601360704700BF10E000E06C00042020
:1004A00008B5064B5868064A12689A6801329A6085
:1004B0001B6813B1014B1B68984708BD6C000420F2
:1004C00010E000E008B5002000F043F800210448E7
:1004D00000F04EF800F020F8FEF796FDFEE700BFB2
:1004E0006305100C002310B5934206D113F00300EE
:1004F00018BF012000EB930010BDC45CCC54013345
:10050000F2E74FF089434FF00072C3F898204FF4A0
:100510008012C3F898217047034B00229A601A6832
:1005200042F001021A60704710E000E04105100C33
:10053000E504100C7D05100C7D05100C7D05100CDC
:100540000A440023914201D10020704701F8013B89
:10055000F8E708B5FFF792FFFFF7D3FF00F010F8B8
:1005600008BD4FF089434FF48012C3F89C217047B7
:10057000014B1860596070476C00042000207047E0
:0C0580007047FEE7FEE7FEE7704770479B
:00000001FF
