:020000040000fa
:020000040800f2
:10000000f0ff11207908000c8313000ccb15000cb5
:100010004d16000c4f16000c5116000c000000008d
:100020000000000000000000000000002b10000c89
:100030000b16000c000000002b10000ca913000c84
:100040002b10000c2b10000c2b10000c2b10000c94
:100050002b10000c2b10000c2b10000c2b10000c84
:100060002b10000c2b10000c2b10000c2b10000c74
:100070002b10000c2b10000c2b10000c2b10000c64
:1003600000000000000000002b10000c2b10000cff
:100370002b10000c2b10000c2b10000c2b10000c61
:100380002b10000c2b10000c2b10000c2b10000c51
:100390002b10000c2b10000c2b10000c2b10000c41
:1003a0002b10000c2b10000c2b10000c2b10000c31
:0803b0002b10000c2b10000cb7
:020000040000fa
:020000040a00f0
:040000000100fefffe
:020000040000fa
:020000040a00f0
:04002000ffffffffe0
:020000040000fa
:020000040a00f0
:0400400000000000bc
:020000040000fa
:020000040a00f0
:04004400ffffffffbc
:020000040000fa
:020000040a00f0
:0400480001000000b3
:020000040000fa
:020000040a00f0
:04004c00410400006b
:020000040000fa
:020000040a00f0
:04005400ffff0000aa
:020000040000fa
:020000040a00f0
:040058007000000034
:020000040000fa
:020000040a00f0
:04005c00020000009e
:020000040000fa
:020000040a00f0
:04006000000000009c
:020000040000fa
:020000040a00f0
:040064000202000094
:020000040000fa
:020000040a00f0
:0400800000f87d0cfb
:020000040000fa
:020000040a00f0
:0400a000ffffffff60
:020000040000fa
:020000040a00f0
:04200000000000c01c
:020000040000fa
:020000040a00f0
:042004000100feffda
:020000040000fa
:020000040a00f0
:04200800ffffffffd8
:020000040000fa
:020000040a00f0
:04208000ffffffff60
:020000040000fa
:020000040a00f0
:04208400ffffffff5c
:020000040000fa
:020000040a00f0
:04208800ffffffff58
:020000040000fa
:020000040a00f0
:04208c00ffffffff54
:020000040000fa
:020000040a00f0
:04209000ffffffff50
:020000040000fa
:020000040a00f0
:04209400ffffffff4c
:020000040000fa
:020000040a00f0
:04209800ffffffff48
:020000040000fa
:020000040a00f0
:04209c00ffffffff44
:020000040000fa
:020000040a00f0
:0420a000ffffffff40
:020000040000fa
:020000040a00f0
:0420a400ffffffff3c
:020000040000fa
:020000040a00f0
:0420a800ffffffff38
:020000040000fa
:020000040a00f0
:0420ac00ffffffff34
:020000040000fa
:020000040a00f0
:0420b000ffffffff30
:020000040000fa
:020000040a00f0
:0420b400ffffffff2c
:020000040000fa
:020000040a00f0
:0420b800ffffffff28
:020000040000fa
:020000040a00f0
:0420bc00ffffffff24
:020000040000fa
:020000040a00f0
:0420c000ffffffff20
:020000040000fa
:020000040a00f0
:0420c400ffffffff1c
:020000040000fa
:020000040a00f0
:0420c800ffffffff18
:020000040000fa
:020000040a00f0
:0420cc00ffffffff14
:020000040000fa
:020000040a00f0
:0420d000ffffffff10
:020000040000fa
:020000040a00f0
:0420d400ffffffff0c
:020000040000fa
:020000040a00f0
:0420d800ffffffff08
:020000040000fa
:020000040a00f0
:0420dc00ffffffff04
:020000040000fa
:020000040a00f0
:0420e00006070000ef
:020000040000fa
:020000040a00f0
:0420e40004cf0f0016
:020000040000fa
:020000040a00f0
:0420e80006f70401f2
:020000040000fa
:020000040a00f0
:0420ec00863a000030
:020000040000fa
:020000040a00f0
:0420f000ff030000ea
:020000040000fa
:020000040a00f0
:0420f4003f000000a9
:020000040000fa
:020000040a00f0
:0420f800bf00000025
:020000040000fa
:020000040a00f0
:0420fc00ffffffffe4
:020000040000fa
:020000040a00f0
:04210000ffffffffdf
:020000040000fa
:020000040a00f0
:04211000ffffffffcf
:020000040000fa
:020000040a00f0
:04211400ffffffffcb
:020000040000fa
:020000040a00f0
:04211800ffffffffc7
:020000040000fa
:020000040a00f0
:04211c00ffffffffc3
:020000040000fa
:020000040a00f0
:04212000ffffffffbf
:020000040000fa
:020000040a00f0
:048000000000ffff7e
:020000040000fa
:020000040a00f0
:04802000ffffffff60
:020000040000fa
:020000040a00f0
:0480400044000000f8
:020000040000fa
:020000040a00f0
:04804400ffffffff3c
:020000040000fa
:020000040a00f0
:048048000100000033
:020000040000fa
:020000040a00f0
:04804c0041040000eb
:020000040000fa
:020000040a00f0
:04805400ffff00002a
:020000040000fa
:020000040a00f0
:0480580070000000b4
:020000040000fa
:020000040a00f0
:04805c00020000001e
:020000040000fa
:020000040a00f0
:04806000000000001c
:020000040000fa
:020000040a00f0
:048064000202000014
:020000040000fa
:020000040a00f0
:0480800000f87d0c7b
:020000040000fa
:020000040a00f0
:0480a000ffffffffe0
:020000040000fa
:020000040a00f0
:04a00000000000c09c
:020000040000fa
:020000040a00f0
:04a004000000ffff5a
:020000040000fa
:020000040a00f0
:04a00800ffffffff58
:020000040000fa
:020000040a00f0
:04a08000ffffffffe0
:020000040000fa
:020000040a00f0
:04a08400ffffffffdc
:020000040000fa
:020000040a00f0
:04a08800ffffffffd8
:020000040000fa
:020000040a00f0
:04a08c00ffffffffd4
:020000040000fa
:020000040a00f0
:04a09000ffffffffd0
:020000040000fa
:020000040a00f0
:04a09400ffffffffcc
:020000040000fa
:020000040a00f0
:04a09800ffffffffc8
:020000040000fa
:020000040a00f0
:04a09c00ffffffffc4
:020000040000fa
:020000040a00f0
:04a0a000ffffffffc0
:020000040000fa
:020000040a00f0
:04a0a400ffffffffbc
:020000040000fa
:020000040a00f0
:04a0a800ffffffffb8
:020000040000fa
:020000040a00f0
:04a0ac00ffffffffb4
:020000040000fa
:020000040a00f0
:04a0b000ffffffffb0
:020000040000fa
:020000040a00f0
:04a0b400ffffffffac
:020000040000fa
:020000040a00f0
:04a0b800ffffffffa8
:020000040000fa
:020000040a00f0
:04a0bc00ffffffffa4
:020000040000fa
:020000040a00f0
:04a0c000ffffffffa0
:020000040000fa
:020000040a00f0
:04a0c400ffffffff9c
:020000040000fa
:020000040a00f0
:04a0c800ffffffff98
:020000040000fa
:020000040a00f0
:04a0cc00ffffffff94
:020000040000fa
:020000040a00f0
:04a0d000ffffffff90
:020000040000fa
:020000040a00f0
:04a0d400ffffffff8c
:020000040000fa
:020000040a00f0
:04a0d800ffffffff88
:020000040000fa
:020000040a00f0
:04a0dc00ffffffff84
:020000040000fa
:020000040a00f0
:04a0e000060700006f
:020000040000fa
:020000040a00f0
:04a0e40004cf0f0096
:020000040000fa
:020000040a00f0
:04a0e80006f7040172
:020000040000fa
:020000040a00f0
:04a0ec00863a0000b0
:020000040000fa
:020000040a00f0
:04a0f000ff0300006a
:020000040000fa
:020000040a00f0
:04a0f4003f00000029
:020000040000fa
:020000040a00f0
:04a0f800bf000000a5
:020000040000fa
:020000040a00f0
:04a0fc00ffffffff64
:020000040000fa
:020000040a00f0
:04a10000ffffffff5f
:020000040000fa
:020000040a00f0
:04a11000ffffffff4f
:020000040000fa
:020000040a00f0
:04a11400ffffffff4b
:020000040000fa
:020000040a00f0
:04a11800ffffffff47
:020000040000fa
:020000040a00f0
:04a11c00ffffffff43
:020000040000fa
:020000040a00f0
:04a12000ffffffff3f
:020000040000fa
:020000040c00ee
:10000000f8b500bff8bc08bc9e467047d910000c7c
:10001000f8b500bff8bc08bc9e467047b510000c90
:020000040000fa
:020000040c00ee
:100020005804022028000000000000009404022070
:10003000040000000000000008040220500000003e
:1000400000000000a40402206c0000000100000079
:10005000b0040220ac040220b00402200000000022
:10006000250000000800022000040000000000003d
:100070000000000000000000000000000000000080
:100080000000000000000000000000003916000c15
:100090000000000000000000000000000000000060
:1000a000d10d000c00000000000000000000000066
:1000b000000000000000000000000000000002201e
:1000c000080400000000000070050220200000006d
:1000d000010000000100000003000000000000001b
:1000e0000000000000000000000000000000000010
:1000f0008c0402208c040220080000000000000094
:1001000098040220080000000000000010050220f2
:10011000600000000100000001000000030000007a
:1001200000000000000000000000000000000000cf
:1001300000000000ed0e000c0000000000000000b8
:10014000000000002916000c5716000c00000000eb
:10015000000000000000000000000000000000009f
:10016000000000000000000000000000000000008f
:1001700000000000000000009005022004000000c4
:100180000100000001000000a004022004000000a3
:1001900000000000800402200c00000000000000ad
:1001a00000000000b803000001000000f0ff112073
:1001b0007908000c8313000ccb15000c4d16000cb5
:1001c0004f16000c5116000c00000000000000004b
:1001d00000000000000000002b10000c0b16000cab
:1001e000000000002b10000ca913000c2b10000cb9
:1001f0002b10000c2b10000c2b10000c2b10000ce3
:100200002b10000c2b10000c2b10000c2b10000cd2
:100210002b10000c2b10000c2b10000c2b10000cc2
:100220002b10000c2b10000c2b10000c2b10000cb2
:100500002b10000c2b10000c2b10000c0000000016
:10051000000000002b10000c2b10000c2b10000c06
:100520002b10000c2b10000c2b10000c2b10000caf
:100530002b10000c2b10000c2b10000c2b10000c9f
:100540002b10000c2b10000c2b10000c2b10000c8f
:100550002b10000c2b10000c2b10000c2b10000c7f
:100560002b10000c000000000000000066666666ac
:020000040000fa
:020000040c00ee
:100570002de9f041aeb006461546059100270599d4
:100580000b78002b00f0fa8000244ff0ff33cde908
:1005900009430eab0c9380230b940d930b5d0bb1b1
:1005a000252b26d134b12246304600f0fffd059bb5
:1005b00023440593059b1a78252a40f0d78003f140
:1005c0000108cdf81480059803782b2b1ad025d874
:1005d000202b1bd0232b1dd02a2b27d000f002fd6f
:1005e0000b90059b1a78303a092a2ed801330593cf
:1005f000f7e70134d2e7099b43f001030130099387
:100600000590e0e7099b43f00403f7e7099b43f0fb
:100610000803f3e7099b43f01003efe72d2bead023
:10062000302bd9d1099b43f00203e7e72b681a1d51
:100630001b682a600130002b05900b9305da099a9c
:100640005b4282f0010209920b93099bda0744bfd7
:1006500023f002030993059b1a782e2a0dd100225c
:10066000581c0a9205905a782a2a25d102330593fc
:100670002b681a1d1b682a600a9305a800f078fdf4
:10068000059b0390187800f0b9ff6928039979d089
:1006900032dc632800f0cb8019dc252800f0d980fb
:1006a000612853d000234ff0ff32cdf81480099316
:1006b0000b930a920093d4e000f094fc0a90059bff
:1006c0001a78303a092ad8d801330593f7e7642815
:1006d00058d06728e6dc2a4606a800f014fe002859
:1006e00000f0a180059b5a1c05921b7806aa09a957
:1006f000304600f0a5ff38e0702873d015dc6e2876
:1007000000f08c806f28cdd12b46002206a800f087
:1007100091f9002800f08780059b06aa013309a9fa
:100720003046059300f08aff1fe075283ad07828fc
:1007300048d07328b6d1802975d1059b2a6801332a
:100740000593131d2b60126800237de02a4606a83e
:1007500000f0d9fd002866d0059b5a1c05921b7835
:1007600006aa09a9304600f06bff04443c44a742a6
:100770007add3e4b4f221a604ff0ff3738462eb0dd
:10078000bde8f0812b46012206a800f053f90028ad
:1007900049d0059b06aa013309a93046059300f00c
:1007a0004dffe2e72b46002206a800f043f900289f
:1007b00039d0059b06aa013309a93046059300f0fc
:1007c0003dffd2e72b46002206a800f033f950b3d4
:1007d000059b5a1c05921b7806aa09a9304600f011
:1007e0002fffc2e72b460022f02106a800f022f9d5
:1007f000c8b1059b01330593dde9062313430bd1f3
:100800001b4800f083fe099b009319490b9b02468d
:10081000304600f0abf9a8e77823dde72b463a191c
:1008200006a800f027fa059b013305939ee780296f
:10083000f9d1059b013305932b681a1d1b682a60ab
:100840008df8183006aa012309a9304600f0fafef7
:100850008be78029e7d1059b01330593099b009322
:100860000b9b04490122d3e7274688e69c0402201b
:080870001816000c1e16000c06
:020000040000fa
:020000040c00ee
:1008780008b53b4b98473b4b9847eff3108172b64e
:10088800394ad2f8883043f47003c2f88830bff38d
:100898004f8fbff36f8f01b962b6bff34f8fbff3ae
:1008a8006f8f314c0723c4f89032c4f89432bff3e9
:1008b8004f8fbff36f8f00f0adfc2c4b23f07f03fd
:1008c800a3602b4b9847636913f4003f12d1bff321
:1008d8004f8fbff36f8f0022c4f85022bff34f8fa2
:1008e800bff36f8f626942f400326261bff34f8fca
:1008f800bff36f8f1c4b5b6913f4803f29d11a4bf0
:100908000022c3f88420bff34f8fd3f88030c3f39d
:10091800c906c3f34e335a0143f6e075124802ea9a
:100928000504334644ea8371c0f86012013bb3f111
:10093800ff3ff7d1203a12f1200ff0d1bff34f8fcc
:10094800094a536943f480335361bff34f8fbff3b0
:100958006f8f084b9847084b984700f033fdfee728
:10096800670d000c670d000c00ed00e000000000b2
:0c097800910e000c670d000c670d000cc8
:020000040000fa
:020000040c00ee
:10098400244b01221a61244ad36943f48023d3619e
:10099400d36813f4806ffbd0204b00221a640c211f
:1009a4009964e1215964da661a46936f13f0400f93
:1009b400fbd11a4b8322da64196c40f602220a43f3
:1009c4001a641a46136913f0807ffbd0144b022279
:1009d4001a611a46936813f0010ffbd0114b124aa7
:1009e4001a621a46536813f0040ffbd10d4b0f4ad9
:1009f4005a621a46536813f0080ffbd1094b41227f
:100a0400c3f8d8201a46d2f8d83013f0400ffad0e1
:100a1400704700bf00200444000002440000044466
:100a240000200544000005440601010006010200ff
:020000040000fa
:020000040c00ee
:100a3400882910b536d012dc812943d003dc802903
:100a440040d0002010bd82290ed08429f9d1196824
:100a540002b30a1d1a60b1f90020d3171ee0a029c1
:100a64002bd00bdc9029ecd11968073121f0070158
:100a740001f108021a60d1e900230fe0c02901d076
:100a8400f029ded11a68111d196013680360002370
:100a9400436005e00a1d1a600a880023c0e90023a8
:100aa4000120cfe7196822b10a1d1a6091f90020cc
:100ab400d3e70a1d1a600a78efe71a68111d196056
:100ac4001268cae719681ab10a1d1a600a68c4e7ed
:0c0ad4000c1d1c600b68c0e90032e1e75b
:020000040000fa
:020000040c00ee
:100ae0002de9ff41836946690093f61acde901615a
:100af00004461746039216444ff002086d464246dc
:100b00002946206800f014fcb04209d1d4e9023231
:100b1000c4e905331a44a262384604b0bde8f08146
:100b200000280dda6268002342f01002b8f1020fcb
:100b3000a362c4e90533626015d06b68ff1aebe766
:100b40006b68984288bf0835a6eb000688bfc01abc
:100b50002b6803442b606b68a3eb000088bf08f18f
:0a0b6000ff386860cbe71f46d6e7b8
:020000040000fa
:020000040c00ee
:020b6a007047d2
:020000040000fa
:020000040c00ee
:100b6c002de9ff471d460c9b13f0010906468a46ea
:100b7c00144601d195420bd822465146304600f01e
:100b8c000ffba54204d82546284604b0bde8f087e3
:100b9c002f1b102f3a464ff0200128bf1022684619
:100bac00b84600f0f9fc00bfb8f10f0f11d83b09a3
:100bbc006ff00f0202fb03726946304600f0f0fa48
:100bcc00b9f1000fe0d122465146304600f0e8fa68
:100bdc00dae710226946304600f0e2faa8f1100874
:040bec00e2e700bf7d
:020000040000fa
:020000040c00ee
:100bf000f0b51f4c2568a446002d36d000222946aa
:100c000016461346d1f800e00f6986450ad132b185
:100c1000176101f110031846f0bd3946f2e7ccf830
:100c20000070f6e705d9ebb11c68a6453cbf164637
:100c30000b460a46002ff0d1002becd019461f6955
:100c400051f8102b121a102a05d918600844103ace
:100c50000761026007469d420cbfccf80070376107
:100c60000b46d8e716460b46e3e72b46d3e700bf13
:040c7000a0040220ba
:020000040000fa
:020000040c00ee
:100c7400842910b523d00cdc812903d0822913d018
:100c840080290bd119680c1d1c600b6803601a6065
:100c940013e0902921d003dc882917d0002010bd4f
:100ca400a029efd0c029ece719680c1d1c600b6863
:100cb4000360d1171046c3e900010120efe719686a
:100cc4000c1d1c600b6803601a80f6e719680c1d84
:100cd4001c600b6803601a70efe719680c1d1c6038
:0c0ce40009680160d317c1e90023e6e7ae
:020000040000fa
:020000040c00ee
:100cf000f8b5846a05460f46164654b1ab6a6a6970
:100d00009b1ab3420bd2324639462846fff7e8fe1b
:100d1000f8bd00f0e3fb0028f0d02046f8e7002ef5
:100d2000f1d095f93430002b1bdbdbb23446621e68
:100d3000b95c994212d1224639462846fff7d0fec7
:100d4000a042e5d32744341b22463946686900f0a7
:100d5000abfb6b691c446c613046d9e71446002a32
:060d6000e5d13446f0e786
:020000040000fa
:020000040c00ee
:020d66007047d4
:020000040000fa
:020000040c00ee
:100d6800184b4ff000421a601a614ff40012c3f892
:100d78008020002283f8d52083f8d620062183f826
:100d8800d81083f8ba2083f8bb2083f8bc204ff42e
:100d98008050c3f80001c3f81001012083f8440112
:100da80083f8470183f85711032183f83211302162
:100db80083f8331183f83b2140f20442c3f8102230
:080dc800704700bf00008444e5
:020000040000fa
:020000040c00ee
:100dd0007fb5c36800911546002b18bf013a0192f8
:100de00082680446cde902230e4602226946006865
:100df00000f074fa002808dc00f0180383f0080201
:100e000063681343636005460fe0019a8242fad299
:100e1000a368e363801ae268184420642ab15a1c6c
:100e2000e2632e441b7806f8013c284604b070bdee
:020000040000fa
:020000040c00ee
:100e300037b5154d2b68044673b100f0ebfa0190fd
:100e400001a800f086fb0f30019920f00f0000f0a0
:100e500069fb60b100232b60002c08bf01240f3414
:100e600034f00f0405d1094b0c221a60204603b060
:100e700030bd042c38bf04242046fff7b9fe0028fb
:100e8000f5d040f8044cf2e7900502209c040220c3
:020000040000fa
:020000040c00ee
:100e90000e4a38b5002313600d4a0e4c13600e4afb
:100ea0000e4d13600e4a13600e4a13600e4a5362d1
:100eb00013610123936000f099fb00f0cafbac4280
:100ec00000d338bd54f8043b9847f8e79804022053
:100ed000140402200c00000c100402201000000c6e
:0c0ee000080402200c0402201804022068
:020000040000fa
:020000040c00ee
:100eec0038b50d46044608b9002038bd43689b064a
:100efc0007d5d0e905239a4216d80023c4e9053357
:100f0c00a362d4e90f13994204d20122c91a2068b2
:100f1c0000f094fb0023c4e90f33002de4d02068cb
:100f2c00bde8384000f07dbb0022c36a11469847eb
:0c0f3c006369002be1d14ff0ff30d6e7d5
:020000040000fa
:020000040c00ee
:100f480010b370b506460d4600f07ef9d5b1002401
:100f58000e4a137e13f0040ffbd0538b13f0070fc8
:100f68000bd1536803f00703012b936a14bf335561
:100f780026f814300134a542ebd1a54214bf002055
:100f8800012070bd2c46f8e700207047002000467d
:020000040000fa
:020000040c00ee
:100f9800022a70b5044616461d461ad043689b06b9
:100fa80017d441b9002d08bf4ff4806505f108003a
:100fb800fff73aff01466368012e43f020036360a0
:100fc800c4e9021514bfff230a2384f83430024b06
:0c0fd800e362002070bd00bff10c000cb3
:020000040000fa
:020000040c00ee
:100fe40010b50278202a034600f10100f9d0a2f1dd
:100ff40009010429f5d92b2a07d02d2a11d1012161
:101004000133013b00200a2403e00021f8e7604398
:10101400801a13f8012f303a092af8d901b940424d
:0610240010bd0021ede704
:020000040000fa
:020000040c00ee
:02102a00fee7df
:020000040000fa
:020000040c00ee
:10102c000e4bd96821f4e0610904090c0c4a0a43ff
:10103c00da60bff35f8f62b65a6a42f480225a625a
:10104c005a6942f010025a615a6a42f400325a62ea
:10105c005a6a42f480325a62704700bf00ed00e0d9
:04106c000000fa0581
:020000040000fa
:020000040c00ee
:10107000d0b110b40446c9b1084421460c4a6442b8
:10108000137e13f0010ffbd0536803f00703012b0d
:1010900014bf0b7834f81130936201318142efd1e3
:1010a00001205df8044b7047002070470120f8e7ed
:0410b00000200046d6
:020000040000fa
:020000040c00ee
:1010b40010b5054c227832b9044b13b10448aff390
:1010c40000800123237010bd58040220000000009a
:1010d4000000000008b5034b1bb103490348aff3fc
:1010e400008008bd000000005c0402200000000035
:020000040000fa
:020000040c00ee
:1010f40008b50d4b1b680021186800f06dfa0b4b06
:101104001b680021186800f067fafff72bfefff751
:1011140037fc00f067f8fff726fd00f0d1f900f086
:101124002ff9fff781ff08bda80402208c050220d7
:020000040000fa
:020000040c00ee
:101134000d0a53656375726520426f6f742069737d
:10114400205375636365737366756c2c204c45443a
:1011540030206f6e2074686520626f617264206253
:0c1164006c696e6b73202020200000bf1f
:020000040000fa
:020000040c00ee
:1011700030b50d4a002300bf12f8134024b902eb2a
:1011800043035b78184630bd01680d78a54209bf5e
:1011900002eb430301335b78013114bfdbb2016022
:0c11a0000a2be9d9eee700bf3c15000c5b
:020000040000fa
:020000040c00ee
:1011ac0038b5436813f4807f0446154611d00369a3
:1011bc009a4228bf1d465db12a46406900f06ef97f
:1011cc00636922692b44551b0022636125611a70e7
:0c11dc0038bddb06fcd400f087f9f9e711
:020000040000fa
:020000040c00ee
:1011e8000a4b0b4a1a604ff6da429a814ff44032a2
:1011f8005a601a46d369002bfcd1044a136843f09d
:1012080002031360d369002bfcd17047002000460d
:04121800040130405d
:020000040000fa
:020000040c00ee
:10121c0070b50a480a4d4ff6ff76016811b943685c
:10122c0003b970bd83684268334000f10c0455f873
:10123c0023302046984704eb8000eee72000000c9a
:04124c007c15000c01
:020000040000fa
:020000040c00ee
:101250000a4b5b8b13f0070f0ed0084b80221a76d7
:1012600007225a831b7e13f0040f05d0034b9a6aa2
:101270001a7e12f0040ffad1704700bf002000461a
:020000040000fa
:020000040c00ee
:10128000064b1a680ab9064a1a60064a116809b973
:10129000054911601a68054b1a60704788040220de
:1012a000980502208404022098070220800402206e
:020000040000fa
:020000040c00ee
:1012b00010b5084c23680bb9fff7e2ff0649226816
:1012c00009681044814234bf4ff0ff32206010465d
:0c12d00010bd00bf800402208404022036
:020000040000fa
:020000040c00ee
:1012dc002de9f0410024804617460e462546bd42b6
:1012ec0002db2046bde8f081726856f8081b4046c8
:0a12fc0000f09af801350444f1e710
:020000040000fa
:020000040c00ee
:10130600802910db812901dd83290cd1136807337d
:1013160023f0070303f108011160d3e90023c0e9b4
:0a13260000230120704700207047eb
:020000040000fa
:020000040c00ee
:101330002de9f0410024804617460e462546bd4261
:1013400002db2046bde8f081726856f8081b404673
:0a13500000f08ef801350444f1e7c7
:020000040000fa
:020000040c00ee
:10135a0090f948305a1e1343426880f8483012f018
:10136a0004031bbf42f010024260c0e90f334ff082
:08137a00ff3008bf1846704760
:020000040000fa
:020000040c00ee
:02138200fee784
:020000040000fa
:020000040c00ee
:10138400054a0023136093600449516006211160eb
:10139400034a93601360704710e000e0feffff0013
:0413a40074040220ab
:020000040000fa
:020000040c00ee
:1013a80008b5064b5868064a12689a6801329a606e
:1013b8001b6813b1014b1b68984708bd74040220d1
:0413c80010e000e051
:020000040000fa
:020000040c00ee
:1013cc0008b50020fff790fe0021044800f018f942
:1013dc0000f0c4f8024800f005f8fee7cd15000c4b
:0413ec003411000cac
:020000040000fa
:020000040c00ee
:1013f0000fb407b5064b04aa1b6852f8041b186803
:10140000019200f043f803b05df804eb04b07047bc
:041410008c05022025
:020000040000fa
:020000040c00ee
:1014140010b5054c22680ab9fff730ff034b186872
:101424002368c01a10bd00bf800402208404022077
:020000040000fa
:020000040c00ee
:1014340058b952b138b50c46012529462046fff764
:0e14440081fd0028f9d0012038bd002070473e
:020000040000fa
:020000040c00ee
:1014520010b50023934206d113f0030018bf0120f8
:0e14620000eb930010bdc45ccc540133f2e7e4
:020000040000fa
:020000040c00ee
:1014700038b50d461446012801d0204638bd214616
:0c1480002846fff7f5fd0028f9d0f6e73c
:020000040000fa
:020000040c00ee
:10148c0013b50446019201aafff76cf8636813f0d8
:0c149c00100f18bf4ff0ff3002b010bd61
:020000040000fa
:020000040c00ee
:1014a8005ab110b40a44431e11f8014b03f8014f16
:0c14b8009142f9d15df8044b7047704779
:020000040000fa
:020000040c00ee
:1014c400044b4ff40012c3f894204ff48002c3f885
:0814d4009820704700008444d9
:020000040000fa
:020000040c00ee
:1014dc0010b50446fff73bff28b9a368e268c4e9de
:0814ec0005331344a36210bd97
:020000040000fa
:020000040c00ee
:1014f40010b4c46a1cb123465df8044b1847006855
:081504005df8044bfff7b2bfd4
:020000040000fa
:020000040c00ee
:10150c0003783bb1034600bf13f8012f002afbd12f
:08151c00181a704718467047c9
:020000040000fa
:020000040c00ee
:10152400044a136823b91060036101600120704705
:0815340000207047a004022012
:020000040000fa
:020000040c00ee
:10153c0068076c094c836a9074a07ac00080688834
:06154c0000846c820081a6
:020000040000fa
:020000040c00ee
:101552000068002808b501da002008bdfff7a7fee1
:06156200431cfad1f8e77a
:020000040000fa
:020000040c00ee
:10156800034b00229a601a6842f001021a60704721
:0415780010e000e09f
:020000040000fa
:020000040c00ee
:10157c00b915000c5314000c3516000c3516000c64
:04158c003516000c04
:020000040000fa
:020000040c00ee
:1015900008b500f045f8024b1860586008bd00bf60
:0415a0008c04022095
:020000040000fa
:020000040c00ee
:1015a40032b1c9b20244034603f8011b9342fbd192
:0415b400704700bfbd
:020000040000fa
:020000040c00ee
:1015b8000a440023914201d10020704701f8013b01
:0215c800f8e742
:020000040000fa
:020000040c00ee
:0215ca00fee73a
:020000040000fa
:020000040c00ee
:1015cc00024b4ff40012c3f89c2070470000844477
:020000040000fa
:020000040c00ee
:1015dc0000294ff480630cbf02220022fff7d6bc17
:020000040000fa
:020000040c00ee
:1015ec0008b5fff7cfff00f02ff800f02df808bd7d
:020000040000fa
:020000040c00ee
:0e15fc00a0f14103192b98bf40f0200070476a
:020000040000fa
:020000040c00ee
:02160a00fee7f9
:020000040000fa
:020000040c00ee
:0c160c00014b1860596070477404022004
:020000040000fa
:020000040c00ee
:08161800286e696c2900250011
:020000040000fa
:020000040c00ee
:0816200000487047100502208c
:020000040000fa
:020000040c00ee
:061628000068fff721bf7e
:020000040000fa
:020000040c00ee
:06162e004ff0ff30704791
:020000040000fa
:020000040c00ee
:0416340000207047db
:020000040000fa
:020000040c00ee
:0416380000207047d7
:020000040000fa
:020000040c00ee
:04163c0000207047d3
:020000040000fa
:020000040c00ee
:0416400000207047cf
:020000040000fa
:020000040c00ee
:0416440000207047cb
:020000040000fa
:020000040c00ee
:0416480000207047c7
:020000040000fa
:020000040c00ee
:02164c00fee7b7
:020000040000fa
:020000040c00ee
:02164e00fee7b5
:020000040000fa
:020000040c00ee
:02165000fee7b3
:020000040000fa
:020000040c00ee
:021652007047df
:020000040000fa
:020000040c00ee
:021654007047dd
:020000040000fa
:020000040c00ee
:021656007047db
:00000001FF
