:020000040000fa
:020000040800f2
:10000000f8ff1120c509000ce713000cbf17000c06
:100010008b1a000ce31b000c2d1c000c00000000d0
:100020000000000000000000000000005313000c5e
:10003000bf19000c000000005313000c3119000c14
:100040005313000c5313000c5313000c5313000ce8
:100050005313000c5313000c5313000c5313000cd8
:100060005313000c5313000c5313000c5313000cc8
:100070005313000c5313000c5313000c5313000cb8
:1003600000000000000000005313000c5313000ca9
:100370005313000c5313000c5313000c5313000cb5
:100380005313000c5313000c5313000c5313000ca5
:100390005313000c5313000c5313000c5313000c95
:1003a0005313000c5313000c5313000c5313000c85
:0803b0005313000c5313000c61
:020000040000fa
:020000040a00f0
:040000000100fefffe
:020000040000fa
:020000040a00f0
:04002000ffffffffe0
:020000040000fa
:020000040a00f0
:0400400000000000bc
:020000040000fa
:020000040a00f0
:04004400ffffffffbc
:020000040000fa
:020000040a00f0
:0400480001000000b3
:020000040000fa
:020000040a00f0
:04004c00410400006b
:020000040000fa
:020000040a00f0
:04005400ffff0000aa
:020000040000fa
:020000040a00f0
:040058007000000034
:020000040000fa
:020000040a00f0
:04005c00020000009e
:020000040000fa
:020000040a00f0
:04006000000000009c
:020000040000fa
:020000040a00f0
:040064000202000094
:020000040000fa
:020000040a00f0
:04008000ffffffff80
:020000040000fa
:020000040a00f0
:0400a000ffffffff60
:020000040000fa
:020000040a00f0
:04200000000000c01c
:020000040000fa
:020000040a00f0
:042004000100feffda
:020000040000fa
:020000040a00f0
:04200800ffffffffd8
:020000040000fa
:020000040a00f0
:04208000ffffffff60
:020000040000fa
:020000040a00f0
:04208400ffffffff5c
:020000040000fa
:020000040a00f0
:04208800ffffffff58
:020000040000fa
:020000040a00f0
:04208c00ffffffff54
:020000040000fa
:020000040a00f0
:04209000ffffffff50
:020000040000fa
:020000040a00f0
:04209400ffffffff4c
:020000040000fa
:020000040a00f0
:04209800ffffffff48
:020000040000fa
:020000040a00f0
:04209c00ffffffff44
:020000040000fa
:020000040a00f0
:0420a000ffffffff40
:020000040000fa
:020000040a00f0
:0420a400ffffffff3c
:020000040000fa
:020000040a00f0
:0420a800ffffffff38
:020000040000fa
:020000040a00f0
:0420ac00ffffffff34
:020000040000fa
:020000040a00f0
:0420b000ffffffff30
:020000040000fa
:020000040a00f0
:0420b400ffffffff2c
:020000040000fa
:020000040a00f0
:0420b800ffffffff28
:020000040000fa
:020000040a00f0
:0420bc00ffffffff24
:020000040000fa
:020000040a00f0
:0420c000ffffffff20
:020000040000fa
:020000040a00f0
:0420c400ffffffff1c
:020000040000fa
:020000040a00f0
:0420c800ffffffff18
:020000040000fa
:020000040a00f0
:0420cc00ffffffff14
:020000040000fa
:020000040a00f0
:0420d000ffffffff10
:020000040000fa
:020000040a00f0
:0420d400ffffffff0c
:020000040000fa
:020000040a00f0
:0420d800ffffffff08
:020000040000fa
:020000040a00f0
:0420dc00ffffffff04
:020000040000fa
:020000040a00f0
:0420e00006070000ef
:020000040000fa
:020000040a00f0
:0420e40004cf0f0016
:020000040000fa
:020000040a00f0
:0420e80006f70401f2
:020000040000fa
:020000040a00f0
:0420ec00863a000030
:020000040000fa
:020000040a00f0
:0420f000ff030000ea
:020000040000fa
:020000040a00f0
:0420f4003f000000a9
:020000040000fa
:020000040a00f0
:0420f800bf00000025
:020000040000fa
:020000040a00f0
:0420fc00ffffffffe4
:020000040000fa
:020000040a00f0
:04210000ffffffffdf
:020000040000fa
:020000040a00f0
:04211000ffffffffcf
:020000040000fa
:020000040a00f0
:04211400ffffffffcb
:020000040000fa
:020000040a00f0
:04211800ffffffffc7
:020000040000fa
:020000040a00f0
:04211c00ffffffffc3
:020000040000fa
:020000040a00f0
:04212000ffffffffbf
:020000040000fa
:020000040a00f0
:048000000000ffff7e
:020000040000fa
:020000040a00f0
:04802000ffffffff60
:020000040000fa
:020000040a00f0
:0480400044000000f8
:020000040000fa
:020000040a00f0
:04804400ffffffff3c
:020000040000fa
:020000040a00f0
:048048000100000033
:020000040000fa
:020000040a00f0
:04804c0041040000eb
:020000040000fa
:020000040a00f0
:04805400ffff00002a
:020000040000fa
:020000040a00f0
:0480580070000000b4
:020000040000fa
:020000040a00f0
:04805c00020000001e
:020000040000fa
:020000040a00f0
:04806000000000001c
:020000040000fa
:020000040a00f0
:048064000202000014
:020000040000fa
:020000040a00f0
:0480800000f87d0c7b
:020000040000fa
:020000040a00f0
:0480a000ffffffffe0
:020000040000fa
:020000040a00f0
:04a00000000000c09c
:020000040000fa
:020000040a00f0
:04a004000000ffff5a
:020000040000fa
:020000040a00f0
:04a00800ffffffff58
:020000040000fa
:020000040a00f0
:04a08000ffffffffe0
:020000040000fa
:020000040a00f0
:04a08400ffffffffdc
:020000040000fa
:020000040a00f0
:04a08800ffffffffd8
:020000040000fa
:020000040a00f0
:04a08c00ffffffffd4
:020000040000fa
:020000040a00f0
:04a09000ffffffffd0
:020000040000fa
:020000040a00f0
:04a09400ffffffffcc
:020000040000fa
:020000040a00f0
:04a09800ffffffffc8
:020000040000fa
:020000040a00f0
:04a09c00ffffffffc4
:020000040000fa
:020000040a00f0
:04a0a000ffffffffc0
:020000040000fa
:020000040a00f0
:04a0a400ffffffffbc
:020000040000fa
:020000040a00f0
:04a0a800ffffffffb8
:020000040000fa
:020000040a00f0
:04a0ac00ffffffffb4
:020000040000fa
:020000040a00f0
:04a0b000ffffffffb0
:020000040000fa
:020000040a00f0
:04a0b400ffffffffac
:020000040000fa
:020000040a00f0
:04a0b800ffffffffa8
:020000040000fa
:020000040a00f0
:04a0bc00ffffffffa4
:020000040000fa
:020000040a00f0
:04a0c000ffffffffa0
:020000040000fa
:020000040a00f0
:04a0c400ffffffff9c
:020000040000fa
:020000040a00f0
:04a0c800ffffffff98
:020000040000fa
:020000040a00f0
:04a0cc00ffffffff94
:020000040000fa
:020000040a00f0
:04a0d000ffffffff90
:020000040000fa
:020000040a00f0
:04a0d400ffffffff8c
:020000040000fa
:020000040a00f0
:04a0d800ffffffff88
:020000040000fa
:020000040a00f0
:04a0dc00ffffffff84
:020000040000fa
:020000040a00f0
:04a0e000060700006f
:020000040000fa
:020000040a00f0
:04a0e40004cf0f0096
:020000040000fa
:020000040a00f0
:04a0e80006f7040172
:020000040000fa
:020000040a00f0
:04a0ec00863a0000b0
:020000040000fa
:020000040a00f0
:04a0f000ff0300006a
:020000040000fa
:020000040a00f0
:04a0f4003f00000029
:020000040000fa
:020000040a00f0
:04a0f800bf000000a5
:020000040000fa
:020000040a00f0
:04a0fc00ffffffff64
:020000040000fa
:020000040a00f0
:04a10000ffffffff5f
:020000040000fa
:020000040a00f0
:04a11000ffffffff4f
:020000040000fa
:020000040a00f0
:04a11400ffffffff4b
:020000040000fa
:020000040a00f0
:04a11800ffffffff47
:020000040000fa
:020000040a00f0
:04a11c00ffffffff43
:020000040000fa
:020000040a00f0
:04a12000ffffffff3f
:020000040000fa
:020000040c00ee
:10000000f8b500bff8bc08bc9e467047d914000c78
:10001000f8b500bff8bc08bc9e467047b514000c8c
:020000040000fa
:020000040c00ee
:100020005804022028000000000000009404022070
:100030000c000000000000009405022004000000f5
:100040000100000001000000a004022004000000e4
:100050000000000008040220500000000000000022
:10006000a80402206c00000001000000b40402207b
:10007000b0040220b40402200000000025000000ab
:100080000800022000040000000000000000000042
:100090000000000000000000000000000000000060
:1000a0000000000000000000191c000c000000000f
:1000b0000000000000000000000000004111000ce2
:1000c0000000000000000000000000000000000030
:1000d00000000000000000000000022008040000f2
:1000e0000000000074050220200000000100000054
:1000f00001000000030000000000000000000000fc
:100100000000000000000000000000008c0402203d
:100110008c0402200800000000000000a40402205b
:100120000400000000000000140502206000000030
:1001300001000000010000000300000000000000ba
:1001400000000000000000000000000000000000af
:100150005912000c00000000000000000000000028
:10016000091c000c331c000c000000000000000003
:10017000000000000000000000000000000000007f
:10018000000000000000000000000000000000006f
:1001900000000000800402200c00000000000000ad
:1001a00000000000b803000001000000f8ff11206b
:1001b000c509000ce713000cbf17000c8b1a000ccc
:1001c000e31b000c2d1c000c0000000000000000d0
:1001d00000000000000000005313000cbf19000cc9
:1001e000000000005313000c3119000c5313000cd5
:1001f0005313000c5313000c5313000c5313000c37
:100200005313000c5313000c5313000c5313000c26
:100210005313000c5313000c5313000c5313000c16
:100220005313000c5313000c5313000c5313000c06
:100500005313000c5313000c5313000c0000000095
:10051000000000005313000c5313000c5313000c85
:100520005313000c5313000c5313000c5313000c03
:100530005313000c5313000c5313000c5313000cf3
:100540005313000c5313000c5313000c5313000ce3
:100550005313000c5313000c5313000c5313000cd3
:100560005313000c00000000000000006666666681
:020000040000fa
:020000040c00ee
:100570002de9f041aeb006461546059100270599d4
:100580000b78002b00f0fa8000244ff0ff33cde908
:1005900009430eab0c9380230b940d930b5d0bb1b1
:1005a000252b26d134b12246304601f01ff8059b99
:1005b00023440593059b1a78252a40f0d78003f140
:1005c0000108cdf81480059803782b2b1ad025d874
:1005d000202b1bd0232b1dd02a2b27d000f0e0fe90
:1005e0000b90059b1a78303a092a2ed801330593cf
:1005f000f7e70134d2e7099b43f001030130099387
:100600000590e0e7099b43f00403f7e7099b43f0fb
:100610000803f3e7099b43f01003efe72d2bead023
:10062000302bd9d1099b43f00203e7e72b681a1d51
:100630001b682a600130002b05900b9305da099a9c
:100640005b4282f0010209920b93099bda0744bfd7
:1006500023f002030993059b1a782e2a0dd100225c
:10066000581c0a9205905a782a2a25d102330593fc
:100670002b681a1d1b682a600a9305a800f098ffd2
:10068000059b0390187801f0a5fa6928039979d0a1
:1006900032dc632800f0cb8019dc252800f0d980fb
:1006a000612853d000234ff0ff32cdf81480099316
:1006b0000b930a920093d4e000f072fe0a90059b1f
:1006c0001a78303a092ad8d801330593f7e7642815
:1006d00058d06728e6dc2a4606a801f0b1f80028c1
:1006e00000f0a180059b5a1c05921b7806aa09a957
:1006f000304601f095fa38e0702873d015dc6e288a
:1007000000f08c806f28cdd12b46002206a800f087
:10071000affa002800f08780059b06aa013309a9db
:100720003046059301f07afa1fe075283ad0782810
:1007300048d07328b6d1802975d1059b2a6801332a
:100740000593131d2b60126800237de02a4606a83e
:1007500001f076f8002866d0059b5a1c05921b789c
:1007600006aa09a9304601f05bfa04443c44a742ba
:100770007add3e4b4f221a604ff0ff3738462eb0dd
:10078000bde8f0812b46012206a800f071fa00288e
:1007900049d0059b06aa013309a93046059301f00b
:1007a0003dfae2e72b46002206a800f061fa002895
:1007b00039d0059b06aa013309a93046059301f0fb
:1007c0002dfad2e72b46002206a800f051fa50b3ca
:1007d000059b5a1c05921b7806aa09a9304601f010
:1007e0001ffac2e72b460022f02106a800f040facb
:1007f000c8b1059b01330593dde9062313430bd1f3
:100800001b4801f073f9099b009319490b9b0246a1
:10081000304600f00bfba8e77823dde72b463a19ba
:1008200006a800f045fb059b013305939ee7802950
:10083000f9d1059b013305932b681a1d1b682a60ab
:100840008df8183006aa012309a9304601f0eaf90b
:100850008be78029e7d1059b01330593099b009322
:100860000b9b04490122d3e7274688e6a004022017
:08087000f01b000cf61b000c4c
:020000040000fa
:020000040c00ee
:1008780048534d20495320494e20424f4f5420534e
:1008880054415445200d00000d0a53454355524527
:1008980020424f4f542049532044495341424c452c
:1008a800442c204e45454420544f204c4f41442071
:1008b8004649524d57415245200d00005345435576
:1008c800524520424f4f5420495320454e41424cf7
:1008d800454420200d00000053494d554c54414ecd
:1008e800454f55532053454355524520424f4f5489
:1008f80020697320454e41424c45440d00000000dc
:1009080053455155454e5449414c20534543555242
:100918004520424f4f5420697320454e41424c4573
:10092800440d00004649414e4c495a452053454321
:1009380055524520424f4f54200d00000d0a534593
:100948004355524520424f4f5420495320444f4e5f
:10095800452e200d0a47455420536563757265205e
:10096800426f6f7420436f6e666967757261746950
:100978006f6e3a200000000053656375726520426f
:100988006f6f74206661696c65642e200d0a2045be
:100998004e54455245442053414645204d4f444509
:1009a800200d000053454355524520424f4f5420d7
:0c09b800495320504153534544200d008a
:020000040000fa
:020000040c00ee
:1009c40008b53b4b98473b4b9847eff3108172b601
:1009d400394ad2f8883043f47003c2f88830bff340
:1009e4004f8fbff36f8f01b962b6bff34f8fbff361
:1009f4006f8f314c0723c4f89032c4f89432bff39c
:100a04004f8fbff36f8f00f05ffe2c4b23f07f03fb
:100a1400a3602b4b9847636913f4003f12d1bff3d3
:100a24004f8fbff36f8f0022c4f85022bff34f8f54
:100a3400bff36f8f626942f400326261bff34f8f7c
:100a4400bff36f8f1c4b5b6913f4803f29d11a4ba2
:100a54000022c3f88420bff34f8fd3f88030c3f350
:100a6400c906c3f34e335a0143f6e075124802ea4d
:100a74000504334644ea8371c0f86012013bb3f1c4
:100a8400ff3ff7d1203a12f1200ff0d1bff34f8f7f
:100a9400094a536943f480335361bff34f8fbff363
:100aa4006f8f084b9847084b984700f0f1fefee71c
:100ab400a30f000ca30f000c00ed00e000000000e9
:0c0ac400fd11000ca30f000ca30f000c90
:020000040000fa
:020000040c00ee
:100ad00010b52f4b1b6813f0020f03d143f0020334
:100ae0002b4a13602a4c63692a4800f051fe00f03b
:100af000bfff6469c4f30213012b0bd0022b3ad061
:100b0000254800f0dbfe224b5b69c3f30233052b63
:100b100037d010bd214800f0d1fec4f30234012cbf
:100b20001ed01f4800f0cafe194b5b6913f0010f7d
:100b300004d0174a536913f0010ffbd1144bd3f8bb
:100b4000443113f4801f12d0164800f0b7fe00f0b5
:100b50008fff154800f0b2fe012000f0ebfcd2e759
:100b6000124800f0abfe0b4800f0e2fdcbe7104866
:100b700000f0a4feede70f4800f0fefe00f012fad0
:100b8000c1e70d4800f09afe0c4b01221a60c0e745
:100b90000080014f00f87d0c8009000c7808000ce3
:100ba000c408000ce008000c2c09000c9008000c94
:100bb0000809000c4409000cac09000c9404022044
:020000040000fa
:020000040c00ee
:100bc000244b01221a61244ad36943f48023d36160
:100bd000d36813f4806ffbd0204b00221a640c21e1
:100be0009964e1215964da661a46936f13f0400f55
:100bf000fbd11a4b8322da64196c40f602220a43b5
:100c00001a641a46136913f0807ffbd0144b02223a
:100c10001a611a46936813f0010ffbd0114b124a68
:100c20001a621a46536813f0040ffbd10d4b0f4a9a
:100c30005a621a46536813f0080ffbd1094b412240
:100c4000c3f8d8201a46d2f8d83013f0400ffad0a3
:100c5000704700bf00200444000002440000044428
:100c600000200544000005440601010006010200c1
:020000040000fa
:020000040c00ee
:100c7000882910b536d012dc812943d003dc8029c5
:100c800040d0002010bd82290ed08429f9d11968e6
:100c900002b30a1d1a60b1f90020d3171ee0a02983
:100ca0002bd00bdc9029ecd11968073121f007011a
:100cb00001f108021a60d1e900230fe0c02901d038
:100cc000f029ded11a68111d196013680360002332
:100cd000436005e00a1d1a600a880023c0e900236a
:100ce0000120cfe7196822b10a1d1a6091f900208e
:100cf000d3e70a1d1a600a78efe71a68111d196018
:100d00001268cae719681ab10a1d1a600a68c4e7ae
:0c0d10000c1d1c600b68c0e90032e1e71c
:020000040000fa
:020000040c00ee
:100d1c002de9ff41836946690093f61acde901611b
:100d2c0004461746039216444ff002086d4642469d
:100d3c002946206800f093fdb04209d1d4e9023273
:100d4c00c4e905331a44a262384604b0bde8f08108
:100d5c0000280dda6268002342f01002b8f1020f8d
:100d6c00a362c4e90533626015d06b68ff1aebe728
:100d7c006b68984288bf0835a6eb000688bfc01a7e
:100d8c002b6803442b606b68a3eb000088bf08f151
:0a0d9c00ff386860cbe71f46d6e77a
:020000040000fa
:020000040c00ee
:020da600704794
:020000040000fa
:020000040c00ee
:100da800f0b51f4c2568a446002d36d000222946f0
:100db80016461346d1f800e00f6986450ad132b1cc
:100dc800176101f110031846f0bd3946f2e7ccf877
:100dd8000070f6e705d9ebb11c68a6453cbf16467e
:100de8000b460a46002ff0d1002becd019461f699c
:100df80051f8102b121a102a05d918600844103a15
:100e08000761026007469d420cbfccf8007037614d
:100e18000b46d8e716460b46e3e72b46d3e700bf59
:040e28009c04022004
:020000040000fa
:020000040c00ee
:100e2c002de9ff471d460c9b13f0010906468a4627
:100e3c00144601d195420bd822465146304600f05b
:100e4c00cffba54204d82546284604b0bde8f08760
:100e5c002f1b102f3a464ff0200128bf1022684656
:100e6c00b84600f073fe00bfb8f10f0f11d83b0964
:100e7c006ff00f0202fb03726946304600f0b0fbc4
:100e8c00b9f1000fe0d122465146304600f0a8fbe4
:100e9c00dae710226946304600f0a2fba8f11008f0
:040eac00e2e700bfba
:020000040000fa
:020000040c00ee
:100eb000842910b523d00cdc812903d0822913d0da
:100ec00080290bd119680c1d1c600b6803601a6027
:100ed00013e0902921d003dc882917d0002010bd11
:100ee000a029efd0c029ece719680c1d1c600b6825
:100ef0000360d1171046c3e900010120efe719682c
:100f00000c1d1c600b6803601a80f6e719680c1d45
:100f10001c600b6803601a70efe719680c1d1c60f9
:0c0f200009680160d317c1e90023e6e76f
:020000040000fa
:020000040c00ee
:100f2c00f8b5846a05460f46164654b1ab6a6a6931
:100f3c009b1ab3420bd2324639462846fff7e8fedd
:100f4c00f8bd00f0b5fd0028f0d02046f8e7002ee3
:100f5c00f1d095f93430002b1bdbdbb23446621e2a
:100f6c00b95c994212d1224639462846fff7d0fe89
:100f7c00a042e5d32744341b22463946686900f069
:100f8c0063fd6b691c446c613046d9e71446002a3a
:060f9c00e5d13446f0e748
:020000040000fa
:020000040c00ee
:020fa200704796
:020000040000fa
:020000040c00ee
:100fa40070b5202000f09af804461e220021023079
:100fb40000f0d0fd102020802023a3700023237193
:100fc400637100f08bf806460146204600f0d6fd1a
:100fd400f568012d0ed04db1022d0fd0204600f042
:100fe40045fa304600f042fa284670bd054800f044
:100ff40063fcf3e7044800f05ffcefe7034800f00c
:101004005bfcebe72816000c3416000c4416000cad
:020000040000fa
:020000040c00ee
:10101400184b4ff000421a601a614ff40012c3f8e3
:101024008020002283f8d52083f8d620062183f877
:10103400d81083f8ba2083f8bb2083f8bc204ff47f
:101044008050c3f80001c3f81001012083f8440163
:1010540083f8470183f85711032183f832113021b3
:1010640083f8331183f83b2140f20442c3f8102281
:08107400704700bf0000844436
:020000040000fa
:020000040c00ee
:10107c00174bd3f840215b6913f0010f0cd012f41d
:10108c00801f09d1124bd3f840115a6912f0010f8d
:10109c0002d011f4801ff6d0038801680c4ac2f804
:1010ac005011043b9bb283b110b40122084c50f890
:1010bc002210c4f800110132d2b2043b9bb2002bb7
:1010cc00f5d101205df8044b70470120704700bf3b
:0410dc000080014f40
:020000040000fa
:020000040c00ee
:1010e00037b5154d2b68044673b100f069fc0190cb
:1010f00001a800f007fd0f30019920f00f0000f06b
:10110000d1fc60b100232b60002c08bf01240f34f8
:1011100034f00f0405d1094b0c221a60204603b0ad
:1011200030bd042c38bf04242046fff73dfe0028c4
:10113000f5d040f8044cf2e794050220a004022008
:020000040000fa
:020000040c00ee
:101140007fb5c36800911546002b18bf013a019284
:1011500082680446cde902230e46022269460068f1
:1011600000f059fb002808dc00f0180383f00802a7
:1011700063681343636005460fe0019a8242fad226
:10118000a368e363801ae268184420642ab15a1cf9
:10119000e2632e441b7806f8013c284604b070bd7b
:020000040000fa
:020000040c00ee
:1011a00030b40446134bd3f84421586912f4801f1d
:1011b0001dd1d3f84421586912f4801ff9d0c0f32f
:1011c00003400d4b1a682260043a92b26ab10123bf
:1011d000084d03f1400155f8211044f82310013364
:1011e000dbb2043a92b2002af3d130bc7047c0f3ac
:0c11f0000340e6e70080014f5481014fee
:020000040000fa
:020000040c00ee
:1011fc000e4a38b5002313600d4a0e4c13600e4a8c
:10120c000e4d13600e4a13600e4a13600e4a536261
:10121c0013610123936000f0cffc00f002fdac429f
:10122c0000d338bd54f8043b9847f8e7a4040220d7
:10123c00140402200c00000c100402201000000cfe
:0c124c00080402200c04022018040220f8
:020000040000fa
:020000040c00ee
:1012580038b50d46044608b9002038bd43689b06da
:1012680007d5d0e905239a4216d80023c4e90533e7
:10127800a362d4e90f13994204d20122c91a206843
:1012880000f0cefc0023c4e90f33002de4d0206821
:10129800bde8384000f0b7bc0022c36a1146984741
:0c12a8006369002be1d14ff0ff30d6e766
:020000040000fa
:020000040c00ee
:1012b40010b370b506460d4600f020fad5b10024ef
:1012c4000e4a137e13f0040ffbd0538b13f0070f59
:1012d4000bd1536803f00703012b936a14bf3355f2
:1012e40026f814300134a542ebd1a54214bf0020e6
:1012f400012070bd2c46f8e700207047002000460e
:020000040000fa
:020000040c00ee
:1013040013b5836a8df80710044673b16369a26a42
:10131400934212d3e36a01220df107012046984754
:10132400012806d19df8070005e000f0c5fb002860
:10133400ecd04ff0ff3002b010bd9df8070094f9d7
:0e13440034209042e6d05a1c62611870f3e724
:020000040000fa
:020000040c00ee
:02135200fee7b4
:020000040000fa
:020000040c00ee
:10135400022a70b5044616461d461ad043689b06f9
:1013640017d441b9002d08bf4ff4806505f108007a
:10137400fff7b4fe01466368012e43f02003636067
:10138400c4e9021514bfff230a2384f83430024b46
:0c139400e362002070bd00bf2d0f000cb4
:020000040000fa
:020000040c00ee
:1013a00010b50278202a034600f10100f9d0a2f11d
:1013b00009010429f5d92b2a07d02d2a11d10121a1
:1013c0000133013b00200a2403e00021f8e76043d9
:1013d000801a13f8012f303a092af8d901b940428e
:0613e00010bd0021ede745
:020000040000fa
:020000040c00ee
:0213e600fee720
:020000040000fa
:020000040c00ee
:1013e8000e4bd96821f4e0610904090c0c4a0a4340
:1013f800da60bff35f8f62b65a6a42f480225a629b
:101408005a6942f010025a615a6a42f400325a622a
:101418005a6a42f480325a62704700bf00ed00e019
:041428000000fa05c1
:020000040000fa
:020000040c00ee
:10142c00d0b110b40446c9b1084421460c4a6442f8
:10143c00137e13f0010ffbd0536803f00703012b4d
:10144c0014bf0b7834f81130936201318142efd123
:10145c0001205df8044b7047002070470120f8e72d
:04146c000020004616
:020000040000fa
:020000040c00ee
:1014700070b590b10e4d2a68a0f110042e46a2b1ad
:1014800050f8101c43189a42136807d110331269a0
:1014900002600b4440f8103c2c6070bd1033d5182e
:1014a000ac4202d10b441360f7e702603460f4e70a
:0414b0009c04022076
:020000040000fa
:020000040c00ee
:1014b40010b5054c227832b9044b13b10448aff38c
:1014c40000800123237010bd580402200000000096
:1014d4000000000008b5034b1bb103490348aff3f8
:1014e400008008bd000000005c0402200000000031
:020000040000fa
:020000040c00ee
:1014f40008b50d4b1b680021186800f059fb0b4b15
:101504001b680021186800f053fbfff781fdfff70b
:1015140055fb00f0bff8fff744fc00f0b5fa00f00b
:10152400f3f9fff75fff08bdac0402209005022029
:020000040000fa
:020000040c00ee
:1015340070b505462020fff7d1fd04460023438003
:101544001422028003710323437105611020fff705
:10155400c5fd05460146204600f010fbae68204656
:0e156400fff784ff2846fff781ff304670bd79
:020000040000fa
:020000040c00ee
:1015720010b44c68a40602460b4603d45df8044b33
:1015820000f06db891f93410c0b2814203d05969ac
:101592009c6aa14205d3114618465df8044bfff739
:0e15a200b0be4c1c5c610a705df8044b7047d3
:020000040000fa
:020000040c00ee
:1015b00030b50d4a002300bf12f8134024b902ebe6
:1015c00043035b78184630bd01680d78a54209bf1a
:1015d00002eb430301335b78013114bfdbb20160de
:0c15e0000a2be9d9eee700bf1a1b000c33
:020000040000fa
:020000040c00ee
:1015ec0038b5436813f4807f0446154611d003695f
:1015fc009a4228bf1d465db12a46406900f024fa84
:10160c00636922692b44551b0022636125611a70a2
:0c161c0038bddb06fcd400f057faf9e7fb
:020000040000fa
:020000040c00ee
:101628002044495341424c4544200d002053494d24
:10163800554c54414e454f5553200d0020534551ac
:1016480055454e5449414c20536563757265204297
:081658006f6f740d000000bf6c
:020000040000fa
:020000040c00ee
:1016600007b54a68c0b2d2050b468df8070006d50b
:101670004a69511c5961107003b05df804fb0122e6
:101680000df10701184600f025fa10b19df807008a
:08169000f2e74ff0ff30efe735
:020000040000fa
:020000040c00ee
:101698000a4b0b4a1a604ff6da429a814ff44032ed
:1016a8005a601a46d369002bfcd1044a136843f0e8
:1016b80002031360d369002bfcd170470020004659
:0416c80004013040a9
:020000040000fa
:020000040c00ee
:1016cc0070b50a480a4d4ff6ff76016811b94368a8
:1016dc0003b970bd83684268334000f10c0455f8bf
:1016ec0023302046984704eb8000eee72000000ce6
:0416fc00441b000c7f
:020000040000fa
:020000040c00ee
:101700000a4b5b8b13f0070f0ed0084b80221a7622
:1017100007225a831b7e13f0040f05d0034b9a6aed
:101720001a7e12f0040ffad1704700bf0020004665
:020000040000fa
:020000040c00ee
:1017300038b505462020fff7d3fc0446002343803c
:1017400014220280202282700371012343710561fb
:10175000fff794fc2046fff78bfe00f089f938bdb7
:020000040000fa
:020000040c00ee
:10176000064b1a680ab9064a1a60064a116809b98e
:10177000054911601a68054b1a60704788040220f9
:10178000a005022084040220a00702208004022079
:020000040000fa
:020000040c00ee
:1017900070b506462020fff7a3fc044600234380d3
:1017a0001422028020228270037101254571066196
:0e17b000fff764fc2046fff75bfe284670bd85
:020000040000fa
:020000040c00ee
:0217be00fee744
:020000040000fa
:020000040c00ee
:1017c00010b5084c23680bb9fff7caff0649226819
:1017d00009681044814234bf4ff0ff322060104648
:0c17e00010bd00bf800402208404022021
:020000040000fa
:020000040c00ee
:1017ec0070b5002902fb01f614460d4618bf1446cd
:1017fc0001463246184608bf002400f065f98642bf
:0a180c0018bfb0fbf5f4204670bdd4
:020000040000fa
:020000040c00ee
:101816002de9f0410024804617460e462546bd4276
:1018260002db2046bde8f081726856f8081b404688
:0a18360000f0d3f801350444f1e797
:020000040000fa
:020000040c00ee
:10184000802910db812901dd83290cd1136807333e
:1018500023f0070303f108011160d3e90023c0e975
:0a18600000230120704700207047ac
:020000040000fa
:020000040c00ee
:10186a002de9f0410024804617460e462546bd4222
:10187a0002db2046bde8f081726856f8081b404634
:0a188a0000f0c7f801350444f1e74f
:020000040000fa
:020000040c00ee
:1018940008b50020fff72cfe0021054800f0a0f950
:1018a40000f044f9fff712f9024800f063f8fee78c
:0818b400a51b000c5419000ce7
:020000040000fa
:020000040c00ee
:1018bc0010b5084c2368196800f06af8002807db9b
:1018cc0023680a20196800f091f9c00f404210bd3e
:0818dc000120fbe7900502204a
:020000040000fa
:020000040c00ee
:1018e40090f948305a1e1343426880f8483012f089
:1018f40004031bbf42f010024260c0e90f334ff0f3
:08190400ff3008bf18467047d0
:020000040000fa
:020000040c00ee
:10190c00054a00231360936004495160062111605d
:10191c00034a93601360704710e000e0feffff0085
:04192c00740402201d
:020000040000fa
:020000040c00ee
:1019300008b5064b5868064a12689a6801329a60e0
:101940001b6813b1014b1b68984708bd7404022043
:0419500010e000e0c3
:020000040000fa
:020000040c00ee
:101954000d0a4c454430206f6e2074686520626f18
:1019640061726420626c696e6b730d0a2020202002
:04197400000000bfb0
:020000040000fa
:020000040c00ee
:101978000fb407b5064b04aa1b6852f8041b186875
:10198800019200f055f803b05df804eb04b070471d
:041998009005022094
:020000040000fa
:020000040c00ee
:10199c0070b50e46054600f0a3f8334604460246e1
:1019ac0001212846fff71cff001b18bf4ff0ff302a
:0219bc0070bdfc
:020000040000fa
:020000040c00ee
:0219be00fee742
:020000040000fa
:020000040c00ee
:1019c00010b5054c22680ab9fff7cafe034b186828
:1019d0002368c01a10bd00bf8004022084040220c6
:020000040000fa
:020000040c00ee
:1019e00058b952b138b50c46012529462046fff7b3
:0e19f00061fc0028f9d0012038bd00207047ae
:020000040000fa
:020000040c00ee
:1019fe0010b50023934206d113f0030018bf012047
:0e1a0e0000eb930010bdc45ccc540133f2e732
:020000040000fa
:020000040c00ee
:101a1c0038b50d461446012801d0204638bd214664
:0c1a2c002846fff7fdfc0028f9d0f6e783
:020000040000fa
:020000040c00ee
:101a380013b50446019201aafef796fd636813f0f8
:0c1a4800100f18bf4ff0ff3002b010bdaf
:020000040000fa
:020000040c00ee
:101a54005ab110b40a44431e11f8014b03f8014f64
:0c1a64009142f9d15df8044b70477047c7
:020000040000fa
:020000040c00ee
:101a700038b51020fff734fb0446fff791fba5684b
:0a1a80002046fff7f5fc284638bdac
:020000040000fa
:020000040c00ee
:021a8a00fee775
:020000040000fa
:020000040c00ee
:101a8c00044b4ff40012c3f894204ff48002c3f8b7
:081a9c0098207047000084440b
:020000040000fa
:020000040c00ee
:101aa400044a136823b91060036101600120704780
:081ab400002070479c04022091
:020000040000fa
:020000040c00ee
:101abc0010b50446fff710ff28b9a368e268c4e923
:081acc0005331344a36210bdb1
:020000040000fa
:020000040c00ee
:101ad40010b4c46a1cb123465df8044b184700686f
:081ae4005df8044bfff798bf09
:020000040000fa
:020000040c00ee
:101aec0003783bb1034600bf13f8012f002afbd14a
:081afc00181a704718467047e4
:020000040000fa
:020000040c00ee
:101b04000068002808b501da002008bdfff756fe7a
:061b1400431cfad1f8e7c2
:020000040000fa
:020000040c00ee
:101b1a0068076c094c836a9074a07ac00080688850
:061b2a0000846c820081c2
:020000040000fa
:020000040c00ee
:101b3000034b00229a601a6842f001021a60704753
:041b400010e000e0d1
:020000040000fa
:020000040c00ee
:101b4400931b000cff19000c151c000c151c000c39
:041b5400151c000c50
:020000040000fa
:020000040c00ee
:101b580032b1c9b20244034603f8011b9342fbd1d8
:041b6800704700bf03
:020000040000fa
:020000040c00ee
:101b6c0008b500f047f8024b1860586008bd00bf7c
:041b7c008c040220b3
:020000040000fa
:020000040c00ee
:101b800010b50c46fff77afa2046fff709fb012053
:021b900010bd86
:020000040000fa
:020000040c00ee
:101b92000a440023914201d10020704701f8013b21
:021ba200f8e762
:020000040000fa
:020000040c00ee
:101ba400024b4ff40012c3f89c2070470000844499
:020000040000fa
:020000040c00ee
:101bb40000294ff480630cbf02220022fff7c8bb48
:020000040000fa
:020000040c00ee
:101bc40008b5fff7d1ff00f031f800f02ff808bd99
:020000040000fa
:020000040c00ee
:0e1bd400a0f14103192b98bf40f0200070478c
:020000040000fa
:020000040c00ee
:021be200fee71c
:020000040000fa
:020000040c00ee
:0c1be400014b1860596070477404022027
:020000040000fa
:020000040c00ee
:081bf000286e696c2900250034
:020000040000fa
:020000040c00ee
:081bf80008b5fff7bafc08bdb7
:020000040000fa
:020000040c00ee
:081c00000048704714050220a2
:020000040000fa
:020000040c00ee
:061c08000068fff707bfb2
:020000040000fa
:020000040c00ee
:061c0e004ff0ff307047ab
:020000040000fa
:020000040c00ee
:041c140000207047f5
:020000040000fa
:020000040c00ee
:041c180000207047f1
:020000040000fa
:020000040c00ee
:041c1c0000207047ed
:020000040000fa
:020000040c00ee
:041c200000207047e9
:020000040000fa
:020000040c00ee
:041c240000207047e5
:020000040000fa
:020000040c00ee
:041c280000207047e1
:020000040000fa
:020000040c00ee
:021c2c00fee7d1
:020000040000fa
:020000040c00ee
:021c2e007047fd
:020000040000fa
:020000040c00ee
:021c30007047fb
:020000040000fa
:020000040c00ee
:021c32007047f9
:00000001FF
