:020000040000fa
:10000000f0ff0320e14d0000bf7e00002b820000c6
:100010002d8400002f8400003184000000000000c7
:100020000000000000000000000000004f79000008
:100030008b830000000000004f7900004f79000022
:100040004f7900004f7900004f7900004f79000090
:100050004f7900004f7900004f7900004f79000080
:100060004f7900004f7900004f7900004f79000070
:100070004f7900004f7900004f7900004f79000060
:100080004f7900004f7900004f7900004f79000050
:100090004f7900004f7900004f7900004f79000040
:1000a0004f7900004f7900004f7900004f79000030
:1000b0004f7900004f7900004f7900004f79000020
:1000c0004f7900004f7900004f7900004f79000010
:1000d0004f7900004f7900004f7900004f79000000
:1000e0004f7900004f790000000000000000000080
:1000f000000000004f7900004f7900004f790000a8
:100100004f7900004f7900004f7900004f790000cf
:100110004f7900004f790000652700006527000037
:1001200065270000652700004f7900004f79000027
:100130004f7900004f7900004f7900004f7900009f
:100140004f7900004f7900004f7900004f7900008f
:100150004f7900004f7900004f7900004f7900007f
:100160004f7900004f7900004f7900004f7900006f
:100170004f7900004f7900004f7900004f7900005f
:10018000d17e0000e17e0000f17e0000017f0000d2
:100190004f7900004f7900004f7900004f7900003f
:1001a0004f7900004f7900004f7900004f7900002f
:1001b0004f7900004f7900004f7900004f7900001f
:1001c0004f7900004f7900004f7900004f7900000f
:1001d0004f7900004f7900004f7900004f790000ff
:1001e0004f7900004f7900004f790000656f0000e3
:1001f0004f7900004f7900004f7900004f790000df
:100200004f7900004f7900004f7900004f790000ce
:100210004f7900004f7900004f7900004f790000be
:100220004f7900004f7900004f7900004f790000ae
:100230004f7900004f7900004f7900004f7900009e
:100240004f7900004f7900004f7900004f7900008e
:100250004f7900004f7900004f7900004f7900007e
:040260004f790000d2
:020000040000fa
:10026400f8b500bff8bc08bc9e4670478168000022
:10027400f8b500bff8bc08bc9e4670475d68000036
:020000040000fa
:08028400b419000001000000a4
:020000040000fa
:10028c002de9f04391b0002800f03c82044600298f
:10029c0000f03a820d4640220021684607f088fda6
:1002ac002988204607f0ecfa002800f01c823a213d
:1002bc00204607f087fd074638b1021b40f6c313f2
:1002cc009a42a8bf1a46561c07d16b46032210212e
:1002dc00012006f0affe032410e2dff8d482324690
:1002ec002146404607f084ff002308f806304146bb
:1002fc00b0b207f0bbf998f80030613b132b64d80f
:10030c00dfe803f05f0a635f5f63636363636363e8
:10031c006363636363635f5fa44b00221a702821dd
:10032c00a34807f04ffd064688b12921a04807f0e5
:10033c0049fd034600284cd0701c1b1a9bb2082b9d
:10034c00c3d11022002107f029fd04f0adfa0137ca
:10035c003a21384607f036fd804600283cd0a8eb01
:10036c0007035e1cb1d0dff8489232463946484646
:10037c0007f03eff002309f806302821484607f015
:10038c0021fd814688b38a480146a9eb000007f09d
:10039c006df9864b1b78002b40f09880844b1b78b2
:1003ac00613b152b00f28e80dfe803f0888c8c7794
:1003bc008c73808c8c8c8c848c8c8c8c8c8c8c8c9e
:1003cc008c287a4b30221a70a9e7784bff221a70ce
:1003dc007be706f10803afe70a21384607f0f2fc89
:1003ec00804600283ff471afb9e73a21704807f016
:1003fc00e9fc814600283ff468afc4e76b4b01224f
:10040c001a7009f101092921484607f0dbfc064660
:10041c0000283ff45aaf674f40f6c412002138460b
:10042c0007f0c6fca6eb0902634b1a8092b2494650
:10043c00384607f0ddfe5d4b1b78f02b4ad05e4e44
:10044c005c49308806f0c0f93080584b1b78312b52
:10045c0000f0fd8000f2a081042b00f0cb8040f274
:10046c006f81062b00f0dd80c0f0ce80072b00f0f2
:10047c00e280082b40f08e81504b1b68db69002b0f
:10048c0000f06e814b4a1078003018bf012098475d
:10049c0064e1464b02221a70b3e7454b5b78692b3b
:1004ac00424b0cbf052203221a70aae73f4b0422d1
:1004bc001a70a6e73d4b06221a70a2e73b4b0722a7
:1004cc001a709ee7394bff221a70fee6302b2bd0a8
:1004dc00f02b75d108f101080a21404607f072fc97
:1004ec0000283ff4f2aeb0eb08063ff4eeae304f0e
:1004fc0032464146384607f07bfe0023bb55282187
:10050c00384607f05ffc074600283ff4deae284e65
:10051c003146801b07f0aaf83378732b00f0f68075
:10052c00224bff221a708ae7214b1b78693b0e2b5a
:10053c0038d8dfe803f00c37373719373708372f3f
:10054c00103337372b00194bf0221a70c2e7174bb8
:10055c0031221a7055e7164b5b78652b134b0cbf89
:10056c00342232221a704ce7114b5b78722b05d077
:10057c00772b07d10d4b37221a7042e70b4b3822e1
:10058c001a703ee7094bff221a709ee6074b332286
:10059c001a7036e7054b35221a7032e7034b3622b8
:1005ac001a702ee7014bff221a708ee62d290020bf
:1005bc00580200209016002022290020fc28002040
:1005cc00ff2b3ff482ae1ce7864b1b685b68002b4d
:1005dc0000f0c680844985489847bfe0814b1b6872
:1005ec009b68002b00f0bc807f4a804980480068e3
:1005fc009847b3e07b4b1b68db68002b00f0b080a6
:10060c0079497a489847a9e0764b1b681b69002bff
:10061c0000f0a680754a1078003018bf012098476a
:10062c009ce0704b1b685b69002b00f099806e4955
:10063c006e48984792e06b4b1b689b69002b00f04f
:10064c008f80694a69496a480068984786e0654b1b
:10065c001b681b6a002b00f08380654a1068984762
:10066c007ce0604b1b689b6a002b79d05e4a5f492b
:10067c005f480068984771e05a4b1b68db6a002b97
:10068c006ed0594a59495a480068984766e0554b0c
:10069c001b681b6b002b63d0534a544954480068a9
:1006ac0098475be04f4b1b685b6b002b58d04e4a56
:1006bc004e494f480068984750e04a4b1b689b6b6b
:1006cc00002b4dd0484a494949480068984745e0b5
:1006dc00444b1b68db6b002b42d0434a43494448d4
:1006ec00006898473ae02146424806f00bff6b46fb
:1006fc0003221021012006f09dfc0324204611b09a
:10070c00bde8f083e224f9e7e224f7e73a4bf12263
:10071c001a7001372921384607f054fb034600288c
:10072c003ff4d3addb1bdbb2022b7ff4cead10223a
:10073c000021384607f032fbc0b204f0b5f87ee673
:10074c00022b3ff441af3ff649af012b20d1254b93
:10075c001b681b6823b1244924489847042808d1f6
:10076c000021214b198040f6c412204807f020fbd1
:10077c000420214b1b78013b022b1cd82a46214616
:10078c0003f0d2ff0446002cb8d107f087f8b5e788
:10079c000020eee70020ece7352b3ff46daf10d9cd
:1007ac00372b8ad0fff47eaf382b91d0f12b16d19a
:1007bc0000200d4b18802a46214603f0b5ff044655
:1007cc00e1e7332b3ff44daf3ff661af054b1b68b0
:1007dc005b6a002bc4d0064a10689847bee700201d
:1007ec00c7e700bffc28002022290020901600201b
:0c07fc0000290020d04b00002d29002017
:020000040000fa
:100808004378002b00f0b082836b002b00f0ac82a1
:100818002de9f04182b0446aa38b13f4007f06d01f
:10082800238b13f4007f1cbf4ff40073a383a38ba7
:1008380013f4807f06d0238b13f4807f1cbf4ff402
:100848008073a383a38b13f0800f05d0238b13f041
:10085800800f1cbf8023a383a38b13f0400f05d008
:10086800238b13f0400f1cbf4023a383a38b13f0eb
:10087800200f05d0238b13f0200f1cbf2023a38348
:100888000546a38b13f0010f0ed0238b13f0010f35
:100898000ad00123a383a3821023a3832383836b1a
:1008a80000220421406b9847a38b13f0100f0ed041
:1008b800238b13f0100f0ad01023a383a3820123e4
:1008c800a3832383ab6b00220321686b9847a38b18
:1008d80013f0040f0ad0238b13f0040f06d004235f
:1008e800a383ab6b00220721686b9847a38b13f097
:1008f800080f03d0238b13f0080f31d194f8073178
:1009080013f0100f55d094f8093113f0100f50d090
:100918006b6cda7922f00202da71da7b22f00202d9
:10092800da73186800283ed0e96c02680e684968d6
:1009380016605160102284f80721402284f80421af
:100948000268d18831bb072285f821200222027271
:100958000822426082691a60c36853b3984728e046
:10096800002185f82110237bc3f38103af4ad35cb0
:1009780085f83030402205f14c0007f01bfaab6bcc
:100988001bb100220221686b98478023a3720823b9
:10099800a383b3e792f90020002ab4bf06220222fb
:1009a80085f82120d2e7012385f82130102384f827
:1009b800083194f8073113f0020f32d094f8093156
:1009c80013f0020f2dd06b6c9e6856b395f821205a
:1009d800082a18d0316a00296ad1327c12f0800fb7
:1009e80056d1052285f8212000223272b2699a6018
:1009f800f3680bb130469847022384f80731402347
:100a080084f804310de0002285f821203272b169a2
:100a180099607260f3680bb130469847022384f8f6
:100a2800073194f8073113f0010f00f09c8094f817
:100a3800093113f0010f00f09680d5f8448095f83d
:100a48002130052b55d0d8f80060002e6dd02f6dc1
:100a5800c7f30d07336a7268f918914284bfd71a31
:100a6800bfb2e96c30683a46184406f027ff336a8b
:100a78003b443362726893425ed2b8f80410b942bc
:100a88005ad8402384f80431012384f807316ae0f6
:100a980002f07f0232742b6e23f47f5323f03f035e
:100aa8002b66022384f80731802384f80531b8e7e0
:100ab8009f89b94298bf8fb2e86d7368591a336835
:100ac8003a46194406f0fafe336adb1b33622b6e92
:100ad80023f47f5323f03f032b662b6ec7f30d07d8
:100ae8001f432f66022384f80731802384f80531d9
:100af80097e7d8f8000088b10023037285f8213001
:100b0800012284f80721402284f804218269c8f868
:100b180000204360c36833b3984724e0042385f872
:100b28002130012384f808311de0032385f82130a2
:100b3800012384f8083116e093422cbf00230123d7
:100b48003372072385f82130012384f807314023c5
:100b580084f80431b369c8f80030336a7360f36805
:100b68000bb130469847238c13f0020f00f09c809d
:100b780094f82931dbb2019394f82731dbb2009362
:100b8800009b13f0080f11d0019b13f0080f0dd034
:100b980095f8863013f0020f08d095f8863003f0e8
:100ba800fd0385f88630082384f82731009b13f06d
:100bb800020f79d0019b13f0020f75d0ae6cb068ac
:100bc800002871d0026a002a4ad1037c13f0800ff2
:100bd8002ed1002303728369b360c36803b19847b9
:100be800b268002a36d0106ab389984298bf83b297
:100bf8005168081a11680144e967116ac91a116233
:100c0800d5f8802022f47f5222f03f02c5f88020d8
:100c1800d5f88020c3f30d031343c5f880300a23a9
:100c280084f82731802384f825313de08c83000047
:100c380003f07f030374d5f8803023f47f5323f047
:100c48003f03c5f880300a2384f82731802384f8cd
:100c5800253129e00a2384f8283184f8273123e054
:100c6800b3899a4298bf93b241688a1a01681144bd
:100c7800e967026ad21a0262d5f8802022f47f520c
:100c880022f03f02c5f88020d5f88020c3f30d0379
:100c98001343c5f880300a2384f82731022384f8e7
:100ca8002931802384f82531238c13f0020f4fd08b
:100cb80094f82931dbb2019394f82731dbb2009321
:100cc800009b13f0040f0dd095f8763013f0020f47
:100cd80005d095f8763003f0fd0385f876300423c7
:100ce80084f82731009b13f0010f31d0019b13f0da
:100cf800010f2dd0ae6c306850b32a6fc2f30d02cd
:100d0800036a1344036241688b420cd2b188914252
:100d180021d802681344eb66052384f82731402361
:100d280084f8243114e00023037283693360036a72
:100d38004360c36803b1984733687bb11b68eb66af
:100d4800052384f8273184f82931402384f8243195
:100d580002b0bde8f08101230372e6e7052384f8b9
:0c0d6800283184f82731f3e7704700bf02
:020000040000fa
:100d74002de9f04f242985b006460f46144601d8c4
:100d8400012903d1b64b16221a6050e0f36bf26cc2
:100d9400934220d25a1cf26318782028f6d0a0f18e
:100da4000903042bf2d92b2801d02d281bd1f36b76
:100db400f26c2d284ff0ff3a18bf4ff0000a93420f
:100dc4000dd25a1cf2631878f26c7fb1102f4ed1f9
:100dd40030280dd04be0304605f054f8dde73046be
:100de40005f050f8f0e74ff0000aede730283dd168
:100df400f36b934222d25a1cf263187840f020031a
:100e0400782b2ad1f36bf26c93421bd25a1cf263f7
:100e14001878944b03445b780f2b40f2c180f36c39
:100e2400002b00f09581f36b84b1023bf363002443
:100e340000252046294605b0bde8f08f304605f070
:100e440021f8dbe7304605f01df8e2e7013bf363e8
:100e54000021304606f046fee9e7002f00f0eb8063
:100e64000a2f40f09e8000247f4d1ae00a277d4b14
:100e740003445b78bb42f3d312b1f36b013bf363de
:100e84000021304606f02efe7ce70a2303fb04040f
:100e9400f26bf36c9a42a4f130046bd2531cf363eb
:100ea4001078a0f13003092b01d8ac42edd900250c
:100eb400a0f1300109293dd86c4b4ff09932ab4277
:100ec40008bfa24217d34fea850ca3001b194ceab2
:100ed400947245eb020213eb03086fea01030093db
:100ee4004ff0ff33019342eb0209dde900234b4548
:100ef40008bf424542d25b4b184498464278ba42f6
:100f040018d2f36bf26c934280f00a815a1cf2639c
:100f1400187840444378bb42f3d3514b0e992222b4
:100f24001a60dde90e45002301f00102134318bfe6
:100f34004ff0000af36c13b1f36b013bf363dde98b
:100f44000e239d4208bf9442c0f0fa800e990023fc
:100f540001f00102134340f0e780baf1000f40f0c2
:100f6400e3803f4b22221a600f9b11f1ff3443f1bf
:100f7400ff355ee7304604f085ff92e718eb010485
:100f84004ff0000349eb0305f26bf36c9a4203d272
:100f9400531cf36310788be7304604f073ff87e744
:100fa40010277c1e3c402f4d40f0b48017237b4318
:100fb400c3f342132b4493f801b12b185b789f427f
:100fc40002d9b4f1006f38d34ff0ff33cbf12001d5
:100fd400abf1200223fa0bf803fa01f148ea010805
:100fe40023fa02f2002548ea020823fa0bf91d4b02
:100ff400034459788f427ff67eafa94508bfa045c8
:10100400fff479afabf1200004fa00f005fa0bf21b
:10101400cbf12003024324fa03f342ea0305f26b03
:10102400f36c04fa0bf09a4241ea000414d2531c04
:10103400f3631078dbe70827b3e704fa0bf41c43e7
:10104400f26bf36c9a4203d2531cf3631078b4e747
:10105400304604f017ffb0e7304604f013ffc6e74c
:1010640014290020c437000098999919999999195d
:1010740004fb0734f26bf36c9a4247d2531cf363bc
:1010840010782b185b789f4202d9334a9442efd9e7
:101094000025324b034459788f427ff62caf4ff032
:1010a40000084ff0000965b1a4fb07234ff0000cc2
:1010b4001a466346e5fb07231bb14ff001084ff0c6
:1010c400000958ea09037ff416af5ffa81f86fea62
:1010d400080102914ff0ff310391dde902bca7fb47
:1010e400042307fb05339c4508bf93454ff00009d3
:1010f400fff401af12eb080443eb0905f26bf36c48
:101104009a4209d2531cf3631078c2e7304604f0c4
:10111400b9feb6e70024b4e7304604f0b3feb8e7fe
:10112400304604f0affef4e6dde90e23ab4208bf1f
:10113400a24205d20a4b22221a60dde90e4578e666
:10114400baf1ff3f7ff475ae644265eb450570e686
:10115400002c7ff46cae7be6c6711c07c43700001c
:04116400142900202a
:020000040000fa
:10116800431e13f1030f00f294812de9f04f85b06f
:1011780001f00f0a4fb292f90830022b00f38c816c
:1011880011f00e0f40f08b81d0f824b000eb8a03e9
:10119800d3f844903e1106f0080676b209eb06082b
:1011a80098f8073013f0010f00f07c8115460446cb
:1011b8005268b8f80410b2fbf1f301fb132373b1c2
:1011c800002f80f27281e378002b40f07381a37bbb
:1011d800012b1cd06ff07e0005b0bde8f08f002f0a
:1011e8000bdbc278002af2d00022aa6103212972ff
:1011f800039202920192009265e12b7c13f0010f99
:10120800e1d0002adfd063f07f032b74dbe74ff0d7
:101218000003a373a07a05f051fa0090e07a05f074
:101228004dfa0190207b05f049fa0290607b05f0a9
:1012380045fa03900023ab6103232b72002fa8bf4c
:10124800002380f240813de193f90030002bb4bfc8
:101258000623022384f8213067e1276dc7f30d07c1
:101268002b6a6a68f918914284bfd21a97b2e16c66
:1012780028683a46184406f021fb2b6a3b442b6247
:101288006a68934218d300232b72082384f821300c
:1012980001238bf807318bf8093140238bf804318f
:1012a8002b6a6b60ab6949f80630eb68002b00f0dd
:1012b800b98028469847b5e0b8f80430bb4217d93a
:1012c80001232b72082284f821208bf807318bf830
:1012d800093140238bf804312b6a6b60ab6949f8fc
:1012e8000630eb68002b00f09d802846984799e06f
:1012f80001238bf807318bf8093140238bf804312f
:1013080090e0002384f821302b7201238bf80731f9
:101318008bf8093140238bf80431ab6949f8063062
:10132800eb68002b7ed0284698477be094f8213064
:10133800062b13d0072b75d1082384f82130236e90
:1013480023f47f5323f03f03236602238bf80731ee
:101358008bf8093180238bf8053163e02b6ab8f8e4
:101368000460b34238bf9eb2e06d3246296806f089
:10137800a5fa2b6a9b1b2b62092384f82130236e64
:1013880023f47f5323f03f032366226ec6f30d0335
:101398001343236602238bf807318bf80931802326
:1013a8008bf805313ee0002f0fdb29684fea4a131e
:1013b800e218d1640beb4a1a05228af807218af849
:1013c800092140238af804312ce0296ab8f804304e
:1013d800994298bf8bb26a68511a2a6811444fea39
:1013e8004a102218d165296ac91a2962116e21f496
:1013f8007f5121f03f011166116ec3f30d030b43ba
:1014080013660beb4a1a0a238af807318af809315e
:1014180080238af8053105e01a469369002bfbd131
:101428009561ea61e378002b42d1009b4bb1a37a26
:10143800590903f01f03012202fa03f3414a42f853
:101448002130019b4bb1e37a590903f01f030122b4
:1014580002fa03f33b4a42f82130029b4bb1237b4b
:10146800590903f01f03012202fa03f3354a42f82f
:101478002130039b4bb1637b590903f01f03012201
:1014880002fa03f32f4a42f821300123a373002004
:10149800a2e66ff07c0070476ff07a009ce66ff070
:1014a8007b0099e66ff0750096e66ff07c0093e696
:1014b800002091e60023ab6103222a720393029372
:1014c800019300936b682b6259f80620002aa4d177
:1014d80004232b720023eb6149f80650baf1000f80
:1014e8007ff461af9f42fff621af94f82130032bc0
:1014f8003ff4b3ae042b3ff404af012b92d1e26c5e
:101508002b681168526819605a6040238bf80431bf
:1015180010238bf807318bf809312b689a79002a48
:101528007ff492ae072384f82130ab6949f806307e
:1015380002232b72eb68002b3ff474af28469847c0
:0815480070e700bf00e100e0c4
:020000040000fa
:10155000cc2a002004000000010000000000000070
:10156000d02800201c000000000000000000002027
:1015700010010000000000005c2a00205000000064
:10158000010000005d740000f97d0000117f000083
:10159000217f0000518000001d7e0000817400004a
:1015a000c93d0000f125000019210000d5280000e8
:1015b0006d2400008f6d0000797300006911000038
:1015c000d1380000b93600000b7e00004f42000009
:1015d0000000000010010020a0000000000000003a
:1015e0002029002002000000000000002629002021
:1015f0000100000000000000a42800202c000000d2
:1016000000000000ec28002008000000000000009e
:10161000272900200100000000000000b001002088
:1016200072000000000000006c260020ec000000aa
:10163000000000002402002008000000000000005c
:101640005c24002004000000000000002c020020a8
:1016500024000000000000002829002002000000f3
:10166000000000006428002040000000000000008e
:10167000500200200800000000000000fc280020ac
:10168000040000000000000090160020c4090000c3
:1016900000000000222900200200000000000000dd
:1016a0000029002004000000000000002a2900207a
:1016b00001000000000000002d29002001000000b2
:1016c00001000000ff00000058020020c4090000d3
:1016d00000000000182800204c000000000000005e
:1016e0002b29002002000000000000002429002017
:1016f00002000000000000001c0c0020c8090000cf
:1017000000000000582700207000000000000000ca
:10171000e41500200c000000000000000429002057
:101720000800000000000000f0150020a0000000ec
:10173000000000000c290020040000000000000050
:10174000c827002050000000000000006024002096
:101750000c02000000000000302900206c00000096
:10176000010000003c290020382900203c290020ed
:1017700000000000250000005c20002000040000a4
:101780000000000000000000000000000000000059
:101790000000000000000000000000000000000049
:1017a00005840000000000000000000000000000b0
:1017b00000000000515b000000000000000000007d
:1017c0000000000000000000000000000000000019
:1017d000542000200804000000000000ac2a002073
:1017e00020000000010000000100000003000000d4
:1017f00000000000000000000000000000000000e9
:1018000000000000f4280020f42800200800000058
:101810000000000010290020080000000000000067
:101820009c29002060000000010000000100000071
:1018300003000000000000000000000000000000a5
:101840000000000000000000215d0000000000001a
:1018500000000000000000007f83000041840000c1
:101860000000000000000000000000000000000078
:101870000000000000000000000000000000000068
:1018800000000000000000000000000018290020f7
:101890000400000000000000fc290020600000009f
:1018a0000100000001000000030000000000000033
:1018b0000000000000000000000000000000000028
:1018c000215d00000000000000000000000000009a
:1018d0007f83000041840000000000000000000041
:1018e00000000000000000000000000000000000f8
:1018f00000000000000000000000000000000000e8
:10190000000000001c29002004000000000000006e
:10191000d02a0020040000000100000000000000a8
:101920000000000000000000666666666666666687
:020000040000fa
:101930002de9f041aeb00646154605910027059900
:101940000b78002b00f0fa8000244ff0ff33cde934
:1019500009430eab0c9380230b940d930b5d0bb1dd
:10196000252b26d134b12246304605f0b1f8059b2f
:1019700023440593059b1a78252a40f0d78003f16c
:101980000108cdf81480059803782b2b1ad025d8a0
:10199000202b1bd0232b1dd02a2b27d004f06efe2a
:1019a0000b90059b1a78303a092a2ed801330593fb
:1019b000f7e70134d2e7099b43f0010301300993b3
:1019c0000590e0e7099b43f00403f7e7099b43f028
:1019d0000803f3e7099b43f01003efe72d2bead050
:1019e000302bd9d1099b43f00203e7e72b681a1d7e
:1019f0001b682a600130002b05900b9305da099ac9
:101a00005b4282f0010209920b93099bda0744bf03
:101a100023f002030993059b1a782e2a0dd1002288
:101a2000581c0a9205905a782a2a25d10233059328
:101a30002b681a1d1b682a600a9305a805f0baf8de
:101a4000059b0390187806f011fb6928039979d05b
:101a500032dc632800f0cb8019dc252800f0d98027
:101a6000612853d000234ff0ff32cdf81480099342
:101a70000b930a920093d4e004f000fe0a90059bb9
:101a80001a78303a092ad8d801330593f7e7642841
:101a900058d06728e6dc2a4606a805f029fb00286e
:101aa00000f0a180059b5a1c05921b7806aa09a983
:101ab000304606f0a3fc38e0702873d015dc6e28a1
:101ac00000f08c806f28cdd12b46002206a802f0b2
:101ad000a1ff002800f08780059b06aa013309a911
:101ae0003046059306f088fc1fe075283ad0782828
:101af00048d07328b6d1802975d1059b2a68013357
:101b00000593131d2b60126800237de02a4606a86a
:101b100005f0eefa002866d0059b5a1c05921b784a
:101b200006aa09a9304606f069fc04443c44a742d1
:101b30007add3e4b4f221a604ff0ff3738462eb009
:101b4000bde8f0812b46012206a802f063ff0028c1
:101b500049d0059b06aa013309a93046059306f032
:101b60004bfce2e72b46002206a802f053ff0028b8
:101b700039d0059b06aa013309a93046059306f022
:101b80003bfcd2e72b46002206a802f043ff50b3ed
:101b9000059b5a1c05921b7806aa09a9304601f03c
:101ba0003bfac2e72b460022f02106a802f032ffe2
:101bb000c8b1059b01330593dde9062313430bd11f
:101bc0001b4805f079ff099b009319490b9b0246be
:101bd000304603f02bfba8e77823dde72b463a19c4
:101be00006a803f0a1fb059b013305939ee780291e
:101bf000f9d1059b013305932b681a1d1b682a60d8
:101c00008df8183006aa012309a9304604f010f90e
:101c10008be78029e7d1059b01330593099b00934e
:101c20000b9b04490122d3e7274688e614290020ac
:081c3000687700006e770000e8
:020000040000fa
:101c38002de9f04f099f154604468e461e46002b97
:101c480040f0cc808a42b2fa82fc4cd9bcf1000f39
:101c58000bd0ccf1200801fa0cfe20fa08f802faa1
:101c68000cf548ea0e0e00fa0cf44fea15491ffa73
:101c780085f8befbf9fa210c09fb1ae30afb08fbfd
:101c880041ea03439b452ad9eb180af1ff3004d2f5
:101c98009b4502d9aaf102002b44a3eb0b03a4b283
:101ca800b3fbf9f209fb123302fb08f844ea0344d8
:101cb800a04516d92c1902f1ff3303d2a04501d94a
:101cc800931e2c44a4eb080443ea004027b124faed
:101cd8000cf400233c607b603146bde8f08f504631
:101ce800dbe71346eee702b9ffdebcf1000f2ed1a9
:101cf8008b1a01264fea154eaab2b3fbfef8210c47
:101d08000efb183308fb02f941ea0343994561d9f0
:101d1800eb1808f1ff3004d2994502d9a8f1020066
:101d28002b44a3eb0903a4b2b3fbfef10efb113362
:101d38004a4344ea0344a2424ed92c1901f1ff3325
:101d480003d2a24201d98b1e2c44a41abce7ccf1c1
:101d5800200e02fa0cf521fa0ef901fa0cf320fa1a
:101d68000efe4eea03034fea154800fa0cf4b9fbdd
:101d7800f8f11ffa85fe08fb1192180c01fb0ef60c
:101d880040ea0242964221d9aa1801f1ff3003d253
:101d9800964201d9881e2a44921b9bb2b2fbf8f9dd
:101da80008fb192209fb0efe43ea02439e450fd9a0
:101db800eb1809f1ff3604d29e4502d9a9f10206b3
:101dc8002b44a3eb0e0346ea004693e70846e3e7f5
:101dd8004e46f6e74046a4e70b46b6e78b4206d9df
:101de800002f7ed00026c7e90001304674e7b3fa19
:101df80083fcbcf1000f0fd18b4201d3824209d87a
:101e0800841a61eb030e0120002f6dd0c7e9004e44
:101e1800002661e76046f7e7ccf1200e03fa0cf3e1
:101e280022fa0ef521fa0ef41d4301fa0cf320fafa
:101e38000ef10b434fea154a00fa0cf6b4fbfaf917
:101e48001ffa85f80afb19401c0c09fb08f144ea43
:101e58000044a14202fa0cf23fd92c1909f1ff30d3
:101e680004d2a14202d9a9f102002c44641a9bb2ff
:101e7800b4fbfaf90afb194409fb08f843ea0441e0
:101e880088452cd9691809f1ff3304d2884502d94d
:101e9800a9f10203294443ea0040a1eb0801a0fb91
:101ea80002894945c2464c4602d306d1464504d26a
:101eb800b8eb020a69eb05040138afb1b6eb0a03c7
:101ec80061eb040606fa0efe23fa0cf34eea03034e
:101ed80026fa0cf6c7e900369ae74846c6e74b46a5
:0c1ee800d9e73e463846f7e63e46f5e6f0
:020000040000fa
:101ef40030b585b00e2916d000eb8003834a02eb7f
:101f0400c3031b7d6bb900eb800302ebc303dd68e5
:101f14003db100eb80027d4b03ebc2031b69002241
:101f2400a84705b030bd044600eb8003774901ebb8
:101f3400c30300211975137803f07f03012b18d014
:101f4400212b40f0d88000eb8003704901ebc303e0
:101f5400dd68002d00f0cf805378013b0a2b00f29e
:101f6400c080dfe803f05c7280bebebebebe8aae37
:101f7400a00053780a2b47d00b2b38d0062b09d05e
:101f840000eb8004614b03ebc4040121606804f09e
:101f9400b9fbc6e7d378212b09d0222b17d004eb49
:101fa40084045a4b03ebc40401232375b9e700eb03
:101fb4008003564901ebc3039868d18802688a42ba
:101fc40028bf0a46596a586804f033fbe7e700eb78
:101fd40080034e4901ebc3039968d0880a688242a2
:101fe40028bf02464968586804f023fbd7e7927873
:101ff400474b1a7000eb8004444b03ebc4040021ec
:10200400606804f07ffb8ce700eb80043f4b03eb3c
:10201400c40401223e49606804f00bfb81e7d378d5
:102024008df8083093788df809309379d27943eaa2
:102034000223adf80a3000eb8002344b03ebc203f9
:102044001b6902aa0021a8476be793788df80f302b
:1020540000eb80022d4b03ebc2031b690df10f0251
:102064000121a8475de700eb8002284b03ebc20384
:102074001b6900220221a84753e7d3788df8043066
:1020840093788df805309379d27943ea0223adf839
:10209400063000eb80021d4b03ebc2031b6901aa4f
:1020a4000321a8473de753888df80e3000eb8002ea
:1020b400164b03ebc2031b690df10e020521a84761
:1020c4002fe7d3788df80c3093788df80d3000eb32
:1020d40080020e4b03ebc2031b6903aa0421a84729
:1020e4001fe700eb8004094b03ebc403012158688c
:1020f40004f008fb15e704eb8404044b03ebc4046d
:102104000121606804f0fefa0be700bfb001002073
:042114002729002057
:020000040000fa
:1021180011f00e0f02d0102940f0ac80b0f1ff3f53
:1021280000f0ab802de9f8430d460446466ac378b3
:10213800002b40f0a780837b012b03d06ff07e003b
:10214800bde8f88300238373807a04f0b7fa074662
:10215800e07a04f0b3fa8046207b04f0affa8146b7
:10216800607b04f0abfa91e0102386f8083186f81a
:102178000731002586f800517f2386f8083186f854
:102188000731626cd17921f00101d171d17b21f045
:102198000101d17386f8205186f8283186f8273155
:1021a800a36cda7922f00102da71da7b22f00102fb
:1021b800da73e378002b63d14fb1a37a590903f09e
:1021c8001f03012202fa03f33c4a42f82130b8f116
:1021d800000f09d0e37a590903f01f03012202fa1c
:1021e80003f3364a42f82130b9f1000f09d0237bb6
:1021f800590903f01f03012202fa03f32f4a42f898
:10220800213048b1637b590903f01f03012202fa08
:1022180003f32a4a42f821300123a37300208fe7f1
:1022280069b2002918db06eb431696f8002102f084
:10223800f80286f80021052286f8072186f8082189
:1022480004eb83035b6c091101f008011944cb7995
:1022580023f00103cb71ace706eb431696f8002197
:1022680002f08f0286f800210a2286f8072186f8f4
:102278000821e5e76ff07b0070476ff07c0070473e
:1022880000205de70020814680460746102d3ff478
:102298006baf15f00f03c3d17f2386f8083186f89a
:1022a8000731002386f80031636cda7922f00102e5
:1022b800da71da7b22f00102da737ae700e100e0f2
:020000040000fa
:1022c8002de9f04f85b0019001a804f043fb0028e8
:1022d80003da002005b0bde8f08f019b1b095d1ee5
:1022e800202d0fd9023b5b4ab3f5007f35bf02ebc7
:1022f800d30302ebd31313f8045c13f8045c34bf64
:10230800013511350123a5f12001c5f1200203fa99
:1023180001f923fa02f203fa05f849ea0209d8f1a9
:1023280000084d4f69eb4909d7e9002302ea080a7a
:1023380003ea090b5aea0b0342d1019b03a81033a5
:10234800039305f0fcfb18b9444b0c221a60c1e753
:10235800d7f80852a84206d0039b103b03930123e9
:1023680000f110058360039bea18012143f0010383
:10237800b5f1080442f8083c42f8041cc7f80822e2
:1023880045f8043ca5d0204604f046fd88b155f830
:10239800083c55f8041c23f00103e31a5a6822f09c
:1023a80001020a445a6055f8041c21f001016250e8
:1023b8001c462046019904f0cdfc04f1080089e789
:1023c8005046244a264bbaf1000f34d1cbf1000114
:1023d80001ea0b014b4302ebd36393f83c602036d0
:1023e800304605f075f9731c57f8334007ebc30303
:1023f800083b9c4298d0272e26dd0235ae4201dcf0
:102408003f2e21d16168019a21f001018d1a2846d9
:1024180004f0b0fb864217d1a318e068a668d8601c
:102428009e608360986842f00102c360c3e900259a
:1024380065506260bde7caf1000101404b4302eb01
:10244800d36393f83c60cbe73146204603f008fca1
:10245800afe700bfc45c00006024002014290020fe
:0424680029e66b07ef
:020000040000fa
:10246c0011f00e0f40f08d802de9f04f83b001f08c
:10247c000f05b0f1ff3f00f087808b460446466a9b
:10248c0000eb85035f6cc378002b40f08280837b6c
:10249c00012b04d06ff07e0003b0bde8f08f002359
:1024ac008373807a04f008f90190e07a04f004f95f
:1024bc008146207b04f000f98246607b04f0fcf836
:1024cc0080466ce0f72386f804317f2386f80731c9
:1024dc00fb7923f00203fb716ff00301384604f023
:1024ec0055fefb7b23f00203fb736ff0030107f136
:1024fc00080004f04bfee378002b48d1019b4bb154
:10250c00a37a590903f01f03012202fa03f3344a98
:10251c0042f82130b9f1000f09d0e37a590903f0e0
:10252c001f03012202fa03f32d4a42f82130baf1bb
:10253c00000f09d0237b590903f01f03012202fa73
:10254c0003f3274a42f82130b8f1000f09d0637b1e
:10255c00590903f01f03012202fa03f3204a42f83f
:10256c0021300123a373002096e706eb45152023a9
:10257c0085f80431402385f80731022385f80431ae
:10258c00b9e76ff07b0070476ff07c0084e70020a8
:10259c0082e74ff00008c246c146cdf80480002dfa
:1025ac0090d04ffa8bfb4fea2b1000f00800384408
:1025bc00c37923f00203c3716ff0030104f0e6fd4d
:1025cc00bbf1000fd1db06eb4515102385f8043168
:1025dc00202385f80731012385f804318be700bff0
:0425ec0000e100e02a
:020000040000fa
:1025f0002de9f04111f00e0440f0a88001f00f0722
:10260000a3f10805adb2b5f57e7f00f2a280b0f16e
:10261000ff3f00f0a180466a082b06d90825013447
:10262000e4b26d00adb2ab42f9d800eb87056d6c3a
:10263000002a35d12a60ab80aa71e97941f0010105
:10264000e971aa60ab81aa73eb7b43f00103eb73e2
:1026500086f80021112386f80031036d23f0e04352
:102660000365036e23f0e0430366036d240704f063
:10267000e04423430365036e1c4304660369c3649b
:102680004369c365036d23f000430365036e23f0c4
:1026900000430366132386f809311046bde8f08134
:1026a00049b24fea211c0cf0080c4ffa8cfc05ebe8
:1026b0000c0e4ff0000845f80c80aef804308ef890
:1026c00006209ef8073043f001038ef8073041459d
:1026d00027db06eb471696f8003103f0f80386f87f
:1026e000003196f800311e4d15f81220134386f87c
:1026f0000031402386f805317b0003ebd17100ebfc
:102700000110036d23f0e0430365036d240704f01b
:10271000e0441c430465036d23f00043036500207f
:10272000bce706eb471696f8003103f08f0386f8f6
:10273000003196f800310a4d05eb420252781343fe
:1027400086f80031802386f80431d5e76ff07b00ee
:10275000a4e76ff07b00a1e76ff07c009ee700bf6d
:042760002c820000c7
:020000040000fa
:10276400584b9b7d002b00f0ab8010b5554a536845
:1027740003f00703127e12f0040f5bd0514a906af3
:10278400514a5169d268914254d2002b43d14e4be5
:102794005a684c1c5c6150544a4b1b7e13f0010f69
:1027a40018d0484b01221a75474b9a699b689a4284
:1027b40058d2454b1968501c98618a5c414b9a6207
:1027c400414b9a699b689a4261d03f4b5a69db68d6
:1027d4009a4269d03b4b1b7e13f0020f14d03b4b43
:1027e4001b78bbb1384b5a69db689a420fd1364b20
:1027f40000221a7733490720087534490a701b6a86
:1028040043b1314a506a9847304b1b7813b12d4b72
:1028140002229a7510bd2c4b5a684c1c5c6122f83c
:102824001100284b1b7e13f0010fd3d0254b01223e
:102834001a7509e0234a127e12f0010fcad0214a08
:1028440001211175002bafd01f4b9a699b689a42e6
:1028540012d21d4b1968501c986131f81220194b83
:102864009a62ade7184b1b6923b3164aff219162a4
:10287400013b154a1361a3e7134b1b69d3b1114afa
:102884004ff6ff719162013b0f4a136198e70e4bbb
:102894001b69002b99d10d4b01221a70094b1b7e29
:1028a40013f0020f9ed1b2e7064b01229a7504225f
:1028b4001a758fe7044b9a699b689a4285d1eae7b7
:1028c400704700bf00200141a428002026290020d1
:020000040000fa
:1028d40011f00e0f46d12de9f04f83b001f00f0532
:1028e400b0f1ff3f41d001910446d0f8248000ebc1
:1028f40085035f6cc378002b3cd1837b012b04d010
:102904006ff07e0003b0bde8f08f00238373807afc
:1029140003f0d6fe8146e07a03f0d2fe8246207ba5
:1029240003f0cefe8346607b03f0cafe064625e034
:10293400202388f80531102388f805316ff002014f
:10294400384604f027fcfb7943f00203fb716ff077
:10295400020107f1080004f01dfcfb7b43f00203b5
:10296400fb7326e06ff07b0070476ff07c00c9e7d3
:102974000020c7e70026b346b246b146002dd7d0a3
:102984009df90410002905f1080508eb4518b4bfaa
:102994002023102388f80530091101f008010f44a1
:1029a4006ff00201384604f0f5fbfb7943f00203b3
:1029b400fb71e378002bdbd1b9f1000f09d0a37ac6
:1029c400590903f01f03012202fa03f3154a42f8de
:1029d4002130baf1000f09d0e37a590903f01f033b
:1029e400012202fa03f30f4a42f82130bbf1000f2f
:1029f40009d0237b590903f01f03012202fa03f3d0
:102a0400084a42f821304eb1637b590903f01f0391
:102a1400012202fa03f3034a42f821300123a3738b
:082a240000206fe700e100e073
:020000040000fa
:102a2c0070b582b00c461646087805f0ebfa002813
:102a3c0000f086800546407804f056f9014640b314
:102a4c00204605f0cffb2b78022b48d0032b57d018
:102a5c00012b66d1204605f029f802462118394b86
:102a6c00d3f8ac00a05093f8b0300b71204605f0b1
:102a7c001df880b2ab780a22009200223249204421
:102a8c0004f052ff204605f011f83080002002b00f
:102a9c0070bd6b784bb12d4b07cb20606160a26091
:102aac001a889b78a281a373cde7264d05f17c0390
:102abc0003cb206061601a889b782281a372204628
:102acc0004f0f4ff0a2205f1880114fa80f004f0f6
:102adc002bff204604f0eaff3080c520d7e72046c4
:102aec0004f0e4ff02462118164bd3f89c00a050ca
:102afc0093f8a0300b71204604f0d8ff80b2b9e7f0
:102b0c00204604f0d3ff024621180e4bd3f8a40044
:102b1c00a05093f8a8300b71204604f0c7ff80b288
:102b2c00a8e7204604f0c2ff05462218084b03cb49
:102b3c006051516019889b7811819372c520a6e76a
:102b4c00c520a4e7d83900008c3a0000643a000094
:042b5c00543a0000e7
:020000040000fa
:102b600030b40c4600294dd000284bd04649097f8f
:102b7000002940f08680454d6d6805f00705012d60
:102b800046d0414908604a6000254d618d610d6164
:102b9000a84208bf2c468c60aa4218bf1d460a46b0
:102ba000cd6001211177394a127e12f0040f05d051
:102bb000364a916a117e11f0040ffad1334a518bd3
:102bc00041f004015183117e41f080011176a5424c
:102bd00002d92a1b2c490a612c4a526812f0070fad
:102be0002bd1294a9269a2421cd2007827498862d7
:102bf000013225498a61002b3bd0244b04229a756f
:102c000001213be0002b38d0002aafd1002135e074
:102c100014b114f0010f31d1002bb2d013f0010f19
:102c2000afd02be0184a1269002ae4d01749ff20e0
:102c30008862013a14490a61dde76408124a946027
:102c40001169490811616d08d5609269944206d9ed
:102c500000880e49886201320b498a61cbe700295e
:102c6000c9d00a4a4ff6ff7090620139064a1161d5
:102c7000c1e70121054b997500e00021084630bcf1
:102c800070470021fae700bfa4280020002001417e
:020000040000fa
:102c9000002800f08b8070b505460468002c00f019
:102ca0008780464b002908bf1946b1eb041f43d368
:102cb00000260a4633462005210b04f0e1f8c0f552
:102cc0008030002878d04ff08643196821f0020147
:102cd00019601946ca69002afcd180b24ff08643b8
:102ce00098816b68022b4ed04ff08640026822f02c
:102cf000706222f4604242ea463242f08072026020
:102d00004268ab68e9680b4322f4015222f00702e3
:102d100013436a68134343604ff08642d369002b24
:102d2000fcd14ff08642136843f002031360d3696d
:102d3000002bfcd101203ce0b1ebc40f09d30a46c3
:102d40000023e004610b04f09bf8c0f580300226fc
:102d5000b7e704eb44038b422cd80022201942eb46
:102d60000203001943eb0204230443ea1043020464
:102d700010461c460a460023214604f081f8c0f59f
:102d8000803004269de74ff08642136823f070637d
:102d900023f4604343ea463616605168ab68e8683e
:102da000034321f047010b435360b5e70020704710
:102db000002070bd0020fce70020fae7006cdc0278
:020000040000fa
:102dc000f8b5434b1b78012b15d05ab212b1022b28
:102dd00022d0f8bd0321002003f098fe3c4b586040
:102de000b0f1ff3ff5d000223a4904f061fa384bc8
:102df00001221a70ede7364b1b7c002be9d03449d9
:102e00000020487701238b7702230b7040238a68c8
:102e1000183100f0dffedce72d4b1b7c1bb92c4b7f
:102e200001221a70d5e72a4b5b7f002b48d1284b33
:102e30009b7f002bcdd0284b1b78002bc9d0274f70
:102e4000274b1b88402b28bf40233b60204c00258c
:102e5000a577402632462946e06804f0afff214bb3
:102e60001b683a6820491944e06803f097fd33462f
:102e7000e26804f11401284600f02efe0028a8d1d3
:102e80003968184a13680b441360154a13885b1a93
:102e90009bb21380002b9cd10f4b1d7040f6c412c7
:102ea0002946114804f08aff0e4b1d603d60084919
:102eb0004d7733468a681831284600f08bfe88e744
:102ec0000a4802f04ffd024b00225a7781e700bf0b
:102ed00030160020015600002c290020082900206f
:102ee0002429002004290020200c00205016002056
:020000040000fa
:102ef00090f90830002b40f38e80f0b583b0044683
:102f00000d4616468b1e072b00f28180dfe803f08a
:102f10000461667f7f6b747a43786ff3820343703a
:102f2000d0f8e4301b6c0021c0699847d4f8e43035
:102f30001b6c8021e0699847204603f0cdf8d4f857
:102f4000e4305b6a1021e0699847d4f8e4301f6ae6
:102f5000402300228021e069b84794f99030022b89
:102f600007dcd4f8e4309b6b04f188020021e069af
:102f70009847e378032262f30203e370d4f8e43065
:102f80001b69e0699847237860f343032370e26884
:102f900003f00e03022b15d09368c4f8b0301379f8
:102fa00084f8ae30002384f8ad3094f8d530012b8e
:102fb0002fd1d4f8d83063b3d4f8dc20314628467a
:102fc000984726e05369c4f8b030137c84f8ae30db
:102fd000e8e743786ff382034370e6e7437843f012
:102fe00004034370e1e7d0f8e4305b69c0699847b7
:102ff000adf8040001aed8e7c378012262f3020302
:10300000c370d2e7c3786ff30203c370cde7002922
:08301000cbd103b0f0bd704705
:020000040000fa
:103018002de9f04f0e4649683568d6f80890f768ec
:103028008bb0cde903230029acbf25f002050121af
:1030380015f010030593039b8346d3e900232fd093
:1030480052ea03002cd0a9f10208346915f00800ef
:1030580004f1ff3408904ff00000385518bf08f10c
:10306800ff388a46012c1ddc059b002b54d1089b98
:1030780013b1013c20233b5532690095013a4b4678
:10308800121b3919584602f0cdf8dbf80430db057d
:1030980003d573689842b8bf18460bb0bde8f08fe7
:1030a800c846d2e752ea030009d1baf1000f06dc9c
:1030b800a8eb010050440028d6dda807d4d502f0bb
:1030c8000f000928d4bf00f1300e00f1570e049804
:1030d800a0f1410cbcf1190f04f1ff3410d84ef0e7
:1030e800200cacf1610cbcf1190f09d8704609919c
:1030f800cde9062304f0bdffdde9062309998646dc
:10310800100940ea03704fea131c07f804e00af1bb
:10311800ff3a02466346a5e7039bd3e9000150ea5c
:103128000103a4d03a19049b02f8013c023c302365
:043138003b559ce780
:020000040000fa
:10313c0070b582b004460d4649784b1e082b00f240
:10314c008180dfe803f05e7f657f057f7f7f120063
:10315c00037843f080030370ab7880f8ac30002127
:10316c00204603f0cbfa02b070bd6b8823b9c2784d
:10317c0002f00702052a2cd094f8ad20dbb29a425b
:10318c0062d094f8ae2082b1d4f8b060331f013a0b
:10319c00d2b206eb820653f8042f5079a9788842f4
:1031ac0008bfc4f8b420b342f5d16b8884f8ad30b5
:1031bc00204602f091fae378052262f30203e370f1
:1031cc006b888df8043094f8d530012b0fd000218a
:1031dc00c6e70b2380f8b83002f078ff002184f8a2
:1031ec00ad10e378042262f30203e370b8e7d4f87d
:1031fc00d8305bb3d4f8dc2001a90a209847002111
:10320c00aee76b88012babd1002180f8c010a7e78b
:10321c006b88012b03d0022b05d00121a0e780f88d
:10322c00c03000219ce7037803f00e03022b01d081
:10323c00012195e76b798370437843f00103437068
:10324c0000218de701218be7002189e7002187e729
:020000040000fa
:10325c002de9f04184b004460f460578032d00f2a9
:10326c008180dfe805f002264461dff8fc8008f17c
:10327c0018060fce20606160a260e3603288b378dc
:10328c002282a374204604f011fc0a23029300222c
:10329c0001920123009308f12c0114fa80f004f040
:1032ac0043fb204604f002fc3880284604b0bde8fd
:1032bc00f0812d4e06f1440303cb206061601b7836
:1032cc002372204604f0f2fb0a2302930025019599
:1032dc000423009301232a4606f12c0114fa80f0f2
:1032ec0004f022fb204604f0e1fb3880dde71e4ea3
:1032fc0006f1500303cb206061601b7823722046db
:10330c0004f0d4fb0a2302930025019501230093ba
:10331c002a4606f12c0114fa80f004f005fb204635
:10332c0004f0c4fb3880c0e70f4e06f15c0303cbfe
:10333c00206061601b782372204604f0b7fb0a23df
:10334c000293002501950223009301232a4606f1de
:10335c002c0114fa80f004f0e7fa204604f0a6fbe6
:0c336c003880a2e7e225a0e7d839000075
:020000040000fa
:103378003d4b00221a7403f500633c4a5a621a4610
:10338800536813f0080ffbd1394b3a4a9a621a4630
:10339800536813f0100ffbd1354b4222c3f8842039
:1033a8001a46d2f8843013f0400ffad0324b00227c
:1033b8009a6377225a631a46d36b13f0040ffbd132
:1033c8002d4b022283f830201a46d36b13f0020fdc
:1033d800fbd1294a136c03f00303032bfad1274bc3
:1033e80001225a711a46d37813f0010ffbd0204bf3
:1033f800234a1a621a46536813f0040ffbd11c4b78
:103408004122c3f8a4201a46d2f8a43013f0400f82
:10341800fad0174b4122c3f8a8201a46d2f8a83090
:1034280013f0400ffad0124b4122c3f8dc201a46a1
:10343800d2f8dc3013f0400ffad00d4b4122c3f81c
:1034480008211a46d2f8083113f0400ffad00b4b76
:103458006ff07f421a6144f2ff725a61094a9a6119
:1034680001221a62704700bf0014004006010100e3
:10347800001c004006013000001000400008004019
:08348800070101005782010059
:020000040000fa
:1034900000287dd1414b1b78002b7cd130b583b007
:1034a0003e4b01229a731a7083f820204c685c62ac
:1034b000c87b587200205870986318718d7a9d727d
:1034c000cd7add720d7b1d734d7b5d73d8702270dc
:1034d0005a6a937813f0010ffbd10a23d370304b53
:1034e0001b680193019b03f01f031f2b08bf0523db
:1034f0002a4a526a108d40ea83131385019bc3f355
:1035000044131f2b08bf1d23108d03431385019bfc
:10351000c3f38223072b08bf0323108d40ea033334
:1035200013850b7a1bb1137843f0040313701b4b04
:103530005b7a012b11d0194a516a0b7843f00203d0
:103540000b70526a937813f0020ffbd1134b0222d7
:1035500083f82020002003b030bd104b5a6a03f1dd
:103560004c005062002283f83c200a6a1a645a6aae
:1035700013899bb223f00c03897b032908bf43f016
:1035800004039bb213810021044803f0a9fcd2e795
:103590004ff0ff3070474ff0ff30704700000020c1
:0435a0008400800023
:020000040000fa
:1035a4000d2d2d2043727970746f41757468205409
:1035b4007275737420506c6174666f726d20202d67
:1035c4002d0d0a2d2d20436f6d70696c65643a20b2
:1035d40041707220323920323032342031323a355f
:1035e400333a3335202d2d0d0a2d2d20436f6e7364
:1035f4006f6c65206c6f6720283131353230302d87
:10360400382d4e2d3129206f6e20555342202d2dfb
:103614000d0a0d004b697450617273657220566512
:103624007273696f6e3a202530325825303258252e
:103634003032580d0a000000446576696365204401
:103644006973636f766572792e2e2e2e2e0000001c
:103654000a25730d00000000436f6d706c6574657e
:10366400643a20666f756e64205350490000000070
:103674000a25730d0a000000436f6d706c65746554
:10368400643a20666f756e64204445564b49545f16
:1036940049465f554e4b4e4f574e0000436f6d7079
:1036a4006c657465643a20666f756e64206f746827
:0436b400657200003b
:020000040000fa
:1036b80011f00e0f40d101f00f03b0f1ff3f3ed0e3
:1036c8002de9f0470d46044600eb83035e6cc37892
:1036d800002b39d1837b012b03d06ff07e00bde82e
:1036e800f08700238373807a02f0e8ff8246e07a4d
:1036f80002f0e4ff0746207b02f0e0ff8046607b93
:1037080002f0dcff814645f3031101f008006ff079
:103718000101304403f03cfde3789bb9baf1000f96
:1037280021d0a37a590903f01f03012202fa03f3f7
:10373800214a42f8213016e06ff07b0070476ff0a5
:103748007c0070470020cae741f3031101f008002c
:103758006ff00101304403f01bfde7780fb1002042
:10376800bde7b946b8464fb1e37a590903f01f03dc
:10377800012202fa03f3104a42f82130b8f1000f8f
:1037880009d0237b590903f01f03012202fa03f32e
:10379800094a42f82130b9f1000f09d0637b590971
:1037a80003f01f03012202fa03f3034a42f821300f
:0c37b8000123a373002092e700e100e071
:020000040000fa
:1037c400ffffffffffffffffffffffffffffffff05
:1037d400fffffffffffffffffffffffffffffffff5
:1037e400ffffffffffffffffffffffffffffffffe5
:1037f400ff00010203040506070809ffffffffff9e
:10380400ffff0a0b0c0d0e0f1011121314151617cf
:1038140018191a1b1c1d1e1f20212223ffffffff46
:10382400ffff0a0b0c0d0e0f1011121314151617af
:1038340018191a1b1c1d1e1f20212223ffffffff26
:10384400ffffffffffffffffffffffffffffffff84
:10385400ffffffffffffffffffffffffffffffff74
:10386400ffffffffffffffffffffffffffffffff64
:10387400ffffffffffffffffffffffffffffffff54
:10388400ffffffffffffffffffffffffffffffff44
:10389400ffffffffffffffffffffffffffffffff34
:1038a400ffffffffffffffffffffffffffffffff24
:1038b400ffffffffffffffffffffffffffffffff14
:0a38c400ff000102040703060500df
:020000040000fa
:0238ce00704741
:020000040000fa
:1038d000b0f1ff3f24d031b32de9f84391f908301e
:1038e000012b23dd0c460546c37823bb837b012bcc
:1038f00003d06ff07e00bde8f88300238373807ae5
:1039000002f0e0fe0746e87a02f0dcfe8046287b03
:1039100002f0d8fe8146687b02f0d4fe06460ee037
:103920006ff07c0070476ff07c0070476ff07c0098
:10393000e1e70020dfe70026b146b0463746fe2328
:10394000237200236360e36963b1a2699a61a3698a
:103950000bb1e269da610023e361a361e3680bb1b3
:1039600020469847eb78002be3d14fb1ab7a590949
:1039700003f01f03012202fa03f3164a42f8213032
:10398000b8f1000f09d0eb7a590903f01f030122a7
:1039900002fa03f30f4a42f82130b9f1000f09d0bf
:1039a0002b7b590903f01f03012202fa03f3094a92
:1039b00042f821304eb16b7b590903f01f030122fd
:1039c00002fa03f3034a42f821300123ab730020cb
:0839d00091e700bf00e100e0f7
:020000040000fa
:1039d800543a0000843a0000743a00007c3a00002f
:1039e80050617273657220004b697450726f746f06
:1039f800636f6c5061727365722000002530325815
:103a08002825303258253032582530325829256338
:103a180000000000534841323034412000000000cb
:103a280041455331333241200000000045434331c2
:103a380030384120000000002e2e2e2e2e2e2e2e45
:103a480025730d0a000000000d0000006e6f5f6412
:103a5800657669636520000025630000756e6b6eee
:103a68006f776e5f64657669636500005457492017
:103a7800000000005357492000000000535049201f
:103a88000000000025303258282530325829256397
:103a98000000000025733a2025730d0a0a00000073
:103aa80025733a202573000025733a2025730d0ae3
:103ab800000000003a7400003a5400005265636543
:103ac800697665640000000053656e74000000bfed
:020000040000fa
:103ad800f8b54ff0ff340c60012866d800eb80047d
:103ae800364d15f8344014f0020f61d000eb800415
:103af80005ebc404a668e569b468a5425bd2304cfe
:103b08006478012c03d06ff05f042046f8bd2c4c7c
:103b1800002565702b4c94f90840012c0ddd294ccb
:103b280094f92c40012cd8bf4ff0010c07dd244b31
:103b380001225a706ff07f04e7e74ff0000c0d4642
:103b480006464feacc0000eb0c04a4001d49671898
:103b58007b6062501c4bfb607e612f6004f07afb37
:103b680006eb8603154c04ebc304e3690133e361f8
:103b780004f074fb3a46617d606803f0d7fc0446a4
:103b880018b90f4b01225a70bfe704f063fb0b4bc7
:103b9800b200911903ebc101cb69013bcb6104f081
:103ba8005dfb4ff0ff332b60ebe76ff07704ace77a
:103bb8006ff07504a9e76ff07f04a6e7b001002055
:0c3bc80020020020d8010020555700000a
:020000040000fa
:103bd400f8b54ff0ff340c60012866d800eb800480
:103be400364d15f8344014f0040f61d000eb800416
:103bf40005ebc404a668256af468a5425bd2304c80
:103c04006478012c03d06ff05f042046f8bd2c4c7f
:103c1400002565702b4c94f90840012c0ddd294cce
:103c240094f92c40012cd8bf4ff0010c07dd244b34
:103c340001225a706ff07f04e7e74ff0000c0d4645
:103c440006464feacc0000eb0c04a4001d4967189b
:103c54007b601d4bfb6062507e6104f0fdfa06eb55
:103c64008603164c04ebc304236a0133236204f075
:103c7400f7fa2f603a46217e606803f059fc044647
:103c840018b90f4b01225a70bfe704f0e5fa0b4b49
:103c9400b200911903ebc1010b6a013b0b6204f002
:103ca400dffa4ff0ff332b60ebe76ff07704ace7fc
:103cb4006ff07504a9e76ff07f04a6e7b001002058
:0c3cc40020020020d8010020c1570000a1
:020000040000fa
:103cd0002de9f84300286ad050f8043ca0f108040c
:103ce00023f00107e6193268934200d0ffde7268c4
:103cf00023681340da070fd4204603f091f8002818
:103d000057d1304603f0b2f90028f0d0736823f0a1
:103d100001031f441e44eae747f00103636038468d
:103d2000336002f02bff054603f0d6fc236872686f
:103d30001340db07e0d5dff88ce0dee90089c5f150
:103d4000200ca5f1200228fa05f009fa0cfc29fa4a
:103d500002f240ea0c001043012100ea01020023b4
:103d60001343c5f120007346a5f1200212d121fab8
:103d700000f001fa02f2a94042ea00021ebfdef89a
:103d800000000143cef8001022b1def804100a430f
:103d9000cef80420681c03ebc003a3f1080267609f
:103da0003760a2605a68e2605c60e3689c60bde8ce
:103db000f883236823f00103e41a636823f0010306
:083dc0001f449ee7602400206f
:020000040000fa
:103dc800b0f1ff3f72d02de9f84303780bb9bde895
:103dd800f8830446456a1021fef79af9e378002b28
:103de80054d1a37b012bf2d14ff0000984f80e9037
:103df800a07a02f063fc8046e07a02f05ffc064697
:103e0800207b02f05bfc0746607b02f057fc84f8dd
:103e1800069040f2ff33ab8285f80a902b8943f075
:103e280001032b81e378002bd1d1b8f1000f09d021
:103e3800a37a590903f01f03012202fa03f31c4a6b
:103e480042f821304eb1e37a590903f01f030122e9
:103e580002fa03f3164a42f821304fb1237b59097d
:103e680003f01f03012202fa03f3114a42f821303a
:103e780048b1637b590903f01f03012202fa03f3d7
:103e88000b4a42f821300123a373a0e70023a37152
:103e980040f2ff32aa82ab722b8943f001032b81d7
:103ea800e678002e93d130463746cbe7704700bfff
:043eb80000e100e045
:020000040000fa
:103ebc0070b582b000238df807300e2901d002b006
:103ecc0070bd14460646354bec2505fb0035d388f2
:103edc00a5f8e030d5f8e4301b6c8021e8699847f0
:103eec00237803f01f03032be9d8dfe803f0022249
:103efc002851237813f060020cd113f0800f04d1f9
:103f0c0021462846fff714f9d9e72146284600f048
:103f1c002bf9d4e7402a06d0202ad0d101212846fb
:103f2c0002f0ecfbcbe722460e21284602f0baff4a
:103f3c00c5e722462179284602f0def9bfe7217950
:103f4c0051b9237813f0600f1bd122469df807104e
:103f5c00284601f05efab2e70df10702284602f09e
:103f6c0075fd0e4bec2202fb0636f37803f00703cb
:103f7c00052b01d10028e4d10121284602f0befb1b
:103f8c009de722469df80710284602f0b5f996e702
:103f9c0022460e21284602f085ff90e76c26002071
:020000040000fa
:103fac0038b590f9083013f1020f3cd0054644693e
:103fbc00022b07d04268002a3cd1002184f8c4109f
:103fcc000f201ae094f8c4305bb1d4f8d03043b170
:103fdc00d4f8d850ab4227d000220c21b4f8c8003a
:103fec009847012384f8c430274bc4f8d030238b76
:103ffc00a4f8c83004f124010e20d4f8d030d4f841
:10400c00d850ab423bd00a460146b4f8c80098479a
:10401c004023c4f88c30d4f8e4309b6b04f1880254
:10402c000021e069984738bdd4f8dc2000210c2031
:10403c00a847d6e794f8c430f3b194f8c53094f897
:10404c00c610994202d800210d20d6e7d4f8cc0036
:10405c0004f12401184403f02ffc6b6894f8c5009c
:10406c001844c3b284f8c53094f8c60000219842b5
:10407c008cbf01200d20c0e700210120bde7d4f842
:0c408c00dc20a847c4e700bfbd3e0000d8
:020000040000fa
:10409800b0f1ff3f67d02de9f843334aec2303fb27
:1040a800002393f90830002b32dd0646ec2303fb8e
:1040b800002393f8d430bbb1012b29d1ec2303fba7
:1040c8000023b3f81080b8f1000f21d02649ec2363
:1040d80003fb00f3ca18cf5cc7f3420792f8ad9010
:1040e8005569103500241ee01f4bec2404fb0034f6
:1040f800d4f8e4301b680f21b4f8e8009847e06171
:10410800b0f1ff3f04d0012384f8d4300223237296
:10411800bde8f88335f80c0c98470134e4b2103543
:10412800a3b24345f4d215f8103c1f42f5d015f858
:104138000f3c4b45f1d10c49ec2303fb0613db780c
:1041480003f00703052be8d1ec2303fb06135b7888
:1041580013f0040fe1d155f8043c002bddd0db68e7
:0c416800002bd7d1d9e770476c2600204f
:020000040000fa
:1041740030b583b004460d46002301934b78062bdb
:1041840012d0082b50d0002b37d1a0f8bc300378c4
:1041940003f0010390f8c02062f34103024602f8e1
:1041a400bc3f0192022043e0c068cb78013b062b60
:1041b40049d8dfe803f00410354848271d00237868
:1041c40003f00e03022b0cbfc36803680193122093
:1041d400019971bb11e08b7894f8ae209a420cd906
:1041e400d4f8b02052f823303bb1019358881fe033
:1041f400237803f07003102b23d00121204602f012
:1042040081fa1ee0237803f07002102af5d103f03e
:104214000e03022b0cbf036a436a01930a20d7e7fb
:1042240001aa01f0bdf8d3e700f1ad030193012029
:104234000199ea88824228bf024692b2204602f0df
:0a424400f8f903b030bd0020c2e716
:020000040000fa
:02424e007047b7
:020000040000fa
:10425000002a60d0f0b583b0164600295ed0002356
:1042600013800b788df807304c788a7802eb0422a3
:1042700095b203f07f03302b19d0012d0cbf2f46d0
:1042800002270c46264b4ff00052c3f89420012120
:104290000df1070003f016ff58b9f023204a4ff044
:1042a0000051c2f898103780184603b0f0bd0127be
:1042b000e7e701211b4802f049fa03460028edd147
:1042c0003946204603f074fe08b9e623e6e739468e
:1042d000144802f03bfa03460028dfd1012fddd05d
:1042e0002378677807eb0327bfb2bd4211d3042fb1
:1042f00001d8e623d2e7b91ea01c03f059fe08b985
:10430000e623cbe7b91e89b2064802f01ffa03463e
:10431000c4e7ed23c2e7e22318467047e223c3e770
:084320000080004140420f0043
:020000040000fa
:104328001a000000dc830000160000003081000045
:104338000e0000008c82000006000000948200003d
:10434800130000009c8200000b0000005481000054
:1043580011000000ac82000005000000b4820000db
:10436800020000008481000004000000cc820000ec
:1043780000000000d482000017000000e083000065
:1043880012000000c48200000d000000dc82000062
:104398000a000000e48300000c0000009081000087
:1043a80003000000ec82000009000000f482000015
:1043b80007000000fc8200001800000004830000d1
:1043c80001000000a881000014000000b481000072
:1043d80015000000c081000019000000e8830000fb
:1043e8000f00000014830000100000002483000068
:0843f800080000002c83000006
:020000040000fa
:1044000070b582b000248df807402b4d70222146f4
:10441000284603f0d3fc012000f072fd274b1b68f7
:104420009847274b1b680df10701284698479df8d0
:1044300007608df80740002e39d02c46013ef6b2b9
:10444000c6ebc60605f10e0303eb46060fe002f0cd
:1044500051fc0146637b022b9abf1a4a52f8232073
:10446000194a1a4803f054f80e34b4421fd0607849
:104470000028f9d02378022b11d0032be7d0012b91
:10448000f2d102f037fc0146637b022b9abf0d4a42
:1044900052f823200c4a0e4803f03af8e4e702f001
:1044a00029fca27801460b4803f032f8dce7024b06
:1044b000187802b070bd00bf5827002044020020c9
:1044c0003402002020800000786100007c61000040
:0844d000986100008861000002
:020000040000fa
:1044d800002856d1002957d0c869002857d0f8b508
:1044e8002c4b01241c7200221a83dd7862f302052a
:1044f800dd70d8608e8a1e828d695d61187891f8aa
:10450800207067f3061083f8c02000f0fe0062f305
:10451800c7101870587803f12407c3f8887040272b
:10452800c3f88c7083f8984083f890201a4fc3f82a
:104538009470c3f89c30194f1f679b6783f87440c9
:1045480000f0fe0062f38200587083f8d4208a6a73
:10455800c3f8e420ca8ca3f8e82086b100241e46dc
:1045680005e010350134e4b2338aa34207d9eb6879
:10457800002bf6d01b69002bf3d09847f1e70020f9
:10458800f8bd4ff0ff3070474ff0ff3070474ff0e5
:10459800ff3070476c260020ad3f0000fd5800003a
:020000040000fa
:1045a8002de9f04182b09df824300a9c042b44d0b8
:1045b800052b53d1e37803f00303032b4ed18c462c
:1045c8000646a27812f0800f1bd1264d4fea8008cc
:1045d80008eb0007ff00eb191a76a1885983a38816
:1045e800009303230021604602f0e8feeb5d43f0f0
:1045f8000403eb5508eb060005ebc00500232b620e
:104608002ce0184d4fea800808eb0007ff00eb1973
:104618005a75a188d982a388009303230021604694
:1046280002f0ccfeeb5d43f00203eb5508eb06000d
:1046380005ebc0050023eb6110e00a4b8600351836
:10464800ed0003eb050c5f5d47f001075f55ccf803
:104658000410ccf808200934ccf8244002b0bde896
:08466800f08100bfb001002049
:020000040000fa
:1046700000eb00122e4b03eb021393f92030002bba
:1046800055dd13462a4a02eb03139b6b002b4ed0d9
:1046900070b500eb001302eb03135d7a012d00d01f
:1046a00070bd044600eb0012214b03eb02131b6ca0
:1046b000fbb19847064604eb04131d4a02eb0313b3
:1046c00093f83c308342ebd001281bd004eb041359
:1046d000174a02eb03131b790bbb04eb041502eb27
:1046e0000515ab6b00220921686b984701232b71dc
:1046f00015e000eb00130e4a02eb031393f83c3075
:10470000012bcdd004eb0416094b03eb0616b36b5b
:1047100000220821706b9847002333712e4604eb6a
:104720000410034b03eb001080f83c60b8e77047bf
:044730000000002065
:020000040000fa
:10473400f0b583b00c46042849d005461646284bec
:104744001b78052b1bd00ed9062b10d0f12b21d1b1
:104754000a2302462349204603f0eaf8204603f0e0
:10476400a9f9308039e0013bdbb2022b12d81e4b91
:104774001a8832801d49204603f0a2f82de00a234e
:1047840002461849204603f0d3f8204603f092f974
:10479400308022e0144b188850b90a232a46114964
:1047a400204603f0c5f8204603f084f9308014e075
:1047b4000e4f394600f06dfe0b4b18800a23009310
:1047c4003b462a460a49204603f0b2f8ebe70a239f
:1047d40004220449204603f0abf8002003b0f0bde6
:1047e4002d290020684b000022290020901600206b
:0447f400744b000002
:020000040000fa
:1047f800f0b587b004460e4603f0b7fd0546294bd1
:104808000fcb06af07e90f00002c46d0002e46d08c
:104818002a460021204603f0cdfa00233380fff713
:10482800ebfd0546204b03cb20606160a5b90299da
:10483800204603f0b0f90a238df8043000258df8de
:10484800055001a9204603f0a6f9204603f030f9e7
:104858003080284607b0f0bd002003f0d5fb07469e
:10486800407802f043fa014610b1204603f093f96c
:1048780006ab03eb850555f8101c204603f08bf9b1
:10488800204603f015f93b78022b04d0fb7814fa84
:1048980080f04370cfe7bb78f9e7e220dae7e2205f
:0c48a800d8e700bfd8390000e839000054
:020000040000fa
:1048b400f0b585b00646244b1860244b0fcb04acee
:1048c40004e90f000024e0b203f0a0fb8578b542b0
:1048d4000ed00134082cf6d100241d4800f15001fb
:1048e400603002f013fe204603f0ccf805b0f0bdb2
:1048f40004784378174a1370467b022c15d004f0d1
:10490400fd02012ae9d1184602f0f2f905463046c3
:1049140003f0c4f803462a4604a901eb840151f8c4
:10492400101c0d4802f0f2fddde7184602f0e0f934
:104934000746304603f0b2f82b463a460299074838
:1049440002f0e4fdcfe700bf00290020804b000007
:10495400684b00002a290020a44b0000904b000063
:020000040000fa
:1049640051000000dc830000280000003c810000ae
:10497400240000008c8200001c000000488100001c
:1049840043000000ac82000015000000bc8200005f
:1049940040000000c482000030000000d482000007
:1049a40056000000e083000017000000dc820000d5
:1049b40008000000e483000016000000e482000008
:1049c400460000009c8100001b000000f4820000ef
:1049d40002000000fc82000080000000a8810000aa
:1049e40077000000b481000041000000148300003f
:1049f40047000000e883000020000000e48100007c
:104a04004500000024830000120000002c830000f5
:020000040000fa
:104a1400882910b536d012dc812943d003dc8029e3
:104a240040d0002010bd82290ed08429f9d1196804
:104a340002b30a1d1a60b1f90020d3171ee0a029a1
:104a44002bd00bdc9029ecd11968073121f0070138
:104a540001f108021a60d1e900230fe0c02901d056
:104a6400f029ded11a68111d196013680360002350
:104a7400436005e00a1d1a600a880023c0e9002388
:104a84000120cfe7196822b10a1d1a6091f90020ac
:104a9400d3e70a1d1a600a78efe71a68111d196036
:104aa4001268cae719681ab10a1d1a600a68c4e7cd
:0c4ab4000c1d1c600b68c0e90032e1e73b
:020000040000fa
:104ac000b0f1ff3f4ad038b500eb0013244a02eba7
:104ad000031393f92030022b00d038bd044600ebbd
:104ae00000121f4b03eb02139a7a550902f01f02c2
:104af000012101fa02f21b48603540f82520da7adc
:104b0000550902f01f0201fa02f2603540f8252033
:104b10001a7b550902f01f0201fa02f2603540f8d3
:104b200025205a7b550902f01f0201fa02f2603576
:104b300040f82520d9705b7a8b4207d004eb041033
:104b4000074c04eb00100023c370c6e704eb04130a
:104b5000034800eb0310fbf757feefe7704700bf79
:084b60000000002000e100e06c
:020000040000fa
:104b680025303258282925630000000025303258a6
:104b78002825732925630000e84b0000f44b00004a
:104b8800fc4b0000044c000053656c65637465645d
:104b98002025732573253032580d0a0053656c653e
:104ba80063746564202573257325730d0a0000005e
:104bb800496e76616c696420646576696365000096
:104bc8002573200d0a000000496e76616c69642027
:104bd800636f6d6d616e643a2025730a00000000f2
:104be8006e6f5f64657669636520000053504920e5
:104bf8000000000054574920000000005357492086
:044c0800000000bfe9
:020000040000fa
:104c0c0000b17047244b1b78002bfad010b5224c06
:104c1c000023237084f820306370a363a07a01f022
:104c2c004bfde07a01f048fd207b01f045fd607bf7
:104c3c0001f042fda37a580903f01f02012303fa85
:104c4c0002f21649603041f82020e27a500902f055
:104c5c001f0203fa02f2603041f82020227b500937
:104c6c0002f01f0203fa02f2603041f82020627b4e
:104c7c00500902f01f02934000f1600241f822300b
:104c8c00626a137803f0fd031370626a9378dbb2e7
:104c9c00022bfbd010bd00bf0000002000e100e0a3
:020000040000fa
:104cac0082784378013b452b44d8dfe803f0453943
:104cbc0043434343432e43434343434343432c45e2
:104ccc0043434530454343433745434343454343bf
:104cdc0043434343434543434343434343234343b6
:104cec0043434343434343434343434343253f43aa
:104cfc00434341450720704702f01002002a14bfbd
:104d0c0004204b207047642070472320704702f02a
:104d1c000302032a0cbf0420232070472320704772
:104d2c0052b2002ab4bf232007207047642070477a
:0c4d3c00642070476e2070470420704710
:020000040000fa
:104d4800234b002908bf1946224a136823f002039f
:104d58001360d369002bfcd100282cd003685b00ba
:104d6800b1fbf3f18b1efe2b27d830b4194b1a6810
:104d780022f040521a601c68826845682a43224320
:104d88001a600139c9b219735a6822f007025a60c9
:104d98005a68c1680a435a601a46d369002bfcd185
:104da80001200c4a136843f002031360d369002bf7
:104db800fcd130bc7047002000e00020054a136891
:104dc80043f002031360d369002bfcd1704700bf86
:084dd800006cdc020020014127
:020000040000fa
:104de00008b51b4b98471b4b9847eff3108172b6e1
:104df000194ad2f8883043f47003c2f88830bff300
:104e00004f8fbff36f8f01b962b6144c20236360dc
:104e100001f0c4fa124b23f07f030f4a9360114b49
:104e20009847a36823f00103a3602346da6812f0d1
:104e3000010ffbd1094b5a6842f004025a6001226b
:104e40009a60094b9847094b984700f061fbfee7d1
:104e5000338400003384000000ed00e00060004176
:104e6000000000000d5c000033840000338400006b
:020000040000fa
:104e7000f7b50446019130b90846fdf725fa064614
:104e8000304603b0f0bd01a801f068fd002835db15
:104e900054f8043ca4f1080723f001057e19326898
:104ea000934200d0ffde019bab4215d9304602f0a1
:104eb000ddf888b1726822f0010253191644019995
:104ec00043f001028b4244f8042c326006d338468a
:104ed00001f044ff2646d3e72b46f0e7a1f1080096
:104ee000fdf7f2f906460028cad0a5f108022146ce
:104ef00002f0e8fc2046fef7ebfec1e70026bfe724
:020000040000fa
:104f0000012801d0e22070470e4b0f4a1a600f4b68
:104f10000f4a1a600f4b104a1a60104b104a1a6061
:104f2000104b114a1a60114b114a1a60114b124a68
:104f30001a60124b124a1a60124b134a1a60002070
:104f4000704700bf44020020597600004c02002048
:104f50003984000034020020eb7300002c02002092
:104f6000b983000040020020bd8300003002002011
:104f7000c18300003c020020c583000038020020ed
:0c4f800051630000480200205142000074
:020000040000fa
:104f8c002de9ff41836946690093f61acde9016169
:104f9c0004461746039216444ff002086d464246eb
:104fac002946206802f0ddf8b04209d1d4e902327a
:104fbc00c4e905331a44a262384604b0bde8f08156
:104fcc0000280dda6268002342f01002b8f1020fdb
:104fdc00a362c4e90533626015d06b68ff1aebe776
:104fec006b68984288bf0835a6eb000688bfc01acc
:104ffc002b6803442b606b68a3eb000088bf08f19f
:0a500c00ff386860cbe71f46d6e7c7
:020000040000fa
:025016007047e1
:020000040000fa
:1050180010b5feb00446194b1b681a88b2f5fa7f22
:1050280028bf4ff4fa72164b196801a802f046fc23
:105038000a2101a802f0c8fe08b100220270114b33
:105048001b784bb10f4b00221a7001aa21460e485b
:1050580002f05afa7eb010bd0c4b1b7843b10b4bd3
:1050680000221a7001aa2146094802f04dfaf1e718
:1050780001aa2146074802f047faebe7e8150020a5
:10508800e4150020282900209c3a00002929002046
:08509800a83a0000b03a000044
:020000040000fa
:1050a000194b1b681b78002b2dd070b5174b1c6853
:1050b0001749204600f0ecfcf0b1164b01221a70a3
:1050c000154e06f1ec00fff7a7ff144c0f4d2168b9
:1050d0002868fbf7dbf806f1f800fff79dff226870
:1050e0000f4b1b681188286898472268002313809b
:1050f000054a1268137070bd0a49204600f0c8fcca
:105100000028dad1dce77047ec150020e415002018
:10511000bc3a000029290020d8390000e8150020f9
:0851200050020020c03a00001b
:020000040000fa
:105128001e4ad36823f4e0631b041b0c43f0bf63df
:1051380043f40033d360bff35f8f62b6184be022ad
:1051480083f836234ff48001596083f837234ff4ee
:105158000001596083f838234ff08071596083f853
:1051680039234ff00071596083f850234ff4803190
:10517800996083f851234ff40031996083f85223e2
:105188004ff48021996083f853234ff400219960ec
:1051980083f86b234ff40062da60704700ed00e09b
:0451a80000e100e042
:020000040000fa
:1051ac0008b51048104b0360104b4360104b8360e4
:1051bc00104bc360104b0361104b8361104b0362a7
:1051cc00104b4362104b8362104bc362104b036352
:1051dc00104b4363104b8363104bc36302f0acfd65
:1051ec0008bd00bf64280020f94700005d320000b4
:1051fc002d2a0000cd83000021820000d183000005
:10520c00597a0000717a000091670000018000005b
:10521c00317d00008d5f0000d5830000d983000034
:020000040000fa
:10522c002de9ff471d460c9b13f0010906468a46e3
:10523c00144601d195420bd822465146304601f016
:10524c0041fca54204d82546284604b0bde8f087a9
:10525c002f1b102f3a464ff0200128bf1022684612
:10526c00b84602f0a5fdb8f10f0f11d83b096ff04d
:10527c000f0202fb03726946304601f023fcb9f1c0
:10528c00000fe1d122465146304601f01bfcdbe712
:10529c0010226946304601f015fca8f11008e2e72f
:020000040000fa
:1052ac00f0b587b005460e461746002302930393cc
:1052bc0004938df814300a238df80a30c2238df82c
:1052cc00113070238df812300b23adf806300d23fe
:1052dc00adf804300df1060202a901f033f80446d2
:1052ec0010b1204607b0f0bd052002f0a3fb01aac7
:1052fc0002a9284601f02ef904460028f1d10b2111
:10530c0002a801f0d7fc0028ebd0ddf80b20ddf86b
:0c531c000f303260736010233b70e2e73a
:020000040000fa
:10532800842910b523d00cdc812903d0822913d01d
:1053380080290bd119680c1d1c600b6803601a606a
:1053480013e0902921d003dc882917d0002010bd54
:10535800a029efd0c029ece719680c1d1c600b6868
:105368000360d1171046c3e900010120efe719686f
:105378000c1d1c600b6803601a80f6e719680c1d89
:105388001c600b6803601a70efe719680c1d1c603d
:0c53980009680160d317c1e90023e6e7b3
:020000040000fa
:1053a400f0b58f78c669d6f800c09cf80030023b8f
:1053b400dbb25d08012b08d9047e013c94fbf5f4b3
:1053c400e4b2bc4203d20020f0bd0024f9e727b9bf
:1053d400c2f800c09cf80000f6e7b1f804e0a8b2f7
:1053e4000028f1d0bcf80230734512d00cf1020150
:1053f4000124631c9bb2a0420dd01c4631f8025f0d
:105404007545f6d107fb03f356f82330136018787b
:0a541400dae70123f6e70020d6e7ef
:020000040000fa
:10541e0010b504461179537893b9a0f8bc30d0f882
:10542e00e4305b6bc069984794f8bc3060f30003be
:10543e00214601f8bc3f0222204601f0f5f810bdce
:10544e00012b07d0032b12d00c2bf8d1012101f028
:10545e0054f9f4e75388002bf1d1d0f8e430db6a2d
:10546e00c06998470021204601f047f9e7e75388c5
:10547e00002be4d1d0f8e4309b6ac0699847002134
:08548e00204601f03af9dae7cb
:020000040000fa
:105496002de9f84fb1b3894618b904462046bde850
:1054a600f88f8246440001342046fcf70aff804606
:1054b6002246002102f07ffc09f1ff360af1ff3b8c
:1054c60019fa8bfb002416f8017f651cadb238096a
:1054d60002f0c2fd08f804000234a4b207f00f007f
:1054e60002f0bafd08f805005e45ecd14fea4a0025
:1054f60084b2621c4146484602f0e1f94046fef796
:08550600e4fbcbe70024c9e738
:020000040000fa
:02550e007047e4
:020000040000fa
:1055100010b5002000f0aef81a4c204601f0dcfe79
:1055200000230122114604f1740001f0f1ff00f0a4
:105530004bfefff73bfe04f1980104f1b00001f0cf
:10554000e7fffef75dff012807d098b90d4800f18d
:10555000d801d03001f0dcff05e0204604f1b801ad
:10556000d03001f0d5ff002402f074f92046fff797
:1055700097fdf9e7034800f1fc01d03001f0c8ffc6
:08558000f1e700bfa4350000b3
:020000040000fa
:10558800f8b5846a05460f46164654b1ab6a6a698f
:105598009b1ab3420bd2324639462846fff7f2fc33
:1055a800f8bd02f0a9fa0028f0d02046f8e7002e4e
:1055b800f1d095f93430002b1bdbdbb23446621e88
:1055c800b95c994212d1224639462846fff7dafcdf
:1055d800a042e5d32744341b22463946686902f0c5
:1055e8006df96b691c446c613046d9e71446002a92
:0655f800e5d13446f0e7a6
:020000040000fa
:0255fe007047f4
:020000040000fa
:1056000010b5023809280ed8dfe800f0050d0d0da1
:105610000d0d1c240e08124801f05efe114b0022f5
:105620001a7401221a7010bd0c460f4801f054fe86
:105630000c4a01231374237813770c49002001f0de
:10564000a7fcf0e70a4801f047fe064b586801f056
:10565000f3ffe8e7034b586801f0a1fee3e700bf62
:10566000b05b000030160020c85b00002d5a00001f
:04567000e85b0000f3
:020000040000fa
:1056740010b502f05bfc154b1b680021186802f0a2
:10568400d5fc134b1b680021186802f0cffc00f016
:10569400cbf8fdf76ffe01f0bff9fef716f9fff73f
:1056a400b8fc01f0bdfa01f037f90a490020fef711
:1056b40011ff094c206009490020fdf7e7fe6060f6
:1056c40001f094fbfff72efd10bd00bf342900202c
:1056d400c82a0020e86f000024020020c8740000db
:020000040000fa
:1056e4002de9f04f85b0d0f8b440678867b38046a1
:1056f4000026b246b14635460fe094f8029094f87d
:1057040003a04146484600f0defe06460ae0237840
:105714001d44adb21c44af4216d994f801b0bbf19c
:10572400040fead0002ef2d0f368002befd0b26859
:10573400b0880294cdf804b0cdf800a0d3f800b03e
:0e5744004b464146d847e2e705b0bde8f08f7e
:020000040000fa
:0257520070479e
:020000040000fa
:1057540030b585b0446904eb8402174b03ebc203f4
:10576400da69013ada61dd68fdb1436802930190b8
:1057740090f90830dab2012a0ad913f1030f16d0ce
:1057840013f1040f0cbf9f23a0238df80c3002e00b
:1057940000238df80c3004eb8402074b03ebc203a7
:1057a4001b6901aa06212046a84705b030bd9e23e7
:0c57b4008df80c30efe700bfb0010020c2
:020000040000fa
:1057c00030b585b0848a04eb8402174b03ebc20327
:1057d0001a6a013a1a62dd68fdb1436802930190ca
:1057e00090f90830dab2012a0ad913f1030f16d062
:1057f00013f1040f0cbf9f23a0238df80c3002e09f
:1058000000238df80c3004eb8402074b03ebc2033a
:105810001b6901aa07212046a84705b030bd9e2379
:0c5820008df80c30efe700bfb001002055
:020000040000fa
:10582c00184b4ff480321a601a61012283f8582009
:10583c0083f85920772183f83c104ff04051c3f87e
:10584c00801083f8cc2083f8cd2083f8da2083f8fd
:10585c00db2083f8dc20022283f8dd20222183f870
