:020000040000fa
:10000000f0ff0320957a00001f280000eb3e00005f
:10001000e75c0000db650000d36800000000000022
:10002000000000000000000000000000d783000076
:10003000ff53000000000000d7830000d7830000ba
:10004000d7830000d7830000d7830000d783000048
:10005000d7830000d7830000d7830000d783000038
:10006000d7830000d7830000d7830000d783000028
:10007000d7830000d7830000d7830000d783000018
:10008000d7830000d7830000d7830000d783000008
:10009000d7830000d7830000d7830000d7830000f8
:1000a000d7830000d7830000d7830000d7830000e8
:1000b000d7830000d7830000d7830000d7830000d8
:1000c000d7830000d7830000d7830000d7830000c8
:1000d000d7830000d7830000d7830000d7830000b8
:1000e000d7830000d783000000000000000000005c
:1000f00000000000d7830000d7830000d7830000f2
:10010000d7830000d7830000d7830000d783000087
:10011000d7830000d7830000d7830000d783000077
:10012000d7830000d7830000d7830000d783000067
:10013000d7830000d7830000015400000154000061
:100140000154000001540000d7830000d783000051
:10015000d7830000d7830000d7830000d783000037
:10016000d7830000d7830000d7830000d783000027
:10017000d7830000d7830000d7830000d783000017
:10018000d7830000d7830000d7830000d783000007
:10019000d7830000d7830000d7830000d7830000f7
:1001a000d7830000d7830000d7830000d7830000e7
:1001b000d7830000d7830000d7830000d7830000d7
:1001c000d7830000d7830000d7830000d7830000c7
:1001d000d7830000d7830000d7830000d7830000b7
:1001e000d7830000d7830000d7830000d7830000a7
:1001f000d7830000d7830000d7830000d783000097
:10020000d7830000d7830000d7830000d783000086
:10021000d7830000d7830000d7830000d783000076
:10022000d7830000d7830000d7830000d783000066
:10023000d7830000d7830000d7830000d783000056
:10024000d7830000d7830000d7830000d783000046
:10025000d7830000d7830000d7830000d783000036
:04026000d783000040
:020000040000fa
:10026400f8b500bff8bc08bc9e467047298d000055
:10027400f8b500bff8bc08bc9e467047058d000069
:020000040000fa
:08028400c0340000010000007d
:020000040000fa
:10028c005345435032323452310000004646464604
:10029c0046464646464646464646464646464646f2
:1002ac00464646464646464646464646303030303a
:1002bc003030303030303030303030303030303032
:1002cc003030303100000000464646464646464631
:1002dc0046464646464646464646464646464646b2
:1002ec0046464646464646454646464646464646a3
:1002fc004646464646464646464646464646464593
:10030c000000000042343035304138353043303451
:10031c00423341424635343133323536353034345c
:10032c0042304237443742464438424132373042f9
:10033c00333934333233353546464234000000000d
:10034c004646464646464646464646464646464641
:10035c00464646464646464646464646313641326f
:10036c0045304238463033453133444432393435e4
:10037c0035433543324133440000000042373045a9
:10038c0030434244364242344246374633323133ac
:10039c0039304239344130334331443335364332ca
:1003ac0031313232333433323830443631313543f3
:1003bc003144323100000000424433373633383890
:1003cc004235463732334642344332324446453660
:1003dc004344343337354130354130373437363494
:1003ec003434443538313939383530303745333495
:1003fc00000000005052494d45323339563100004f
:10040c00374646464646464646464646464646468f
:10041c00464646464646464637464646464646467f
:10042c004646464638303030303030303030303060
:10043c003746464646464646464646460000000077
:10044c00374646464646464646464646464646464f
:10045c00464646464646464637464646464646463f
:10046c004646464638303030303030303030303020
:10047c00374646464646464646464643000000003a
:10048c0036423031364333424443463138393431c5
:10049c0044304436353439323134373543413731d1
:1004ac00413944423246423237443144333737398a
:1004bc003631383543323934324330410000000094
:1004cc0037464646464646464646464646464646cf
:1004dc0046464646464646463746464646463945cd
:1004ec003545394139463544393037314642443146
:1004fc003532323638383930394430420000000059
:10050c00304646413936334344434138383136431b
:10051c00434333334238363432424544463930351e
:10052c004333443335383537334433463237464218
:10053c0042443342334342394141414600000000ba
:10054c0037444542453845344539304135444145b9
:10055c00364534303534434135333042413034360e
:10056c0035344233363831384345323236423339fa
:10057c004643434237423032463141450000000089
:10058c0053454350323536523100000046464646fc
:10059c0046464646303030303030303130303030f6
:1005ac00303030303030303030303030303030303f
:1005bc003030303046464646464646464646464627
:1005cc0046464646464646464646464600000000d7
:1005dc00464646464646464630303030303030315e
:1005ec0030303030303030303030303030303030ff
:1005fc00303030303030303046464646464646463f
:10060c004646464646464646464646464646464381
:10061c000000000035414336333544384141334105
:10062c00393345374233454242443535373639380c
:10063c003836424336353144303642304343353315
:10064c0042304636334243453343334532374432e6
:10065c003630344200000000464646464646464682
:10066c0030303030303030304646464646464646ce
:10067c004646464646464646424345364641414432
:10068c0041373137394538344633423943414332a7
:10069c0046433633323535310000000036423137af
:1006ac004431463245313243343234374638424392
:1006bc0045364535363341343430463237373033ae
:1006cc00374438313244454233334130463441317a
:1006dc003339343544383938433239360000000068
:1006ec00344645333432453246453141374639423a
:1006fc003845453745423441374330463945313624
:10070c003242434533333537364233313545434531
:10071c00434242363430363833374246353146352b
:10072c000000000053454350333834523100000070
:10073c00464646464646464646464646464646464d
:10074c00464646464646464646464646464646463d
:10075c00464646464646464646464646464646462d
:10076c00464646464646464646464646464646451e
:10077c0046464646464646463030303030303030bd
:10078c0030303030303030304646464646464646ad
:10079c000000000046464646464646464646464605
:1007ac0046464646464646464646464646464646dd
:1007bc0046464646464646464646464646464646cd
:1007cc0046464646464646464646464646464646bd
:1007dc004646464546464646464646463030303006
:1007ec0030303030303030303030303046464646a5
:1007fc00464646430000000042333331324641370f
:10080c00453233454537453439383845303536422d
:10081c004533463832443139313831443943364521
:10082c004645383134313132303331343038384652
:10083c003530313338373541433635363339384432
:10084c0038413245443139443241383543384544d6
:10085c004433454332414546000000004646464677
:10086c00464646464646464646464646464646461c
:10087c00464646464646464646464646464646460c
:10088c004646464646464646464646464337363331
:10089c0034443831463433373244444635383141a8
:1008ac003044423234384230413737414543454376
:1008bc003139364143434335323937330000000078
:1008cc004141383743413232424538423035333773
:1008dc003845423143373145463332304144373461
:1008ec003645314433423632384241373942393851
:1008fc003539463734314530383235343241333876
:10090c003535303246323544424635353239364348
:10091c003341353435453338373237363041423749
:10092c000000000033363137444534413936323615
:10093c0032433646354439453938424639323932f4
:10094c0044433239463846343144424432383941d2
:10095c0031343743453944413331313342354630f4
:10096c0042384330304136304231434531443745cb
:10097c0038313944374134333144374339304541c8
:10098c003045354600000000534543503532315256
:10099c0031000000314646464646464646464646e7
:1009ac0046464646464646464646464646464646db
:1009bc0046464646464646464646464646464646cb
:1009cc0046464646464646464646464646464646bb
:1009dc0046464646464646464646464646464646ab
:1009ec00464646464646464646464646464646469b
:1009fc00464646464646464646464646464646468b
:100a0c00464646464646464646464646464646467a
:100a1c0046464646464646003146464646464646c5
:100a2c00464646464646464646464646464646465a
:100a3c00464646464646464646464646464646464a
:100a4c00464646464646464646464646464646463a
:100a5c00464646464646464646464646464646462a
:100a6c00464646464646464646464646464646461a
:100a7c00464646464646464646464646464646460a
:100a8c0046464646464646464646464646464646fa
:100a9c004646464646464646464643003531393577
:100aac003345423936313845314339413146393293
:100abc003941323141304236383534304545413296
:100acc004441373235423939423331354633423875
:100adc00423438393931384546313039453135367b
:100aec00313933393531454337453933374231366e
:100afc00353243304244334242314246303733354b
:100b0c003733444638383344324333344631454620
:100b1c0034353146443436423530334630300000bb
:100b2c00314646464646464646464646464646466e
:100b3c004646464646464646464646464646464649
:100b4c004646464646464646464646464646464639
:100b5c004646464646464646464646464646464629
:100b6c0046464135313836383738334246324639c5
:100b7c0036364237464343303134384637303941c4
:100b8c0035443033424235433942383839394334ad
:100b9c003741454242364642373145393133383692
:100bac0034303900433638353845303642373034f6
:100bbc003034453943443945334543423636323374
:100bcc0039354234343239433634383133393035af
:100bdc003346423532314638323841463630364269
:100bec00344433444241413134423545373745462c
:100bfc004537353932384645314443313237413245
:100c0c004646413844453333343842334331383522
:100c1c003641343239424639374537453331433220
:100c2c0045354244363600003131383339323936a5
:100c3c00413738394133424330303435433841350c
:100c4c0046423432433744314244393938463534dc
:100c5c0034343935373942343436383137414642f9
:100c6c0044313732373345363632433937454537d9
:100c7c0032393935454634323634304335353042e5
:100c8c0039303133464144303736313335334337dd
:100c9c0030383641323732433234303838424539c5
:0c0cac00343736394644313636353000d6
:020000040000fa
:100cb8002de9f04fadf5f15d85b04b68012b00f0e3
:100cc80088828146884692460b68002b00f0848211
:100cd8000268002a00f08382002b03dd8b6813f082
:100ce800010f50d00df5e050083008f018fe0df552
:100cf800cf5008f014fe0df5bd50183008f00ffe67
:100d08000df5ac50103008f00afe0df59b50083078
:100d180008f005fe0df58a5008f001fe41464846e8
:100d280008f08cfab0f1ff3f40f08981d9f8003023
:100d3800002b00f057820df5e0510831404608f0cd
:100d480093fc0df5cf542146484608f08dfc00234e
:100d580063600df5bd5118310df5e050083008f00d
:100d680083fc0df5ac511031204608f07dfc0121c3
:100d78000df58a5008f09dfd0df5bd5618360df598
:100d88009b570837c9e1684608f0c9fd8aa808f0ea
:100d9800c6fd0df58a6008f0c2fd0df5cf6008f0bc
:100da800befd0df50a6008f0bafd0df6c82008f082
:100db800b6fd0df54f6008f0b2fd0df6187008f09d
:100dc800aefd6a464146484607f00afe83460028bb
:100dd80040f07f818aa9404608f046fc009b002b22
:100de80009dd8a9b002b06dd029b8c9a134313f0c6
:100df800010f00f01e810df58a61684608f034fc89
:100e08000df5cf618aa808f02ffc01210df50a60c5
:100e180008f04ffd01210df6187008f04afd1de09d
:100e28000df50a628aa9104607f04cfe8346002891
:100e380040f04f810df6c8226946104607f08cfe37
:100e48008346002840f045810df50a61084606f002
:100e5800c5fc0df6c821084606f0c0fcddf8503484
:100e6800002b1cddddf8583413f0010f17d10df5f8
:100e78008a61084606f0b2fcddf8a038002b04ddd4
:100e8800ddf8a83813f0010fcad1ddf8c83a002bf5
:100e9800daddddf8d03a13f0010fd5d0c0e7ddf880
:100ea8007836002b04ddddf8803613f0010f70d0a2
:100eb8000df5cf610df58a6008f0c0f9b0f1ff3f7c
:100ec8007fd00df58a620df5cf61104607f044fe1c
:100ed8008346002840f0fd800df50a620df54f614c
:100ee800104607f039fe8346002840f0f2800df6e0
:100ef800c8220df61871104607f02efe834600280a
:100f080040f0e780ddf85034002ba7d101210df522
:100f1800cf6008f065f80446002840f08d80002571
:100f280029460df54f6008f05bf8b0f1ff3f67d137
:100f38000df54f624146104607f0c4fd8346002870
:100f4800eed0c6e00df54f628aa9104607f0bafd4b
:100f58008346002840f0bd800df618726946104699
:100f680007f0fafd8346002840f0b3800df54f6185
:100f7800084606f033fc0df61871084606f02efcfc
:100f8800ddf87836002b93ddddf8803613f0010f9d
:100f98008ed10df5cf61084606f020fcddf8f03c57
:100fa800002b04ddddf8f83c13f0010fcad1ddf8a1
:100fb800183f002bdaddddf8203f13f0010fd5d004
:100fc800c0e70df5cf620df58a61104607f0c4fd44
:100fd800834600287dd10df54f620df50a61104654
:100fe80007f0bafd8346002873d10df618720df686
:100ff800c821104607f0b0fd8346002882d068e07b
:1010080041460df54f6007f017fab0f1ff3f09d0e0
:101018000df54f624146104607f09efd83460028b5
:10102800eed056e051460df54f6008f01dfba34683
:101038004fe04ff0ff3b4ce04ff0ff3b49e00df530
:10104800cf524146484607f0cbfc8346002840d1a2
:101058000df5cf596ae63a460df5e05108313846a4
:1010680007f07afd8346002869d032e00df5ac53cd
:1010780010331b68002b32dd0df5ac5310339b6821
:1010880013f0010f2bd10df5ac5510350df58a5421
:101098000ae02146204606f0a1fb2b68002b1edd46
:1010a800ab6813f0010f1ad12946284606f096fbc3
:1010b8002368002beddda36813f0010fe9d0224669
:1010c8000df5e0510831204607f046fd834600281b
:1010d800dfd058460df5f15d05b0bde8f08f0df590
:1010e800ac511031304608f0a9f8b0f1ff3f2bd0d1
:1010f80032460df5ac511031304607f02dfd8346d0
:101108000028e6d13a460df58a51384607f024fd05
:1011180083460028ddd1336853b33368002ba5dd3f
:10112800b36813f0010fa1d13146304606f056fbe3
:101138003b68002b03ddbb6813f0010f8bd13946e8
:10114800384606f04bfbe8e70df5ac521032314655
:10115800104607f001fd83460028bad10df58a52e2
:101168003946104607f0f8fc83460028d3d0b0e78c
:1011780001210df5ac50103007f032ff8346a0bbbb
:10118800d9f804500df58a546368012b07d122461b
:101198004146204607f096fc0028f5d099e74146dd
:1011a8000df58a5007f048f9b0f1ff3f09d00df569
:1011b8008a524146104607f0cffc0028efd08346fc
:1011c80087e751460df58a5008f04efacaf80450e0
:1011d8007fe74ff0ff3b7ce74ff0ff3b79e74ff0ad
:1011e800ff3b76e74ff0ff3b73e74ff0ff3b70e7bd
:020000040000fa
:1011f8002de9f04f2ded028b97b092ed007b0e9309
:101208000b680693d1e9016307930b690f900b9163
:101218001493cd680022002351ec170b8ded027b4f
:1012280007f086ff48b9069b580739d4069b13f088
:1012380008030c9336d0202306e0dde9022181f073
:101248000043cde902232d232b70079b03f1ff3bbd
:1012580001230c93dde9022121f000430c99691860
:101268000d914d4900208b4208bf82421dd10e9b33
:101278000d98413b192b94bf4849494908f0edfbab
:10128800474808f0a1fb069b00930246079b0f986e
:10129800294606f043fd17b0bdec028bbde8f08f80
:1012a8002b23d1e7ddf81cb0d4e7994208bf904260
:1012b8000ad20e9b0d98413b192b94bf39493a49e4
:1012c80008f0cbfb3848dce700220023dde9020107
:1012d80007f09aff9fed2e7b8ded047b68b3002409
:1012e8000e9808f0a6fb002ec3b20a93c0f2d7816d
:1012f800672b61d1002e08bf0126231d02dbb442f3
:10130800c0f2c681652768e0cde90489013400226e
:10131800264bdde9040104f07ffddde90223804668
:10132800894607f0e9fe0028eed00027dff8808024
:10133800dff880a04ff000091ee00446e7e74445c7
:1013480011da87b94a465346dde9020104f064fd23
:101358004a46cde902015346dde9040104f05cfd8b
:10136800cde904010127dde9040100220f4b03f058
:10137800f1f9cde90401013cdde90423dde90201cd
:1013880007f0d6fe0028dad1aae700bfaff3008045
:10139800000000000000f03f0000f07f009a00000d
:1013a800049a0000089a00000c9a000000002440eb
:1013b800d4feffff000050430a9f662f06f1010686
:1013c8000bd1002c04da9fedba7b8ded047b002451
:1013d8000a9b672b18bf361966279ded027bdde94e
:1013e80004898ded087b4ff0000a42464b46dde943
:1013f800080103f0aff941ec100b05f001fd51ecc9
:10140800100bb0ee408af0ee608a07f035fbb0eec4
:10141800480af0ee680a089b1093099b159083f020
:101428000043119349ec118b9ded102b08f04ef8f9
:1014380053ec102b83f000430993404649460022a1
:101448009d4b8ded080a03f085f90af1010a56450e
:1014580080468946c9d10022984b04f0ddfc8046bd
:10146800894602460b46dde9080107f061fe48b9e6
:1014780042464b46dde9080107f0c6fe30b1159b30
:10148800d90703d44ff000084ff0000942464b46f5
:10149800dde9020102f026fd0022cde90201864bba
:1014a800dde9040104f0b8fcdde90223cde9080117
:1014b80007f03efd00286dd0662f04f101046dd1c0
:1014c8000136a146a9eb06031093069b0c9e4ff02c
:1014d800000803f01003cdf810801593109b994570
:1014e800b24604d00b9b1b69053bb3425cd8049bf6
:1014f80033b9069bda0642bf2e2305f80a300136b7
:101508000022652f05eb0600aa5529d1149b1499d2
:10151800013b9442ea54c1f1030ebcbf644201226c
:101528000a21002c40f0a5800eeb030cbcf1000f43
:1015380000f39f80002a03f1ff3114bf2d222b22d4
:101548006a540e9a413a023b192a98bf45279e428f
:1015580005eb0301ef54abf1020b01da08f07dfa59
:10156800069b03f00303022b12d1bbf1000f0fdd22
:10157800284608f029fa05eb0b030c9a824240f33f
:1015880083805a4630210d9808f016fa00230793f5
:10159800284676e69ded047b8ded087b652f14bf0c
:1015a800a1464ff000098de7dde90823dde90201d6
:1015b80003f0d0f841ec100b05f022fc51ec100bb5
:1015c800b0ee408af0ee608a07f056fa159b0343a6
:1015d8002ad10a9b672b27d1b9f1000f31da08f11c
:1015e800010a029b1293039bb0ee480af0ee680ac8
:1015f80083f0004313939ded081b9ded122b07f01c
:1016080065ff53ec102b83f000430393dde90801d9
:101618000022294b8ded020a03f09cf809f1ff39ed
:10162800cde90801d04659e7049b53b9b9f1000f39
:1016380007da2e2305f80a30012301360bf1ff3ba8
:1016480004933246ab19c24605e04ff0300103f867
:10165800011b0af1ff3abaf1000ff6d10bf1ff3383
:101668000136a3eb080b4644a844303008f80200c2
:10167800b7e7b4fbf1fc013b01fb1c443034ec54ec
:101688000bf1ff3b64464ce72a5c1a54013874e7b7
:10169800002cbff6a1ae66278fe606262de60a9b2c
:1016a800672bfad01f46062687e600bfaff30080f7
:1016b800000000000000f03f00002440000014403b
:020000040000fa
:1016c8002de9f04f93b01d460b680593d2e900aba6
:1016d8004b680c938b6808930b690f900d93cc683b
:1016e800002200235046594607f022fd40b9059bc9
:1016f8005e0733d4059b13f0080731d0202303e09d
:101708008bf000439b462d232370089b01275e1e08
:10171800dff8f4922bf000434ff000084b45a5f199
:10172800410108bfc24504eb070009911ad1099b82
:10173800192b04eb070094bfad49ae4908f08df9a9
:10174800ac4808f041f9059b00930246089b0f98a6
:10175800214606f0e3fa13b0bde8f08f2b23d3e758
:10176800089ed5e7994508bfd04508d2099b192b93
:1017780094bfa149a14908f070f9a048e1e73022d7
:101788000270099a7b1c1a2a34bf58227822e25424
:1017980050460022002359460237023e07f034fd26
:1017a800002800f078819fed907b8ded027b00256d
:1017b8009ded027b0c9b8ded0a7bcde906ab002be2
:1017c800acbf99464ff018094ff00008dde90a232d
:1017d800dde9060102f0beff41ec100b05f010fb3d
:1017e800dde90a2351ec100b8ded100b04f014fb0e
:1017f80002460b46dde9060108f0c6f9804bcde943
:1018080006010022dde90a0104f006fb08f10103e4
:101818000e930c9b002bcde90a0106da0022002367
:10182800dde9060107f0f0fc28b9c14500f339816c
:1018380009f101030e930022724bdde90a0104f05d
:10184800ebfa8046894602460b46dde9060107f0b9
:101858006ffc60b942464b46dde9060107f0d4fc4f
:1018680048b1dde9100107f007f9c00703d44ff0cc
:1018780000084ff0000942464b465046594602f0d0
:1018880031fbcde90601dde9062121f000435e497f
:1018980000208b4208bf82423ff449af4ff0000955
:1018a800b846cb46ca460d9b053b434533dddde9cb
:1018b8000223dde9060102f04dff41ec100b05f0b3
:1018c8009ffa51ec100b8ded0a0b07f0d5f80028a4
:1018d80040f0ea80baf1000f00f0e68009f1010952
:1018e800dde90223dde90a0104f096fa02460b4617
:1018f800dde9060108f048f9414bcde9060100226f
:10190800dde9020104f088fa0e9b0af1010a534549
:10191800cde90201c7d1bbf1000f1dd104eb0803cb
:10192800b9f1000f00f004810c9a002a40f30081fd
:10193800059ad10700f1fc802e221a7009eb0802e3
:101948002244302103f8011f9342fbd1c8446feab7
:10195800090908f101084e440d9b0d990022013b2d
:10196800954204f80820c1f1020ee25404eb080085
:10197800bcbf6d4201220a21002d40f0cb800eeb46
:10198800030cbcf1010f00f0c580002a03f1ff3100
:1019980014bf2d222b226254099a023b1a2a34bf03
:1019a80050227022984504eb0301e25401da08f052
:1019b80054f8059b03f00303022b12d1b51e002d2a
:1019c8000fdd204608f000f8013e2044031b9f422b
:1019d80040f3aa802a463021e01907f0edff0023e2
:1019e80008932046ade600bf000000000000f03f6d
:1019f800f0990000f4990000f8990000fc990000a3
:101a08000000b03f000020400000f07fcde90289cf
:101a18000135dde902231046194602f063fa8046d3
:101a2800894602460b465046594607f081fb002876
:101a3800ecd0dff820914ff00008dde90223504692
:101a4800594607f075fb00283ff4b2ae0022404b20
:101a5800dde9020104f0e0f90022002307f0d4fbdd
:101a680078b142464b46dde9020104f0d5f9424619
:101a7800cde902014b465046594604f0cdf982465d
:101a88008b46dde902010022314b04f0c5f9013d26
:101a9800cde90201d1e79fed2c7b05468ded027b58
:101aa800b7e7ddf8388091e6bbf1000f0ad1baf14b
:101ab800000f07d02e2304f80830013e08f1010872
:101ac8004ff0010b434604eb08014a4604e04ff08f
:101ad800300c01f801cb013a002af8d1099a0928fb
:101ae80008f1010806f1ff36d4bf30305730192a03
:101af800c8444b44a6eb090608d840f02002613ad6
:101b0800192a03d8109307f09bff109be0544ff05d
:101b18000009e5e6b5fbf1fc013b01fb1c5530353e
:101b2800e554013e654627e710f8013983554de72e
:101b3800059ad2067ff510af2e2208f101081a7017
:101b48000ae700bfaff30080000000000000f03f8c
:081b58000000e03f00005043d3
:020000040000fa
:101b60002de9f04fadf5c15d83b080460f4691463b
:101b700004930df5c25310331e680df5c253143390
:101b80001c689cad9b9528220021284607f018ff71
:101b9000a6abab610523eb61b8f1000f00f08f81bc
:101ba000002f00f08f81b9f1000f00f08e81002e20
:101bb00000f08e81002c00f08e810023336060687d
:101bc00007f0a7fe8246012840f0888107ad069500
:101bd00028220021284607f0f3fe11abab61012358
:101be000eb61082206a9206905f074f90546002872
:101bf00040f0e281404607f053ff28b16ff07805ce
:101c0000069805f07cfbd7e1384607f049ff00282d
:101c1000f4d1069bd968404607f072ffb0f1ff3f50
:101c200000f090814ff0ff35eae700231a4619468d
:101c3000204602f04dff0546002800f09781bbe1e9
:101c40009b9bd86807f080ff8346049bb0ebc30fd3
:101c500080f0c581c31d0493da0849460df556602e
:101c600007f05aff002840f06b81049b23f0070324
:101c70005b4507d90bf00701c1f108010df556606e
:101c800007f06aff0023019300930df688730df5aa
:101c90008d5210320df59e5118310df5b05007f0f0
:101ca000d1f8002840f04281606907f04bf8814686
:101cb000606907f047f88346002800f03281b9f1e7
:101cc000000f00f029819b9b0df59e521832d968b8
:101cd000384607f031ff0546002840f02e819b9ad8
:101ce0000df58d531033d2680df59e5118310df559
:101cf000566007f019ff0546002840f00a819b9abc
:101d00000df68873d2680df59e511831404607f0e4
:101d10000bff0546002840f0f9804f469b9b494643
:101d2000186907f0b8fe0546002840f0ec809b9b40
:101d300009f50a71586907f0aefe0546002840f023
:101d4000df80012109f58a6007f0affe0546002813
:101d500040f0d380594604f1180007f09cfe054678
:101d6000002840f0c7800bf50a7104f5107007f0e9
:101d700092fe0546002840f0ba800bf58a6104f512
:101d80008d6007f088fe0546002840f0ad800023f6
:101d900011930df58d50103007f082fe002876d19a
:101da0009b9a9368616902910021019152680092a7
:101db0004a4649460df58d50103004f00dfd05469c
:101dc00098b3002d40f0fe809b9b0df5b052d96872
:101dd000384607f0adfe054640b941460df5b05016
:101de00007f08efe10b9012232600546616948464f
:101df00007f02cfc6169584607f028fc0df5566089
:101e000007f044fe0df5b05007f040fe0df59e5072
:101e1000183007f03bfe0df58d50103007f036fe00
:101e20000df6887007f032fec3e09b9a93686169f3
:101e3000029100210191526800925a4659460df6ce
:101e4000887004f0c9fc05460028bad19b9b11a9f3
:101e5000586807f091fe05460028b2d19b9a936816
:101e60000021029111990191526800924a46494617
:101e7000584603f073fb0546002d40f0a3809b9b62
:101e8000119a5968484607f0f2fd054699e79b9a72
:101e900093686169029100210191526800924a465b
:101ea00059460df6887004f097fc0546002888d145
:101eb0009b9b11a9586807f05ffe0546dce76ff0b1
:101ec000a90579e06ff0a90576e06ff0a90573e048
:101ed0006ff0a90570e06ff0a9056de06ff0a9053e
:101ee0006ae06ff07c0567e0cdf814a051e0cdf812
:101ef00014a04ee0cdf814a04be0cdf814a048e0bb
:101f0000cdf814a045e0cdf814a042e0cdf814a01f
:101f10003fe0cdf814a03ce0cdf814a06ff07c05b4
:101f200037e0cdf814a06ff07c0532e005954ff056
:101f3000000bd9466ff07c052be0cdf814a028e00b
:101f4000054623e0069bd968384607f0d9fd83464d
:101f5000451c18bf4ff0ff35069805f0d0f9bbf1ce
:101f6000ff3f29d12368032b3ff45fae0df5566088
:101f700007f071fd05900028b3d13b229ba9206991
:101f800004f0a8ff054600283ff45aae4ff0000bbe
:101f9000d9466169484607f059fb6169584607f020
:101fa00055fb0df5566007f071fd059b002b7ff486
:101fb00029af9b9805f0a3f928460df5c15d03b044
:101fc000bde8f08f6169484607f040fb61695846fb
:101fd00007f03cfb0df5566007f058fd12e7049a38
:101fe00049460df5566007f097fd00283ff44aaecc
:041ff0000546cbe7f0
:020000040000fa
:101ff4002de9f04fadf2644dddf88874002800f04f
:1020040021820e4615469a468046002900f01d821c
:10201400002a00f01d82002f00f01d82914204bfaf
:1020240006469046002201920092134604a98ea807
:1020340006f006ff044620b120460df2644dbde8cb
:10204400f08f06f50a798eaa4946384607f04afd0c
:10205400044630b18ea807f017fd04a807f014fd5c
:10206400eae7444603963146404607f047fd002818
:1020740000f059812946204607f00bfd044600284c
:10208400e8d105f50a7a514608f50a7007f001fd12
:1020940004460028ded105f58a6b594608f58a60a6
:1020a40007f0f7fc04460028d4d106f58a663046ca
:1020b40007f0f4fc002800f065818ea9584607f06b
:1020c40051fd04460028c5d1ddf88c2439468ea87c
:1020d40007f04cfd04460028bcd104aa8ea903983d
:1020e40007f01cfd04460028b4d1ddf88c243946e1
:1020f40004a807f03bfd04460028abd18eaa114684
:10210400584607f00bfd04460028a3d1ddf88c24c3
:1021140039468ea807f02afd044600289ad18eaad3
:102124001146484607f0fafc0446002892d1ddf82f
:102134008c2439468ea807f019fd0446002889d15d
:1021440053463a468ea9504607f0d0fc0446002870
:1021540080d18eab3a461946184607f0cbfc0446ac
:1021640000287ff477af8eab3a465146184607f005
:10217400c1fc044600287ff46daf2b463a4604a9ff
:10218400284607f0b3fc044600287ff463af04ab91
:102194003a461946184607f0adfc044600287ff479
:1021a40059af04ab3a462946184607f0a3fc044647
:1021b40000287ff44faf304607f070fc002800f091
:1021c4002d815a462946584607f0a8fc04460028a3
:1021d4007ff440afddf88c243946584607f0c6fc3e
:1021e400044600287ff436af8eaa2946104607f02d
:1021f40095fc044600287ff42dafddf88c24394685
:102204008ea807f0b3fc044600287ff423af2946c8
:10221400284607f0a7fc044600287ff41bafddf82e
:102224008c243946284607f0a1fc044600287ff494
:1022340011af04aa2946104607f070fc0446002892
:102244007ff408afddf88c24394604a807f08efc2f
:10225400044600287ff4feae8eaa2946104607f0f5
:102264005dfc044600287ff4f5aeddf88c24394685
:102274008ea807f07bfc044600287ff4ebae2946c9
:10228400504607f06ffc044600287ff4e3aeddf807
:102294008c243946284607f069fc044600287ff45c
:1022a400d9ae2b463a4604a9284607f01ffc04463b
:1022b40000287ff4cfae04ab3a462946184607f00f
:1022c40015fc044600287ff4c5ae04ab3a46294603
:1022d400184607f00bfc044600287ff4bbae04aaa2
:1022e4005146104607f01afc044600287ff4b2aeab
:1022f400ddf88c24394604a807f038fc044600288d
:102304007ff4a8ae53463a468ea904a807f0eefb24
:10231400044600287ff49eae52463946504607f0e4
:102324002dfc044696e606f58a6b584607f0c0fb7a
:1023340000283ff49fae594608f58a6007f0defb9b
:1023440000287ff497ae08f50a7b4946584607f003
:10235400d5fb30b18ea9584607f0d0fb00287ff496
:1023640089ae8ea807f090fb04a807f08dfbddf87a
:102374008c3400933b4652462946404601f03efbce
:10238400044659e68ea9304607f0ecfb04460028c3
:102394007ff460aeddf88c2439468ea807f0e6fba6
:1023a400044600287ff456ae2a4629468ea807f034
:1023b400b5fb044600287ff44daeddf88c24394685
:1023c400284607f0d3fb044600287ff443ae8eaac8
:1023d4001146304607f0a2fb044600287ff43aaecb
:1023e400ddf88c2439468ea807f0c0fb044600288b
:1023f4007ff430ae524651468ea807f08ffb044658
:1024040000287ff427aeddf88c243946504607f0c7
:10241400adfb044600283ff450ae1be65a46314655
:10242400584607f07bfb044600287ff413aeddf822
:102434008c243946584607f099fb044600283ff49b
:10244400c0ae07e66ff0a904f6e56ff0a904f3e562
:0c2454006ff0a904f0e56ff0a904ede5bd
:020000040000fa
:102460002de9f04fadf6fc2d0c68002c00f0ba8180
:10247000039302920191834605f0e2ffb0f1ff3f22
:1024800044d00df50d6007f04efadbf80030cdf8c2
:10249000d03896a807f047fa0ca807f044fa594636
:1024a0000df5d56007f0d8f9019c21460df5906037
:1024b00007f0d2f9dbf80430049363680593002336
:1024c000cdf88434cdf8ac360df5906007f0b7f94f
:1024d000434200f01f0003f01f0358bf58421e285c
:1024e00028dcc0f11f031c4606930df5d562194682
:1024f000104604f04efd0090b8b90df590622146eb
:10250000104604f046fd0090b0b10ee0039b1bb1f5
:102510001946584607f0acf8029b002b00f0668184
:10252000184607f000fa0023009300980df6fc2de2
:10253000bde8f08f00230693ddf8a846ddf880a4ff
:10254000a4eb0a0631460df5906005f0bff8009047
:102550000028ead10df50d650df590610df5d560fa
:1025600006f070feb0f1ff3f10d0b21c55f82230db
:10257000013345f822300df5d5620df59061104616
:1025800006f0eefa0028e7d00090cee731460df5d0
:10259000906005f0dbfd544540f3ab80651e0af109
:1025a000ff36cdf820a0631ca3eb0a030df50d62e6
:1025b00002eb83090df5d56303eb840307960df554
:1025c0009068cdf82880cdf82cb09b465ae04ff0ab
:1025d000ff33c9f8003068e000230e93012d18bfc7
:1025e000002329d00f937b68109303230c930ca92d
:1025f00096a805f025ff012820d12368013b236020
:1026000096a807f090f9002eccbf58f82a30002386
:102610009893b31c58f8233099930223969396aa63
:102620002168104604f01bfb002840f0e280012dd9
:10263000d2dd57f8043c0e933b68d3e796aa216895
:102640000a9804f00cfb002840f0d580099996a860
:1026500005f03cf8002840f0d0800df5d56296a931
:10266000104606f07dfa002840f0c980ddf8ac364f
:10267000012b24d0013da9f10409abf1040b079b08
:102680009d4234d0ddf8a836ab42f3db5f46dbf881
:102690000410b31c58f82320914298d00023dbf893
:1026a000000006f079fec9f80000089beb1a0993b8
:1026b0004c46d9f800300133c9f800309de796a99f
:1026c0000a9806f0d5ff099996a804f0ffff0028a4
:1026d00040f097800df5d56296a9104606f0f6f900
:1026e000002840f090802368013b2360c2e7ddf8ba
:1026f0002cb0ddf8a8360bb1dbf80430cdf8ac36e1
:10270000029b63b3ddf8d028002a00f08680531eb8
:10271000511c0df50d6050f8211081b90df6f8210e
:1027200001eb8202a2f5097200e00346002b71d092
:10273000581e52f8041d0029f7d0cdf8d038ddf826
:10274000d438cdf8d438029c21460df50d6006f042
:102750008fff049b059a9b1a18bf01236360039b9c
:10276000002b3ff4e2ae00230df5d562069910462a
:1027700004f01cfd019b1b68ddf8a82693420edacd
:102780000df6f82101eb8303a3f589630df5d661fe
:1027900001eb8201002043f8040b8b42fbd1002a9d
:1027a00036d0531e511c0df5d56050f8211079b963
:1027b0000df6f82101eb8202a2f24c4200e0034642
:1027c0001bb3581e52f8041d0029f8d0cdf8a836c6
:1027d000ddf8ac36cdf8ac3603990df5d56006f0d2
:1027e00047ffa2e64ff0ff3300939ee600230093dd
:1027f0009be6009099e6009097e6009095e60090a1
:1028000093e6009091e600908fe60023cdf8a8367d
:0e281000009bdfe70023cdf8d038009b91e756
:020000040000fa
:02281e00fee7d3
:020000040000fa
:102820002de9f04fadf27c4d0d464b6d1b691c68d8
:10283000c54e304607f02af96b6d1b691022d96826
:10284000304602f061fce4b2231d194602930027d2
:102850000097234606f108028946bc4806f09df819
:10286000bb4e264404f10c023946304607f0a8f866
:1028700006eb040808f10c0b44223946584607f0d1
:102880009ff84fea490a5246394608f1500007f0ce
:1028900097f830223946af4807f092f8dff8c08247
:1028a000d8f800304ff480725a80d8f800301a7986
:1028b00002f0fe0267f3c3021a71a7b29f824ff4bf
:1028c00080521a8207eb020909f10409a3f8129059
:1028d00007f608025600de8206f144029a8350226f
:1028e0001a70d8f800004cf2010303819a4b984704
:1028f000d8f800301b892bb1984640460df27c4d2c
:10290000bde8f08f30220021924807f059f88e4838
:1029100007f0bcf86b6d1b691022d9698a4802f078
:10292000f3fb0beb04030c33aaf1080a05930aeb43
:102930000301069101f10803039303eb040a0af172
:10294000040a4ff00008cdf800802346834a02991c
:10295000504606f022f87c4807f098f86b6d1b692a
:102960001022196a784802f0cffba2440af1040a47
:10297000cdf800802346794a0299504606f00df8ba
:102980004ff0010c8df877c4a2440af1040acdf887
:10299000008001230df277420299504605f0fdffb9
:1029a000694807f073f86b6d1b69102299696648d6
:1029b00002f0aafbcdf800802346684a02995846e7
:1029c00005f0ebff604807f061f86b6d1b691022a2
:1029d00019695d4802f098fba2440af1040a0aeb67
:1029e000040b0bf1040b0beb0403043304931819d1
:1029f000011d0846cdf800802346584a02990790e9
:102a000005f0cbff6a6d9369cdf800809b00203202
:102a10000299504605f0c1ff6a6dd2f84032cdf8f8
:102a200000809b0002f51272ddf808a0514658465e
:102a300005f0b3ff6a6dd2f86834cdf800809b00d2
:102a400002f58e625146049805f0a7ffeb6c4ff03b
:102a5000010ccdf800c0a34228bf2346aa6c514602
:102a6000039805f09aff0df5137c604607f00ef809
:102a70000df1240c604607f009f809ab93aa696cc4
:102a8000286c04f0c3ff804600287ff436af939b88
:102a90004ff0000bcdf800b09b0095aa5146059869
:102aa00005f07bff099b0698001bcdf800b09b004a
:102ab0000baa5146043005f070ffe200079820444d
:102ac0002c325946043006f07bff254c2368a3f8ce
:102ad00002b0226857844ff480539382a2f8169074
:102ae00007f2044307eb83003b1803f1180111823e
:102af000568207eb47010b449bb2194489b201f19e
:102b0000300ca2f81cc024331383978400f1140303
:102b1000d38307f10c033344538334370f441784b2
:102b20005523137020684cf2010303810d4b984725
:102b300023681b89c3b148f20202934203bf2b6d85
:102b400000221a609846d8e608040020001001020e
:102b500004100102980a002009000002100400205d
:102b60003c0800202d0000022b6d01221a60c4e6f3
:020000040000fa
:102b70002de9f04fcbb0a0f1040a41aa009200f178
:102b80001c040194534653f8040f42f8040fa34267
:102b9000f9d104390df1080912a84b4651f8042f58
:102ba00043f8042b8342f9d109f1c0004a46154687
:102bb000916b52f8044f4feaf14383ea714383ea81
:102bc0009123696a2d6829440b444feab44181ea94
:102bd000f41181ead4010b44d3638242e7d1ddf8da
:102be00024e1459addf820c14499479f4398469bcc
:102bf000429cdff88482d346ca46c1464feaf32599
:102c000085eab31585ea7368d9f80050daf80060f0
:102c1000354445448cea07061e4086ea0c063544d6
:102c2000ae4472444fea743585eab40585eab4557a
:102c300044ea00060e4004ea000846ea0806354465
:102c4000ae44d9f80450daf804603544654483eaa8
:102c5000070c0cea020c8cea070c65444feaf22cd4
:102c60008ceab21c8cea726c654401eb050c4feaed
:102c70007e3181eabe0181eabe514eea0406064079
:102c80000eea040846ea080631442944d9f80850f7
:102c9000daf8086035442f4483ea020505ea0c059a
:102ca0005d402f444feafc2585eabc1585ea7c652a
:102cb0002f4400eb07084fea713080eab10080ea48
:102cc000b1504eea010525400eea0106354328447d
:102cd0003844d9f80c50daf80c6035442b4482eab9
:102ce0000c0505ea080555402b444feaf82585ea0e
:102cf000b81585ea78651d4466194fea703383ea92
:102d0000b00383eab05341ea000404ea0e0401ea86
:102d100000073c4323442b44d9f81040daf8105004
:102d20002c4422448cea0804344084ea0c042244f3
:102d30004feaf62484eab61484ea76641444a6447e
:102d40004fea733282eab30282eab35240ea0305e1
:102d50000d4000ea03073d432a442244d9f81440b9
:102d6000daf814502c44644488ea060c0cea0e0c81
:102d70008cea080c64444feafe2c8ceabe1c8ceaf8
:102d80007e6c644401eb040c4fea723181eab201bb
:102d900081eab25143ea0205054003ea02073d43d6
:102da00029442144d9f81840daf818502c44a0449a
:102db00086ea0e0404ea0c047440a0444feafc24a2
:102dc00084eabc1484ea7c64a04400eb08074fea60
:102dd000713080eab10080eab15042ea01041c403f
:102de00002ea01052c4320444044d9f81c40daf89b
:102df0001c502c4434448eea0c063e4086ea0e06f3
:102e000034444feaf72686eab71686ea7766264400
:102e100033444fea703484eab00484eab05441ea9f
:102e20000005154001ea000845ea08052c44344431
:102e300009f120090af1200a0e4da9457ff4deae02
:102e4000da46cdf824e14693cdf820c14797429465
:102e5000439044914592009a01985af8043f52f8e1
:102e6000041f0b44caf800308245f6d100204bb055
:0c2e7000bde8f08fdc660000dc650000af
:020000040000fa
:102e7c002de9f04fadf2944d0f46cb6b1b691c78ce
:102e8c00b34d284606f0fcfdfb6b1b691022d9687c
:102e9c00284602f033f9261d4ff00008cdf80080cb
:102eac00234605f108023146aa4805f070fdaa4deb
:102ebc00254404f10c024146284606f07bfd2544ce
:102ecc0005f10c03039344224146184606f072fdab
:102edc007200414605f1500006f06cfd302241466f
:102eec009e4806f067fddff880a2daf800304ff458
:102efc0080725a80daf800301a7902f0fe0268f318
:102f0c00c3021a71a5b29d824ff480521a8205eb4e
:102f1c00020909f10409a3f8129005f608084fea12
:102f2c004808a3f8168008f144029a8350221a70bc
:102f3c00daf800004cf201030381894b9847daf868
:102f4c000030188918b10df2944dbde8f08f302285
:102f5c000021824806f02efd7d4806f091fdfb6baa
:102f6c001b691022d9697a4802f0c8f84ff0000aa0
:102f7c00cdf800a023467b4a3146ddf80cb058460c
:102f8c0005f005fd724806f07bfdfb6b1b691022fa
:102f9c00196a6f4802f0b2f85b46234404331846b2
:102fac000793cdf800a023466e4a3146834605f0c0
:102fbc00eefc4ff001038df88f34a3440bf1040b9e
:102fcc00cdf800a001230df28f423146584605f092
:102fdc00defc5f4806f054fdfb6b1b6910229969ff
:102fec005b4802f08bf8a3440bf1040b0beb0403ce
:102ffc000433049323441a1d05921019011d08462d
:10300c00cdf800a02346574a3146069005f0bffc88
:10301c004f4806f035fdfb6b1b69102219694c48b3
:10302c0002f06cf8cdf800a023464e4a31465846c3
:10303c0005f0adfcfa6bcdf800a0234602f5d36287
:10304c003146049805f0a3fc0df27443184606f0c3
:10305c00e3fbdff81cb1224659460df274431846c7
:10306c0003f002f8cdf800a023465a4631460598e5
:10307c0005f08dfc069800eb040b0bf1040bfb6abe
:10308c0001220092a34228bf2346ba6a3146584611
:10309c0005f07dfce2000beb04002c3251460430b1
:1030ac0006f088fc304e32684ff480539382a2f8bd
:1030bc001690a2f8108005eb4503984405eb080325
:1030cc0003f1100111832b449bb203f114015183c2
:1030dc002b449bb203f11801518208f10c08a2f8a1
:1030ec001c802b449bb205f12001194411841c3324
:1030fc00d383558495845323137030684cf20103a9
:10310c0003811a4b98473368188900287ff41baf4a
:10311c0093a806f0b5fc09a806f0b2fccdf800a007
:10312c002346039a214695a805f031fca5089395f2
:10313c00cdf800a02346079a21460ba805f027fce2
:10314c00099509ab93aa796b386b04f062fefae629
:10315c00080400200010010204100102980a00204b
:10316c0009000002100400203c0800202900000285
:04317c00d009002056
:020000040000fa
:103180002de9f04fadb00027dff8e4a20391064629
:103190001546b8464ff0ff3903990b78002b00f025
:1031a000f9800cabcde907890a938023cdf8248000
:1031b0000b9300240b5d0bb1252b26d134b1224695
:1031c000304605f0f4fe039b23440393039b1a78d7
:1031d000252a40f0d78003f1010bcdf80cb00398fd
:1031e00003782b2b1ad025d8202b1bd0232b1dd0b6
:1031f0002a2b27d005f0fcfc0990039b1a78303a63
:10320000092a2ed801330393f7e70134d2e7079b4d
:1032100043f00103013007930390e0e7079b43f07d
:103220000403f7e7079b43f00803f3e7079b43f02a
:103230001003efe72d2bead0302bd9d1079b43f0b9
:103240000203e7e72b681a1d1b682a600130002b78
:103250000390099305da079a5b4282f00102079214
:103260000993079bda0744bf23f002030793039bec
:103270001a782e2a0dd1581ccdf8208003905a7848
:103280002a2a25d1023303932b681a1d1b682a6052
:10329000089303a805f018ff039b0190187806f027
:1032a000ccfb6928019979d032dc632800f0c68014
:1032b00019dc252800f0d080612853d025238df813
:1032c0001030cdf80cb0cdf81c80cde90898c0e0e6
:1032d00005f08efc0890039b1a78303a092ad8d85a
:1032e00001330393f7e7642858d06728e6dc2a46c1
:1032f00004a806f05af9002800f09c80039b5a1c91
:1033000003921b7804aa07a93046fdf775ff38e041
:10331000702873d015dc6e2800f087806f28cdd11f
:103320002b46002204a804f033f9002800f0828024
:10333000039b04aa013307a93046039304f095feca
:103340001fe075283ad0782848d07328b6d1802954
:1033500070d1039b2a6801330393131d2b601268fd
:1033600000235be02a4604a806f01ff9002861d07c
:10337000039b5a1c03921b7804aa07a93046fef748
:10338000a3f904443c44a7426edd384b4f221a6037
:103390004ff0ff3738462db0bde8f08f2b460122a5
:1033a00004a804f0f5f8002844d0039b04aa0133d4
:1033b00007a93046039303f0f6ffe2e72b4600220d
:1033c00004a804f0e5f8002834d0039b04aa0133d4
:1033d00007a93046039305f03bfad2e72b460022bb
:1033e00004a804f0d5f828b3039b5a1c03921b7859
:1033f00004aa07a9304602f0abfdc2e72b46002223
:10340000f02104a804f0c4f8a0b1039b0133039396
:10341000dde90423134306d10023524607a93046b1
:1034200005f0eaf9ade77823e2e72b463a1904a85c
:1034300004f0b7fc039b01330393a3e78029f9d180
:10344000039b013303932b681a1d1b682a608df8b8
:103450001030012304aae1e78029ebd1039b8df80a
:10346000100001330393f4e7274695e6640b002030
:043470001e980000a2
:020000040000fa
:103474002de9f04fd7b0d0f800b0b04b9b4500f029
:103484003c8104460f46904603238df8db30cdf88b
:10349400d4b0002a00f0358112f01f0918bf4ff094
:1034a400010909eb521900f108050df1200c00f196
:1034b400380e664628686968aa68eb680fc6103536
:1034c400b4467545f5d128683060aa88ab79b280d6
:1034d400b371b9f1000f00f32d81012536e03722d5
:1034e400514616a802f082f9054660bb694616a843
:1034f40001f082fc054616a804f041fa35bb009b96
:103504002268012a02d9626893423bd0002284f8df
:103514008020636067b1b8f1000f09d0b8f11f0fc4
:103524003fd842466946384606f0e6f94ff00008af
:1035340001364e450adae26fa16f16a804f0e4ffe3
:1035440005460028cbd016a804f019fa08aa0020d2
:103554000df15701134603f8010b1a468b42f9d1ba
:10356400002d43d0012516aa00201ea9134603f8f6
:10357400010b1a468b42f9d1281c18bf012057b001
:10358400bde8f08f94f88030012b00f0b88009f189
:10359400ff33b34208bf09f10109012384f88030e5
:1035a400b8e7ec46bce80f0038607960ba60fb60ad
:1035b400bce80f0038617961ba61fb61a8f12008a9
:1035c40020379af836300133dbb28af83630002bd4
:1035d400aed10df15602514612f8013d0133dbb272
:1035e4001370002ba4d18a42f6d1a1e7e26fa16f38
:1035f40037a804f089ff054630b137a804f0bff9b5
:10360400236801332360aee701220df1db0137a803
:1036140002f0ecf805460028efd1372204f1080146
:1036240037a802f0e3f805460028e6d116a937a822
:1036340001f0e2fb054637a804f0a1f9002ddfd123
:1036440004f13f020df177070df1580e16460021e3
:1036540000e00746384616f8013d10f801c96344f6
:103664000b443370c3f30f217745f2d161b104f1f8
:103674001f0004f1080610f8013d0b449bb20370cf
:10368400190a01d0b042f6d104f108001146002312
:1036940011f8016c91f836703e44334401f8013d51
:1036a400c3f30f238142f3d14fea1b2303f0ff132b
:1036b4004fea0b2101f0ff210b434fea33433593cb
:1036c40036ae04f13b0c002312f8011d16f8017dff
:1036d40039440b441370c3f30f239445f4d1002be6
:1036e4008ed004f13b0212f8011d0b449bb21370ff
:1036f4001b0a85d08242f6d182e702203fe70325e8
:1037040031e700f108050df1200c00f1380e664692
:1037140028686968aa68eb680fc61035b446754511
:10372400f5d128683060aa88ab79b280b3714ff0c4
:103734000108c14600260df1200afce640420f00b4
:020000040000fa
:103744002de9f04f099f154604468e461e46002b70
:1037540040f0cc808a42b2fa82fc4cd9bcf1000f12
:103764000bd0ccf1200801fa0cfe20fa08f802fa7a
:103774000cf548ea0e0e00fa0cf44fea15491ffa4c
:1037840085f8befbf9fa210c09fb1ae30afb08fbd6
:1037940041ea03439b452ad9eb180af1ff3004d2ce
:1037a4009b4502d9aaf102002b44a3eb0b03a4b25c
:1037b400b3fbf9f209fb123302fb08f844ea0344b1
:1037c400a04516d92c1902f1ff3303d2a04501d923
:1037d400931e2c44a4eb080443ea004027b124fac6
:1037e4000cf400233c607b603146bde8f08f50460a
:1037f400dbe71346eee702b9ffdebcf1000f2ed182
:103804008b1a01264fea154eaab2b3fbfef8210c1f
:103814000efb183308fb02f941ea0343994561d9c9
:10382400eb1808f1ff3004d2994502d9a8f102003f
:103834002b44a3eb0903a4b2b3fbfef10efb11333b
:103844004a4344ea0344a2424ed92c1901f1ff33fe
:1038540003d2a24201d98b1e2c44a41abce7ccf19a
:10386400200e02fa0cf521fa0ef901fa0cf320faf3
:103874000efe4eea03034fea154800fa0cf4b9fbb6
:10388400f8f11ffa85fe08fb1192180c01fb0ef6e5
:1038940040ea0242964221d9aa1801f1ff3003d22c
:1038a400964201d9881e2a44921b9bb2b2fbf8f9b6
:1038b40008fb192209fb0efe43ea02439e450fd979
:1038c400eb1809f1ff3604d29e4502d9a9f102068c
:1038d4002b44a3eb0e0346ea004693e70846e3e7ce
:1038e4004e46f6e74046a4e70b46b6e78b4206d9b8
:1038f400002f7ed00026c7e90001304674e7b3faf2
:1039040083fcbcf1000f0fd18b4201d3824209d852
:10391400841a61eb030e0120002f6dd0c7e9004e1d
:10392400002661e76046f7e7ccf1200e03fa0cf3ba
:1039340022fa0ef521fa0ef41d4301fa0cf320fad3
:103944000ef10b434fea154a00fa0cf6b4fbfaf9f0
:103954001ffa85f80afb19401c0c09fb08f144ea1c
:103964000044a14202fa0cf23fd92c1909f1ff30ac
:1039740004d2a14202d9a9f102002c44641a9bb2d8
:10398400b4fbfaf90afb194409fb08f843ea0441b9
:1039940088452cd9691809f1ff3304d2884502d926
:1039a400a9f10203294443ea0040a1eb0801a0fb6a
:1039b40002894945c2464c4602d306d1464504d243
:1039c400b8eb020a69eb05040138afb1b6eb0a03a0
:1039d40061eb040606fa0efe23fa0cf34eea030327
:1039e40026fa0cf6c7e900369ae74846c6e74b467e
:0c39f400d9e73e463846f7e63e46f5e6c9
:020000040000fa
:103a00002de9f043adf25c4d002800f02d81804699
:103a1000002900f02c81002b00f02c811d460e4661
:103a2000002201920092134602a98ca805f00afa1e
:103a3000044620b120460df25c4dbde8f0833146ce
:103a4000404606f028f8044630b18ca806f01ef86f
:103a500002a806f01bf8ede706f50a77394608f5e7
:103a60000a7006f018f804460028eed106f58a69b7
:103a7000494608f58a6006f00ef804460028e4d1ad
:103a80008ca9484606f070f804460028ddd1ddf820
:103a9000782429468ca806f06bf804460028d4d177
:103aa0004a463946484606f03bf804460028ccd141
:103ab000ddf878242946484606f05af804460028de
:103ac000c3d14b462a464946484606f015f80446f7
:103ad0000028bad102ab2a468ca9304606f008f875
:103ae00004460028b1d18cab2a463146184606f070
:103af00003f804460028a8d102aa11468ca806f0b3
:103b00000ff804460028a0d1ddf87824294602a841
:103b100006f02ef80446002897d18cab2a4602a95d
:103b2000084605f0e9ff044600288ed18cab2a46f2
:103b300002a9184605f0e0ff0446002885d13b465f
:103b40002a463946384605f0d7ff044600287ff458
:103b50007caf3946384606f007f8044600287ff463
:103b600074afddf878242946384606f001f804469b
:103b700000287ff46aaf02a9384605f0f5ff044635
:103b800000287ff462afddf87824294602a805f00a
:103b9000efff044600287ff458af02aa29461046da
:103ba00005f0eeff044600287ff44faf3a46314659
:103bb000384605f0b5ff044600287ff446afddf82f
:103bc00078242946384605f0d3ff044600287ff4c0
:103bd0003caf31468ca805f0c7ff044600287ff4af
:103be00034afddf878242946304605f0c1ff04469d
:103bf00000287ff42aaf33462a463946304605f07e
:103c000077ff044600287ff420af33462a46394622
:103c1000304605f06dff044600287ff416af3b46a2
:103c20002a463146384605f063ff044600287ff4f3
:103c30000caf3a468ca9384605f072ff04460028be
:103c40007ff403afddf878242946384605f090ff6d
:103c5000044600287ff4f9ae3b462a4602a93846be
:103c600005f046ff0446f0e66ff0a904e2e66ff0c7
:0a3c7000a904dfe66ff0a904dce60a
:020000040000fa
:103c7a002de9f04f8db008900846069105929a46b4
:103c8a00ddf86090cdf80090179b169adaf80010cc
:103c9a0005f06bf9054618b128460db0bde8f08f5e
:103caa00cdf80090179b169adaf80010084605f02e
:103cba005cf905460028efd1cdf80090179b169abb
:103cca00daf80010084605f050f905460028e3d155
:103cda0055460af11c070baeb846179c4f46286892
:103cea00029601970094169b55f8042f069901f045
:103cfa0030fc002840f0f2804545f0d10446b94630
:103d0a00089805f0d2fe00f1ff3ba04626460027a0
:103d1a0001250795059b03f50a7309930ce0b8f191
:103d2a00010f00d1f3b10136c6f1040293401c43de
:103d3a00042e23d04ff00208013d0ad1bbf1ff3f08
:103d4a0066d05946089805f0e4fc07460bf1ff3b9c
:103d5a002025fb0f7f00b8f1000fe0d1002be2d144
:103d6a009846e9e7cdf80090179b169a0598014600
:103d7a0005f0fbf80028dfd005468de7079b012bed
:103d8a0021d00426a0464c460094179b169a059803
:103d9a00014605f0eaf8002840f09c80013ef3d184
:103daa00a14608f18044083c0bab0293cdf804907d
:103dba00179b0093169b059802465af8241001f0a7
:103dca00c8fb07901ce004f18044083c059e31467c
:103dda005af8240005f05afe002877d15af8240030
:103dea00099900f50a7005f051fe002870d15af8b9
:103dfa00240006f58a6100f58a6005f047fe0790ff
:103e0a00079b002b68d11e461c464ff0010893e71a
:103e1a00b8f1020f7ff440af002e7ff73daf2f4677
:103e2a00059a02f50a78069901f50a7b02f58a6a6b
:103e3a00079bcdf814808846cdf818b09346cdf884
:103e4a001ca0aa46179d1ce0cdf800902b46169a96
:103e5a005946584605f089f880bb640014f01003ef
:103e6a000cd00bab0293cdf804900095169b5a46e2
:103e7a004146584601f06dfb034628bb0137be4256
:103e8a001ad0002be0d0640014f0100ff6d0594677
:103e9a00404605f0fbfd98b90599069805f0f6fd30
:103eaa0080b9079908f58a6005f0f0fd03460028f5
:103eba00e4d007900546efe65546ede60546ebe603
:103eca000546e9e60546e7e60546e5e60546e3e68c
:103eda000546e1e60546dfe6079ddde60546dbe643
:020000040000fa
:023eea00fee7f1
:020000040000fa
:103eec0030b591ea030f00f18280841a71eb030c58
:103efc0005d2121953eb0c03001b71eb0c0140f2b1
:103f0c00000ccff6e07c1cea430f52d0bceb410f07
:103f1c005fd90c0da4eb135e5ff0010c6cf31f5119
:103f2c006cf31f53def1200c2ad303fa0cf5401965
:103f3c0041f1000122fa0ef5401923fa0ef5694100
:103f4c0012fa0cf2cd0208d349085fea30005fea9e
:103f5c00320228bf42f001020134013c5fea500cee
:103f6c0072f1004250f1000051eb04514ff4001378
:103f7c0013eb410f38bf30bd090d0905002030bdd2
:103f8c00bef1200ebef1200f1ed223fa0ef5401901
:103f9c0041f10001cef1200c124218bf012203faac
:103fac000cf52a43cee711ea5c0f04bf0020002178
:103fbc0030bd1cea410f04bf01f00041002030bdb0
:103fcc0001f00041002030bd21f4801101eb0451bf
:103fdc0030bd004218bf41f00101bceb410f08bfde
:103fec0030bd4ff0fe4141f47801002030bd83f02c
:103ffc000043841a71eb030e07d28ef0004e001ba7
:10400c0071eb0e01121953eb0e0340f2000ccff6bc
:10401c00e07c1cea430fc6d0bceb410f72d90c0def
:10402c00a4eb135ec90241ea5051c00241f00041b9
:10403c00db0243ea5253d20243f00043def1200c80
:10404c0041d312fa0cf522fa0ef203fa0cf542eafd
:10405c00050218bf42f0010223fa0ef3801a9941af
:10406c00e30ac4f30a0411f0404f03d418d0013c06
:10407c0040004941013c23d44205c00a40ea41506a
:10408c00c90a51eac3715fea500c72f1004250f157
:10409c00000051eb045130bd01002fd00020203c1a
:1040ac000029f9d0b1fa81fcdcf1200e11fa0cf1e7
:1040bc0030fa0ef510fa0cf02943a4eb0c04d9e7f6
:1040cc000020d90730bdaef1200ebef1200f0dd26d
:1040dc00cef1200c03fa0cf533fa0ef32a4318bf79
:1040ec0043f00103c01a61f10001b9e721f000416e
:1040fc00c00a40ea4150c90a01eb045130bd00200e
:10410c00002130bd004218bf41f00101bceb410f52
:10411c007ff467afbceb430f3ff463af30bd00bf20
:020000040000fa
:10412c000d0a00000d0a456e746572656420696e97
:10413c0020426f6f74204c6f6164657220617070e7
:10414c006c69636174696f6e000000000d0a417048
:10415c00706c69636174696f6e205369676e61740a
:10416c007572652066726f6d206669726d7761720b
:10417c00653a0d0a25730d0a000000000d0a5075f2
:10418c00626c6963206b65792066726f6d2066695d
:10419c00726d776172653a0d0a25730d0a00000085
:1041ac000d0a4170706c69636174696f6e204c65a7
:1041bc006e6774682066726f6d206669726d7761c8
:1041cc0072653a20256c642042797465730d0a007f
:1041dc000d0a4170706c69636174696f6e204c6577
:1041ec006e677468206973206e6f7420696e204c42
:1041fc00696d6974732c4661696c656420746f20f9
:10420c0050726f63656564000d0a53484120494e36
:10421c004954204641494c45440000000d0a53487e
:10422c0041203235362055706461746520466169d1
:10423c006c6564000d0a5348412046494e414c20a0
:10424c004641494c454400000d0a43616c63756c52
:10425c0061746564204170706c69636174696f6e20
:10426c00204469676573742848415348293a0d0afc
:10427c0025730d0a000000000d0a454343205665c6
:10428c0072696669636174696f6e2046756e6374da
:10429c00696f6e206661696c656400000d0a41707f
:1042ac00706c69636174696f6e20566572696669ba
:1042bc00636174696f6e20697320737563636573d2
:1042cc007366756c000000000d0a77616974696e85
:1042dc006720666f7220666577207365632e206297
:1042ec0065666f7265206a756d7020746f206170e1
:1042fc00706c69636174696f6e0000000d0a417027
:10430c00706c69636174696f6e2056657269666959
:10431c00636174696f6e206973204661696c6564b2
:10432c00000000000d0a4170706c69636174696f64
:10433c006e2063616e206e6f742062652052756e04
:04434c00000000bfae
:020000040000fa
:10435000380b00201c00000000000000980a00201c
:104360003000000000000000160a002001000000dc
:10437000000000003c0800200400000000000000d5
:10438000180a00204000000000000000f80a002089
:104390002000000000000000580a0020400000003b
:1043a00000000000c80a00203000000000000000eb
:1043b000200900206000000000000000d00900205b
:1043c0004600000000000000080400202802000051
:1043d000000000005c0b0020040000000000000052
:1043e000800900205000000000000000300600207e
:1043f0000c020000000000004008002078000000cf
:10440000010000005008002048080020500800204b
:10441000000000000000000025000000080000204f
:104420000004000000000000000000000000000088
:10443000000000000000000000000000000000007c
:1044400000000000a99b0000000000000000000028
:104450000000000000000000d58500000000000002
:10446000000000000000000000000000000000004c
:10447000000000000000000000000000000000201c
:104480000804000000000000180b002020000000bd
:104490000100000001000000030000000000000017
:1044a000000000000000000000000000000000000c
:1044b000540b0020540b00200800000000000000f6
:1044c000600b00200400000000000000640b0020ce
:1044d0000400000000000000b80800206800000090
:1044e00001000000010000000300000000000000c7
:1044f00000000000000000000000000000000000bc
:1045000071850000000000000000000000000000b5
:10451000af9b00000f9200000000000000000000b0
:10452000000000000000000000000000000000008b
:10453000000000000000000000000000000000007b
:10454000000000000000000000000000680b0020d8
:104550000400000000000000000000000000000057
:020000040000fa
:104560002de9f041adf6b87d002004f02bfc6d4e36
:10457000301d05f08ff86c4f3c466c4d0fcd0fc4cd
:104580000fcd0fc40fcd0fc495e80f0084e80f00c6
:104590004ff4c878cdf8248e0df624630df628620a
:1045a0004021384605f0d3f90df6286106f12c00bc
:1045b00005f070f85e4f3c464ff41f450fcd0fc419
:1045c0000fcd0fc40fcd0fc495e80f0084e80f0086
:1045d000cdf8248e0df624630df62862402138466e
:1045e00005f0b5f90df6286106f15c0005f052f80a
:1045f000504b1d68294606f1800005f04bf86a1ef5
:104600004d4b9a4246d815a805f009fa04460028f1
:1046100045d04a4805f03ef8002c3adb00230393ce
:1046200004238df8103042494a1e04ab3f3112f882
:10463000010f03f8010f8a42f9d10df5a464204659
:1046400005f0e6f92246412104a805f015fa364d99
:104650002022294634a805f05ffa2022a918bea816
:1046600005f05afa019403ab00932023344abea903
:1046700034a8fdf775fa002839db039b012b3ad0eb
:10468000284c04f5ee7005f005f804f5017005f00e
:1046900001f8fee706f1b00004f0fcffb3e72a469c
:1046a0004ff4304115a801f0a3f8041e17db24498c
:1046b00015a804f092fd041e15db4ff4c873cdf865
:1046c000243e0df624630df6286220211c4805f0d7
:1046d0003ef90df628611b4804f0dcff9ee71a48fe
:1046e00004f0d8ff98e7194804f0d4ff94e718487d
:1046f00004f0d0ffc1e70b4c04f5be7004f0caff14
:1047000004f5d47004f0c6ff124b4ff480325a61a6
:10471000114b013bfdd10f4b4ff480329a6105f0f4
:1047200057f8b6e72c410000580a002000fb0300b0
:10473000180a002000fd0300fd4a03001442000097
:10474000f80a0020544200002842000040420000c5
:0c475000844200000080004100e1f505fb
:020000040000fa
:10475c002de9f04391ea030e0ef0004e40f20007f3
:10476c00cff6e07717ea41051ebfbd4217ea4305b5
:10477c00bd4200f09f807f0d17ea135623ea475382
:10478c0043f4801317ea115521ea475141f4801183
:10479c00ad1b05f2fd354fead31c1cf1010c4ff09b
:1047ac000047b7fbfcf77f01a2fb079c0024e3fb4f
:1047bc0007c4d9f100096ceb4c0ca0fb076200207c
:1047cc00e1fb072000275feac628e0fb0987760d8e
:1047dc0046eac226520df61900277a41e0fb0c621c
:1047ec005feac823e2fb09375fea585848eac62853
:1047fc00760d18eb070800214e41e2fb0c8602eb0c
:10480c00c020da02e6fb09215b0d43eac8235fea0c
:10481c0058585b18002758eb0708e6fb0c38d102f8
:10482c00e8fb0917520d42eac3225b0dd21900278f
:10483c007b41e8fb0c2308ebc6265feac128e3fbaf
:10484c000987490d41eac221520dc91942f10002f2
:10485c00e3fb0c12470019eb08095ceb010c72eb43
:10486c00040453ebc62047eb56530026b3f5000f58
:10487c007641ad190236d6f1200910fa09f4f04050
:10488c0013fa09f21043f340e40f001943f100034b
:10489c00b3f5001f24bf5b08013540f2fe77bd4223
:1048ac0004d24eea05511944bde8f0832d4224d5bb
:1048bc00714626e0004218bf41f00101124218bfb8
:1048cc0043f00103b7eb410f2cbfb7eb430f1be0d9
:1048dc00b7eb410f04bfb7eb430f15e017ea410fdd
:1048ec0004bf17ea430f0fe017ea410fe0d017eab5
:1048fc00430f02d0b7eb430fdad04ef0fe4141f438
:10490c0070010020bde8f08340f20001c7f6f87199
:04491c00f7e700bffa
:020000040000fa
:104920002de9f04f87b0039003a804f06bfa00283c
:1049300003da002007b0bde8f08f039b1b095d1e62
:10494000202d0fd9023b5e4ab3f5007f35bf02eb45
:10495000d30302ebd31313f8045c13f8045c34bfe5
:10496000013511350123a5f12001c5f1200203fa1b
:1049700001f923fa02f203fa05f8d8f1000849ea2e
:10498000020969eb4909cde90089dff84081dff8c8
:1049900030914746d8e90023009902ea010a0199bb
:1049a00003ea010b5aea0b0342d1039b05a810331b
:1049b000059304f098ff18b9424b0c221a60b9e72e
:1049c000d8f80852a84206d0059b103b0593012356
:1049d00000f110058360059bea18012143f00103f3
:1049e000b5f1080442f8083c42f8041cc7f8082254
:1049f00045f8043c9dd0204604f0b6fc88b155f83b
:104a0000083c55f8041c23f00103e31a5a6822f00d
:104a100001020a445a6055f8041c21f00101625059
:104a20001c462046039904f0e6fc04f1080081e7e7
:104a30005446254bbaf1000f34d1cbf1000000ea07
:104a40000b00434309ebd36393f83c6020363046b8
:104a500004f074fe731c57f8334007ebc303083ba4
:104a60009c4297d0272e26dd0235ae4201dc3f2e38
:104a700021d16268039922f00102551a284604f0f8
:104a800007fb864217d1e068a6686318d8609e606d
:104a900083609868c36041f0010060505d60a5507c
:104aa0006060bee7caf100002040434309ebd363d6
:104ab00093f83c60cbe73146204603f071feb0e747
:104ac000ec860000640b002029e66b07300600200e
:020000040000fa
:104ad0002de9f04fadf6143d04460e4690469a4639
:104ae00008ad079528220021284604f069ff12ab83
:104af000ab610523eb61a4b3b8f1000f0fd04746bb
:104b000096b1079604f5d269484604f0c9ff00281b
:104b10003bd1d4f894367bb16ff0d70537e0274608
:104b2000032347f8183bebe73b2207a9206902f073
:104b3000d1f9054658bbe5e7079bd968484604f01c
:104b4000dfffb0f1ff3f2ed06ff0d7051fe00798d1
:104b500002f0d5fb11e0b8f1000f11d10223236060
:104b60000ee06ff0ac050be06ff07c056169584614
:104b700004f06cfd5db9002ee9d02368032bead068
:104b800028460df6143dbde8f08f6ff0d705384686
:104b900004f07cff07f50a7004f078ff07f58a60df
:104ba00004f074ffe7e700230193009307f58a629e
:104bb00007f50a71384604f045f905460028e6d1a4
:104bc00000230693606904f0bdf883460028cbd02b
:104bd000079b0146186904f05eff05460028c5d111
:104be000079b0bf50a71586904f055ff054600282c
:104bf000bcd1079b06a9586804f0beff05460028f3
:104c0000b4d101210bf58a6004f04fff054628bba3
:104c1000079a93686169049100210391cdf808a077
:104c2000d1680191526800923a465946484601f0cf
:104c300054fc054610f1020f09d050b90799012321
:104c4000069a4968384600f014ff05468ee76ff073
:104c50007c056169584604f0f9fc98e7616958469b
:064c600004f0f4fc93e7f0
:020000040000fa
:104c66002de9f04fadf5157d0746099104686300ff
:104c7600872ba8bf87230693884212d0099d284612
:104c860004f04efe0795002c7add079b043304934f
:104c96004ff0000e7146f146f2463b460833089344
:104ca60014e00aa804f03cfe0aab0793ebe78b4638
:104cb60071464ff0000e50e0049b43f804bf049386
:104cc60009f10109069b4b4540f384803a684a4541
:104cd60078dc531ea9eb0304089d05eb840005eb65
:104ce6008308121b9a4273dc1b1b01334fea630cc9
:104cf6009445a8bf9446bcf1000fd8dd00eb8c0ca0
:104d06008b4671464ff0000ecdf80480cdf8149016
:104d160050f8046b019a52f804390192a6fb03235a
:104d2600cde9022312eb0b0243f1000313eb01085a
:104d36004af10009dde902451219564645eb060619
:104d460093465246534616eb080142eb03034b4487
:104d56009e446045dcd1ddf8149019f0010fabd10b
:104d66004fea6903023357f823305c460025e3fb1c
:104d76000345a3466a184af1000311469e449be781
:104d8600079b1a46069b136044bb0ee003464bb1d5
:104d9600581e52f8041d0029f8d0079a1360079b85
:104da6005b6803e00023079a1360002307984360bb
:104db6000999884201d004f058fc00200df5157db4
:104dc600bde8f08f07f1080000eb89084b46544612
:104dd6005a1c89e7079b1a46069b136006994b1ec9
:104de6004a1c079850f82220002ad8d10a460132d8
:064df60000eb8202cbe796
:020000040000fa
:104dfc00f8b5002800f0ab800446002900f0aa802a
:104e0c000d46036f13f1020f0ad00b460022114618
:104e1c0002f008fc07466ff48773984240f09580c7
:104e2c0004f12006236e5a1c22668022f254206e56
:104e3c00382822d9c0f140020021304404f0bafdd8
:104e4c004023236604f11c0104f15c0051f8042f8b
:104e5c00130a03f0ff13120202f0ff2213434fea6e
:104e6c0033430b608142f1d131462046fdf77afe87
:104e7c000746002869d100232366206ec0f1380252
:104e8c000021304404f096fd636ea16e5a0f02ebc4
:104e9c00c102a266db00636604f11c0104f15c0034
:104eac0051f8042f130a03f0ff13120202f0ff2231
:104ebc0013434fea33430b608142f1d1a36ea365d8
:104ecc00636ee36531462046fdf74cfe074600282d
:104edc003bd12646211f04f11c0051f8042f130a64
:104eec0003f0ff13120202f0ff2213434fea334385
:104efc000b608842f1d130687168b268f368286041
:104f0c006960aa60eb6030697169b269f369286104
:104f1c006961aa61eb61114b2360114b6360114b0a
:104f2c00a360114be360114b2361114b6361114b77
:104f3c00a36103f17453a3f52303a3f69243e36136
:104f4c00002323666366a366a3673846f8bd6ff03b
:104f5c00ac07fae76ff0ac07f7e700bf67e6096a42
:104f6c0085ae67bb72f36e3c3af54fa57f520e517e
:084f7c008c68059babd9831f73
:020000040000fa
:104f84002de9f04fa9b0ddf8c8b0002800f0af80db
:104f94000446002964d08360c0f814b0c0f804b09b
:104fa4000023c36003749a4214bf24273427914614
:104fb40088468023029308ab0193002000900346a7
:104fc40030224e4904f02cfa0146002840f08a8031
:104fd4000df11f05dff828a10df19f0650462a4662
:104fe40012f8013f10f801cf83ea0c031943b242cf
:104ff400f6d1002976d141496ff0010306930020d0
:1050040005908023049308ab03930290019020231e
:1050140000930b461022203102f017fa02460028b2
:1050240060d115f8013f1af8011f4b401a43b542ed
:10503400f7d1002a56d18420fff770fce060d8b184
:105044003a4608a9204604f096fb38b30223237499
:105054000125e06808b101f03bfc0023e3600fe0a8
:10506400002a47d18360c0f814b0c0f804b000230c
:10507400c360037434279ae7022323746ff07c051a
:1050840008ab1f441a460021134603f8011b1a46b5
:10509400bb42f9d1cdb9012323741fe0394608a8d6
:1050a40003f063f905460028d3d1cdf808b0a3680e
:1050b4000193cdf8009043463a1f09a9e06802f035
:1050c40060ff05460028dbd0c3e7032d0ad0012d7d
:1050d4004ff00203237408bf6ff0c605284629b0b9
:1050e400bde8f08f032323746ff0d005f6e76ff06b
:1050f400ac05f3e76ff0ac05f0e700bfd892000011
:04510400237c000008
:020000040000fa
:105108002de9f84305460c46174604f008fc102f15
:1051180014d0b846bb1e3e2b00f29c8023782d2b62
:1051280066d04ff000092078002879d12b68002b31
:1051380000f08880c5f80490002383e023782d2ba5
:1051480006bf013401260026204604f03dfc012854
:1051580000f18e80204400210a4615e05bb2202a27
:1051680008bf013102f01f02872979dc05eb810ea7
:105178009340def808703b43cef80830043202381a
:10518800031b6046002b1adb00f1ff3c10f8017c82
:10519800a7f13003dbb2092be0d9a7f14103dbb259
:1051a800052b03d8a7f137035bb2d8e7a7f1610352
:1051b800dbb2052b4bd8a7f157035bb2cfe7013120
:1051c8002960002951d04a1e4b1c55f8233063b979
:1051d800013105eb810300e00246002a43d0501e4e
:1051e80053f8041d0029f7d02a606e60002329e0d7
:1051f80001344ff0010996e7b7422edd2a464146b1
:10520800284601f028fd0346e0b92a4631462846db
:1052180004f09df90346a8b914f8010f002885d0b9
:10522800242f02dc04f00cfcc0b230280dd0124b45
:10523800012613f8012f8242ded00136402ef8d124
:105248004ff0ff331846bde8f8830026d6e74ff045
:10525800ff33f7e74ff0ff33f4e74ff0ff33f1e7a1
:105268004ff0ff33eee700232b6000236b60e9e784
:0c52780001212960a7e700bf7c8c00002a
:020000040000fa
:105284002de9f04fadf50f7d0c68442c00f3a080a0
:105294001546894680464ff40972002105a804f09a
:1052a4008dfbd8f800309c42b4bf4fea440ea646aa
:1052b400bef1000f0add08f1040305aa03eb8e001a
:1052c40053f8041f42f8041b8342f9d1002c65dd16
:1052d40005aba200029203eb020a02f108074f4455
:1052e400a2f1040b0394ac4609e0012013680344c3
:1052f40042f8043b8342f8d32b46554525d01d1d67
:1053040053f8044904fb0cf409f1080200202e466a
:10531400cdf80080cdf8049053f8045f4ff00009f5
:10532400401949f1000152f8045be4fb05011860df
:105334000846ba42f0d13546ddf80080ddf8049025
:105344000beb06020029d1d1d6e7039c029b05aae8
:105354001344194608f10802101f002351f8045b96
:1053640040f8045f01339c42f8da24eae473013321
:1053740002eb83029e4505dd002142f8041b013344
:105384009e45fad1631cc8f800303bb3a31c58f8ff
:1053940023309bb9631c08eb830307e008f1080280
:1053a4000023002ce6d105a9d6e70c469cb1611e6a
:1053b40053f80429002af8d0c8f80040d8f804307b
:1053c4000de042464946404601f06ffb002010e0e4
:1053d4004ff0ff300de00023c8f800300023c8f878
:1053e40004304946404603f029f8b0f1ff3fe8d1c4
:0a53f40000200df50f7dbde8f08fdd
:020000040000fa
:0253fe00fee7c8
:020000040000fa
:1054000038b54ff086439b7debb14ff08642137e5b
:10541000dbb2927d12f0800f16d14ff08642137ee0
:10542000dbb2927d12f0010f02d013f0010f55d1c3
:105430004ff08642137edbb2927d12f0040f02d051
:1054400013f0040f1ad138bd13f0800fe5d04ff0e0
:1054500086435b8b13f00703dfd03f4ce38503f0fb
:1054600053ff4ff0864384221a75002384f82c30b2
:10547000636a002bd1d0a06a9847cee7364b93f8e9
:105480002c30002bdfd0344b1a6adb699a42dad217
:105490004ff086439a6a5b6803f00703012b2e4b9b
:1054a000196a9b6914bf5a5423f811202a4b1a6aaf
:1054b00001321a621a6adb699a42c4d1264b002271
:1054c00083f82c20da614ff08642842111755b6ae3
:1054d000002bb8d0204a906a9847b4e71e4b1b7d3a
:1054e000002ba5d01c4b9a685c684ff086431b7e4e
:1054f00013f0010f19d0a24217d2174b1d684ff0bd
:1055000086414a6802f00702012a9a6814bfaa5c21
:1055100035f812208a629a6801329a6098680a7e89
:1055200012f0010f01d08442ebd80b4b9a685b68f4
:105530009a42fff47daf084b00221a755a604ff073
:10554000864201211175db68002b3ff471af024ade
:0c555000106998476ce700bfc80a0020f3
:020000040000fa
:10555c00f0b583b005460c4616461f4604f09afa81
:10556c0020b105f50a7004f095fa20bb204604f032
:10557c0091fa20b104f50a7004f08cfa08bb2146ac
:10558c00284604f0b7fa30b904f58a6105f58a604b
:10559c0004f0b0fad8b1099b0193089b00933b46e9
:1055ac00324621462846fcf71ffd034600283dd015
:1055bc00184603b0f0bd3146204603f036fb0346d7
:1055cc00f6e73146284603f030fb0346f0e704f5d6
:1055dc000a7105f50a7004f08dfa48b9099b00931d
:1055ec00089b3a4631462046fef704fa0346dfe7ad
:1055fc000021304604f053fa03460028d8d100218c
:10560c0006f50a7004f04bfa03460028d0d10121ac
:10561c0006f58a6004f043fa03460028c8d10a9aba
:10562c00002ac5d001220a990a60c1e706f58a65ed
:10563c00284604f02ffa03460028b9d0304604f06f
:10564c0029fa20b106f50a7004f024fae0b9002119
:10565c00304604f024fa03460028a9d1002106f5af
:10566c000a7004f01cfa03460028a1d10121284637
:10567c0004f015fa034600289ad10a9a002a97d00a
:10568c0001220a990a6093e7099b0093089b3a460a
:0c569c0031462046fef7aef9034689e7d0
:020000040000fa
:1056a8002de9f04fadf5137d04680b6804eb030a90
:1056b800baf1870f00f3888007928b46069104465b
:1056c800059008a804f02bf9baf1000f67dd5bf824
:1056d800083b012bb8bf0123013b0293234653f833
:1056e800082b039204930df12409002630465246f4
:1056f800ca46b14608e00346304600264af8043f49
:1057080009f101094a4534d0029b4b45a8bf4b46d5
:10571800a9eb0308049901eb880c0beb830e0399a2
:10572800a1eb08089845c8bf03f10108b8f1000fbc
:10573800e1dd002715463c46cdf80090cdf804a0e1
:105748005cf8042b5ef804390021e3fb0201002316
:105758008a1943f1000316461f440134a045efd1ce
:105768002a46ddf80090ddf804a0034630463e46a0
:10577800c4e792460892059b5c68069b5b685c40a0
:1057880009940af1ff330af1010208a951f822200d
:1057980002bb92aa02eb8a02a2f509720ce0cdf8cc
:1057a80020a0059b5c68069b5b685c400994baf185
:1057b800000fe6d10de003464bb1581e52f8041d08
:1057c8000029f8d0089305e04ff0ff3008e00023e7
:1057d800089300240994079908a803f045ff0020be
:0857e8000df5137dbde8f08f03
:020000040000fa
:1057f0002de9f843002800f097800d461646044630
:10580000f9b1036f13f1020f07d0002301f010ff6d
:1058100003466ff48772904218d1206e3f2800f241
:105820008680626eb31863669a4202d9a36e013312
:10583000a36604f1200760b93f2e6ad904f15c0821
:105840003ee0002a14bf6ff0ac0300231846bde809
:10585000f883c0f14008b04528bfb046424629460b
:10586000384404f04bf8236e434423664544a6ebca
:105870000806402be0d104f11c0104f15c0051f852
:10588000042f130a03f0ff13120202f0ff22134346
:105890004fea33430b608142f1d139462046fdf790
:1058a00067f903460028d1d100232366c4e73946af
:1058b0002046fdf75df903460028c7d13f2e28d9c1
:1058c0002b463a4605f14001d3f80090d3f804e0a6
:1058d000d3f808c0d868c2f80090c2f804e0c2f853
:1058e00008c0d060103310328b42edd14035403ebd
:1058f00004f11c0151f8042f130a03f0ff131202e4
:1059000002f0ff2213434fea33430b608845f1d185
:10591000cde70eb9002399e732462946384603f011
:10592000edff2666002391e76ff0ac038ee76ff082
:0459300083038be77b
:020000040000fa
:105934002de9f04fadb09046ddf8e0a08df80730ca
:10594400c2f3571303f0ff13d20202f0ff221343f2
:105954004fea33432a9318f01f0918bf4ff0010987
:1059640001238df8af3019eb581970d007460d4656
:1059740000269b463ee004222aa90ba8fff736ff27
:105984000446002846d19df80730042b46d1379aa7
:1059940036990ba8fff72aff044600283ad1baf13a
:1059a400000f02d0399b002b42d103a90ba8fff7ab
:1059b40023fa04460ba801f0e2ff9cb9b8f1200fca
