:020000040000fa
:10b00000f8ff032005cc0000fbd100008fd3000027
:10b010000bd500005dc900005fc900000000000002
:10b0200000000000000000000000000007d1000048
:10b0300063d400000000000007d1000007d1000029
:10b0400007d1000007d1000007d1000007d10000a0
:10b0500007d1000007d1000007d1000007d1000090
:10b0600007d1000007d1000007d1000007d1000080
:10b0700007d1000007d1000007d1000007d1000070
:10b0800007d1000007d1000007d1000007d1000060
:10b0900007d1000007d1000007d1000007d1000050
:10b0a00007d1000007d1000007d1000007d1000040
:10b0b00007d1000007d1000007d1000007d1000030
:10b0c00007d1000007d1000007d1000007d1000020
:10b0d00007d1000007d1000007d1000007d1000010
:10b0e00007d1000007d100000000000000000000b0
:10b0f0000000000007d1000007d1000007d10000c8
:10b1000007d1000007d1000007d1000007d10000df
:10b1100007d1000007d1000007d1000007d10000cf
:10b1200007d1000007d1000007d1000007d10000bf
:10b1300007d1000007d10000adc50000adc500007b
:10b14000adc50000adc5000007d1000007d100006b
:10b1500007d1000007d1000007d1000007d100008f
:10b1600007d1000007d1000007d1000007d100007f
:10b1700007d1000007d1000007d1000007d100006f
:10b1800007d1000007d1000007d1000007d100005f
:10b1900007d1000007d1000007d1000007d100004f
:10b1a00007d1000007d1000007d1000007d100003f
:10b1b00007d1000007d1000007d1000007d100002f
:10b1c00007d1000007d1000007d1000007d100001f
:10b1d00007d1000007d1000007d1000007d100000f
:10b1e00007d1000007d1000007d1000007d10000ff
:10b1f00007d1000007d1000007d1000007d10000ef
:10b2000007d1000007d1000007d1000007d10000de
:10b2100007d1000007d1000007d1000007d10000ce
:10b2200007d1000007d1000007d1000007d10000be
:10b2300007d1000007d1000007d1000007d10000ae
:10b2400007d1000007d1000007d1000007d100009e
:10b2500007d1000007d1000007d1000007d100008e
:04b2600007d1000012
:020000040000fa
:10b26400f8b500bff8bc08bc9e4670472dd100005d
:10b27400f8b500bff8bc08bc9e46704709d1000071
:020000040000fa
:08b28400680c0000010000004d
:020000040000fa
:04b28c00704700bf48
:020000040000fa
:10b290002de9f04f2ded028b97b092ed007b0e93d0
:10b2a0000b680693d1e9016307930b690f900b912b
:10b2b0001493cd680022002351ec170b8ded027b17
:10b2c00001f0d4ff48b9069b580739d4069b13f008
:10b2d00008030c9336d0202306e0dde9022181f03b
:10b2e0000043cde902232d232b70079b03f1ff3b85
:10b2f00001230c93dde9022121f000430c99691828
:10b300000d914d4900208b4208bf82421dd10e9bfa
:10b310000d98413b192b94bf4849494902f0ebf87d
:10b32000474802f0d2f8069b00930246079b0f980d
:10b33000294601f0effc17b0bdec028bbde8f08fa1
:10b340002b23d1e7ddf81cb0d4e7994208bf904227
:10b350000ad20e9b0d98413b192b94bf39493a49ab
:10b3600002f0c9f83848dce700220023dde90201d9
:10b3700001f098ff9fed2e7b8ded047b68b30024d8
:10b380000e9802f0aaf8002ec3b20a93c0f2d78139
:10b39000672b61d1002e08bf0126231d02dbb442ba
:10b3a000c0f2c681652768e0cde904890134002236
:10b3b000264bdde9040101f0a7f9dde9022380460f
:10b3c000894601f037ff0028eed00027dff88080a3
:10b3d000dff880a04ff000091ee00446e7e744458f
:10b3e00011da87b94a465346dde9020101f08cf9ca
:10b3f0004a46cde902015346dde9040101f084f932
:10b40000cde904010127dde9040100220f4b00f022
:10b41000ebffcde90401013cdde90423dde9020194
:10b4200001f024ff0028dad1aae700bfaff30080c3
:10b43000000000000000f03f0000f07faad40000f0
:10b44000aed40000b2d40000b6d400000000244006
:10b45000d4feffff000050430a9f662f06f101064d
:10b460000bd1002c04da9fedba7b8ded047b002418
:10b470000a9b672b18bf361966279ded027bdde915
:10b4800004898ded087b4ff0000a42464b46dde90a
:10b49000080100f0a9ff41ec100b01f061fa51ec3a
:10b4a000100bb0ee408af0ee608a01f0e3fdb0eee2
:10b4b000480af0ee680a089b1093099b159083f0e8
:10b4c0000043119349ec118b9ded102b01f034ffdb
:10b4d00053ec102b83f00043099340464946002269
:10b4e0009d4b8ded080a00f07fff0af1010a5645d9
:10b4f00080468946c9d10022984b01f005f9804663
:10b50000894602460b46dde9080101f0affe48b965
:10b5100042464b46dde9080101f0c4fe30b1159bff
:10b52000d90703d44ff000084ff0000942464b46bc
:10b53000dde9020100f038fe0022cde90201864b70
:10b54000dde9040101f0e0f8dde90223cde90801bd
:10b5500001f018fe00286dd0662f04f101046dd1b2
:10b560000136a146a9eb06031093069b0c9e4ff0f3
:10b57000000803f01003cdf810801593109b994537
:10b58000b24604d00b9b1b69053bb3425cd8049bbd
:10b5900033b9069bda0642bf2e2305f80a3001367e
:10b5a0000022652f05eb0600aa5529d1149b14999a
:10b5b000013b9442ea54c1f1030ebcbf6442012234
:10b5c0000a21002c40f0a5800eeb030cbcf1000f0b
:10b5d00000f39f80002a03f1ff3114bf2d222b229c
:10b5e0006a540e9a413a023b192a98bf45279e4257
:10b5f00005eb0301ef54abf1020b01da01f07bff25
:10b60000069b03f00303022b12d1bbf1000f0fdde9
:10b61000284601f05aff05eb0b030c9a824240f3d7
:10b6200083805a4630210d9801f02fff00230793a5
:10b63000284676e69ded047b8ded087b652f14bfd3
:10b64000a1464ff000098de7dde90823dde902019d
:10b6500000f0cafe41ec100b01f082f951ec100b26
:10b66000b0ee408af0ee608a01f004fd159b0343c2
:10b670002ad10a9b672b27d1b9f1000f31da08f1e3
:10b68000010a029b1293039bb0ee480af0ee680a8f
:10b6900083f0004313939ded081b9ded122b01f0e9
:10b6a0004bfe53ec102b83f000430393dde90801bc
:10b6b0000022294b8ded020a00f096fe09f1ff39b8
:10b6c000cde90801d04659e7049b53b9b9f1000f01
:10b6d00007da2e2305f80a30012301360bf1ff3b70
:10b6e00004933246ab19c24605e04ff0300103f82f
:10b6f000011b0af1ff3abaf1000ff6d10bf1ff334b
:10b700000136a3eb080b4644a844303008f8020089
:10b71000b7e7b4fbf1fc013b01fb1c443034ec54b3
:10b720000bf1ff3b64464ce72a5c1a54013874e77e
:10b73000002cbff6a1ae66278fe606262de60a9bf3
:10b74000672bfad01f46062687e600bfaff30080be
:10b75000000000000000f03f000024400000144002
:020000040000fa
:10b760002de9f04f93b01d460b680593d2e900ab6d
:10b770004b680c938b6808930b690f900d93cc6802
:10b78000002200235046594601f070fd40b9059b48
:10b790005e0733d4059b13f0080731d0202303e064
:10b7a0008bf000439b462d232370089b01275e1ed0
:10b7b000dff8f4922bf000434ff000084b45a5f161
:10b7c000410108bfc24504eb070009911ad1099b4a
:10b7d000192b04eb070094bfad49ae4901f08bfe75
:10b7e000ac4801f072fe059b00930246089b0f983f
:10b7f000214601f08ffa13b0bde8f08f2b23d3e779
:10b80000089ed5e7994508bfd04508d2099b192b5a
:10b8100094bfa149a14901f06efea048e1e73022a2
:10b820000270099a7b1c1a2a34bf58227822e254eb
:10b8300050460022002359460237023e01f032fdf5
:10b84000002800f078819fed907b8ded027b002534
:10b850009ded027b0c9b8ded0a7bcde906ab002ba9
:10b86000acbf99464ff018094ff00008dde90a23f4
:10b87000dde9060100f0b8fd41ec100b01f070f8b5
:10b88000dde90a2351ec100b8ded100b00f03cffad
:10b8900002460b46dde9060101f03cfe804bcde996
:10b8a00006010022dde90a0100f02eff08f1010384
:10b8b0000e930c9b002bcde90a0106da002200232f
:10b8c000dde9060101f0eefc28b9c14500f339813c
:10b8d00009f101030e930022724bdde90a0100f029
:10b8e00013ff8046894602460b46dde9060101f05a
:10b8f000bdfc60b942464b46dde9060101f0d2fcd1
:10b9000048b1dde9100101f0b5fbc00703d44ff0e9
:10b9100000084ff0000942464b465046594600f099
:10b9200043fccde90601dde9062121f000435e4933
:10b9300000208b4208bf82423ff449af4ff000091c
:10b94000b846cb46ca460d9b053b434533dddde992
:10b950000223dde9060100f047fd41ec100b00f089
:10b96000ffff51ec100b8ded0a0b01f083fb00285b
:10b9700040f0ea80baf1000f00f0e68009f1010919
:10b98000dde90223dde90a0100f0befe02460b46b6
:10b99000dde9060101f0befd414bcde906010022c3
:10b9a000dde9020100f0b0fe0e9b0af1010a5345e9
:10b9b000cde90201c7d1bbf1000f1dd104eb080393
:10b9c000b9f1000f00f004810c9a002a40f30081c5
:10b9d000059ad10700f1fc802e221a7009eb0802ab
:10b9e0002244302103f8011f9342fbd1c8446fea7f
:10b9f000090908f101084e440d9b0d990022013bf5
:10ba0000954204f80820c1f1020ee25404eb08004c
:10ba1000bcbf6d4201220a21002d40f0cb800eeb0d
:10ba2000030cbcf1010f00f0c580002a03f1ff31c7
:10ba300014bf2d222b226254099a023b1a2a34bfca
:10ba400050227022984504eb0301e25401da01f020
:10ba500052fd059b03f00303022b12d1b51e002dee
:10ba60000fdd204601f031fd013e2044031b9f42c3
:10ba700040f3aa802a463021e01901f006fd002398
:10ba800008932046ade600bf000000000000f03f34
:10ba90009ad400009ed40000a2d40000a6d40000d6
:10baa0000000b03f000020400000f07fcde9028997
:10bab0000135dde902231046194600f075fb80468a
:10bac000894602460b465046594601f0cffb0028f6
:10bad000ecd0dff820914ff00008dde9022350465a
:10bae000594601f0c3fb00283ff4b2ae0022404ba0
:10baf000dde9020100f008fe0022002301f0d2fb84
:10bb000078b142464b46dde9020100f0fdfd4246b8
:10bb1000cde902014b465046594600f0f5fd8246fc
:10bb20008b46dde902010022314b00f0edfd013dc5
:10bb3000cde90201d1e79fed2c7b05468ded027b1f
:10bb4000b7e7ddf8388091e6bbf1000f0ad1baf112
:10bb5000000f07d02e2304f80830013e08f1010839
:10bb60004ff0010b434604eb08014a4604e04ff056
:10bb7000300c01f801cb013a002af8d1099a0928c2
:10bb800008f1010806f1ff36d4bf30305730192aca
:10bb9000c8444b44a6eb090608d840f02002613a9d
:10bba000192a03d8109301f09ffc109be0544ff02a
:10bbb0000009e5e6b5fbf1fc013b01fb1c55303506
:10bbc000e554013e654627e710f8013983554de7f6
:10bbd000059ad2067ff510af2e2208f101081a70df
:10bbe0000ae700bfaff30080000000000000f03f54
:08bbf0000000e03f000050439b
:020000040000fa
:10bbf8002de9f04fadb00027dff8e4a20391064627
:10bc08001546b8464ff0ff3903990b78002b00f022
:10bc1800f9800cabcde907890a938023cdf82480fd
:10bc28000b9300240b5d0bb1252b26d134b1224692
:10bc3800304601f0c1fa039b23440393039b1a780f
:10bc4800252a40f0d78003f1010bcdf80cb00398fa
:10bc580003782b2b1ad025d8202b1bd0232b1dd0b3
:10bc68002a2b27d001f028fa0990039b1a78303a3a
:10bc7800092a2ed801330393f7e70134d2e7079b4b
:10bc880043f00103013007930390e0e7079b43f07b
:10bc98000403f7e7079b43f00803f3e7079b43f028
:10bca8001003efe72d2bead0302bd9d1079b43f0b7
:10bcb8000203e7e72b681a1d1b682a600130002b76
:10bcc8000390099305da079a5b4282f00102079212
:10bcd8000993079bda0744bf23f002030793039bea
:10bce8001a782e2a0dd1581ccdf8208003905a7846
:10bcf8002a2a25d1023303932b681a1d1b682a6050
:10bd0800089303a801f076fa039b0190187801f0d4
:10bd1800e0fb6928019979d032dc632800f0c680fd
:10bd280019dc252800f0d080612853d025238df810
:10bd38001030cdf80cb0cdf81c80cde90898c0e0e3
:10bd480001f0baf90890039b1a78303a092ad8d832
:10bd580001330393f7e7642858d06728e6dc2a46be
:10bd680004a801f0fbfa002800f09c80039b5a1cf1
:10bd780003921b7804aa07a93046fff785fa38e032
:10bd8800702873d015dc6e2800f087806f28cdd11d
:10bd98002b46002204a800f099fe002800f08280bb
:10bda800039b04aa013307a93046039301f067f8ff
:10bdb8001fe075283ad0782848d07328b6d1802952
:10bdc80070d1039b2a6801330393131d2b601268fb
:10bdd80000235be02a4604a801f0c0fa002861d0dd
:10bde800039b5a1c03921b7804aa07a93046fff745
:10bdf800b3fc04443c44a7426edd384b4f221a6022
:10be08004ff0ff3738462db0bde8f08f2b460122a2
:10be180004a800f05bfe002844d0039b04aa013369
:10be280007a93046039300f0fdfde2e72b46002208
:10be380004a800f04bfe002834d0039b04aa013369
:10be480007a93046039301f0e5f8d2e72b46002214
:10be580004a800f03bfe28b3039b5a1c03921b78ee
:10be680004aa07a9304600f0e3fcc2e72b460022eb
:10be7800f02104a800f02afea0b1039b013303932c
:10be8800dde90423134306d10023524607a93046af
:10be980001f094f8ade77823e2e72b463a1904a8b5
:10bea80000f073ff039b01330393a3e78029f9d1c3
:10beb800039b013303932b681a1d1b682a608df8b6
:10bec8001030012304aae1e78029ebd1039b8df808
:10bed800100001330393f4e7274695e6cc000020d1
:04bee80046d400003c
:020000040000fa
:10beec002de9f04f099f154604468e461e46002b41
:10befc0040f0cc808a42b2fa82fc4cd9bcf1000fe3
:10bf0c000bd0ccf1200801fa0cfe20fa08f802fa4a
:10bf1c000cf548ea0e0e00fa0cf44fea15491ffa1c
:10bf2c0085f8befbf9fa210c09fb1ae30afb08fba6
:10bf3c0041ea03439b452ad9eb180af1ff3004d29e
:10bf4c009b4502d9aaf102002b44a3eb0b03a4b22c
:10bf5c00b3fbf9f209fb123302fb08f844ea034481
:10bf6c00a04516d92c1902f1ff3303d2a04501d9f3
:10bf7c00931e2c44a4eb080443ea004027b124fa96
:10bf8c000cf400233c607b603146bde8f08f5046da
:10bf9c00dbe71346eee702b9ffdebcf1000f2ed152
:10bfac008b1a01264fea154eaab2b3fbfef8210cf0
:10bfbc000efb183308fb02f941ea0343994561d99a
:10bfcc00eb1808f1ff3004d2994502d9a8f1020010
:10bfdc002b44a3eb0903a4b2b3fbfef10efb11330c
:10bfec004a4344ea0344a2424ed92c1901f1ff33cf
:10bffc0003d2a24201d98b1e2c44a41abce7ccf16b
:10c00c00200e02fa0cf521fa0ef901fa0cf320fac3
:10c01c000efe4eea03034fea154800fa0cf4b9fb86
:10c02c00f8f11ffa85fe08fb1192180c01fb0ef6b5
:10c03c0040ea0242964221d9aa1801f1ff3003d2fc
:10c04c00964201d9881e2a44921b9bb2b2fbf8f986
:10c05c0008fb192209fb0efe43ea02439e450fd949
:10c06c00eb1809f1ff3604d29e4502d9a9f102065c
:10c07c002b44a3eb0e0346ea004693e70846e3e79e
:10c08c004e46f6e74046a4e70b46b6e78b4206d988
:10c09c00002f7ed00026c7e90001304674e7b3fac2
:10c0ac0083fcbcf1000f0fd18b4201d3824209d823
:10c0bc00841a61eb030e0120002f6dd0c7e9004eee
:10c0cc00002661e76046f7e7ccf1200e03fa0cf38b
:10c0dc0022fa0ef521fa0ef41d4301fa0cf320faa4
:10c0ec000ef10b434fea154a00fa0cf6b4fbfaf9c1
:10c0fc001ffa85f80afb19401c0c09fb08f144eaed
:10c10c000044a14202fa0cf23fd92c1909f1ff307c
:10c11c0004d2a14202d9a9f102002c44641a9bb2a8
:10c12c00b4fbfaf90afb194409fb08f843ea044189
:10c13c0088452cd9691809f1ff3304d2884502d9f6
:10c14c00a9f10203294443ea0040a1eb0801a0fb3a
:10c15c0002894945c2464c4602d306d1464504d213
:10c16c00b8eb020a69eb05040138afb1b6eb0a0370
:10c17c0061eb040606fa0efe23fa0cf34eea0303f7
:10c18c0026fa0cf6c7e900369ae74846c6e74b464e
:0cc19c00d9e73e463846f7e63e46f5e699
:020000040000fa
:10c1a80030b591ea030f00f18280841a71eb030c19
:10c1b80005d2121953eb0c03001b71eb0c0140f272
:10c1c800000ccff6e07c1cea430f52d0bceb410fc9
:10c1d8005fd90c0da4eb135e5ff0010c6cf31f51db
:10c1e8006cf31f53def1200c2ad303fa0cf5401927
:10c1f80041f1000122fa0ef5401923fa0ef56941c2
:10c2080012fa0cf2cd0208d349085fea30005fea5f
:10c21800320228bf42f001020134013c5fea500caf
:10c2280072f1004250f1000051eb04514ff4001339
:10c2380013eb410f38bf30bd090d0905002030bd93
:10c24800bef1200ebef1200f1ed223fa0ef54019c2
:10c2580041f10001cef1200c124218bf012203fa6d
:10c268000cf52a43cee711ea5c0f04bf0020002139
:10c2780030bd1cea410f04bf01f00041002030bd71
:10c2880001f00041002030bd21f4801101eb045180
:10c2980030bd004218bf41f00101bceb410f08bf9f
:10c2a80030bd4ff0fe4141f47801002030bd83f0ed
:10c2b8000043841a71eb030e07d28ef0004e001b68
:10c2c80071eb0e01121953eb0e0340f2000ccff67e
:10c2d800e07c1cea430fc6d0bceb410f72d90c0db1
:10c2e800a4eb135ec90241ea5051c00241f000417b
:10c2f800db0243ea5253d20243f00043def1200c42
:10c3080041d312fa0cf522fa0ef203fa0cf542eabe
:10c31800050218bf42f0010223fa0ef3801a994170
:10c32800e30ac4f30a0411f0404f03d418d0013cc7
:10c3380040004941013c23d44205c00a40ea41502b
:10c34800c90a51eac3715fea500c72f1004250f118
:10c35800000051eb045130bd01002fd00020203cdb
:10c368000029f9d0b1fa81fcdcf1200e11fa0cf1a8
:10c3780030fa0ef510fa0cf02943a4eb0c04d9e7b7
:10c388000020d90730bdaef1200ebef1200f0dd22e
:10c39800cef1200c03fa0cf533fa0ef32a4318bf3a
:10c3a80043f00103c01a61f10001b9e721f000412f
:10c3b800c00a40ea4150c90a01eb045130bd0020cf
:10c3c800002130bd004218bf41f00101bceb410f14
:10c3d8007ff467afbceb430f3ff463af30bd00bfe2
:020000040000fa
:10c3e8002de9f04391ea030e0ef0004e40f20007eb
:10c3f800cff6e07717ea41051ebfbd4217ea4305ad
:10c40800bd4200f09f807f0d17ea135623ea475379
:10c4180043f4801317ea115521ea475141f480117a
:10c42800ad1b05f2fd354fead31c1cf1010c4ff092
:10c438000047b7fbfcf77f01a2fb079c0024e3fb46
:10c4480007c4d9f100096ceb4c0ca0fb0762002073
:10c45800e1fb072000275feac628e0fb0987760d85
:10c4680046eac226520df61900277a41e0fb0c6213
:10c478005feac823e2fb09375fea585848eac6284a
:10c48800760d18eb070800214e41e2fb0c8602eb03
:10c49800c020da02e6fb09215b0d43eac8235fea04
:10c4a80058585b18002758eb0708e6fb0c38d102f0
:10c4b800e8fb0917520d42eac3225b0dd219002787
:10c4c8007b41e8fb0c2308ebc6265feac128e3fba7
:10c4d8000987490d41eac221520dc91942f10002ea
:10c4e800e3fb0c12470019eb08095ceb010c72eb3b
:10c4f800040453ebc62047eb56530026b3f5000f50
:10c508007641ad190236d6f1200910fa09f4f04047
:10c5180013fa09f21043f340e40f001943f1000342
:10c52800b3f5001f24bf5b08013540f2fe77bd421a
:10c5380004d24eea05511944bde8f0832d4224d5b2
:10c54800714626e0004218bf41f00101124218bfaf
:10c5580043f00103b7eb410f2cbfb7eb430f1be0d0
:10c56800b7eb410f04bfb7eb430f15e017ea410fd4
:10c5780004bf17ea430f0fe017ea410fe0d017eaac
:10c58800430f02d0b7eb430fdad04ef0fe4141f42f
:10c5980070010020bde8f08340f20001c7f6f87191
:04c5a800f7e700bff2
:020000040000fa
:10c5ac0038b54ff086439b7debb14ff08642137e3e
:10c5bc00dbb2927d12f0800f16d14ff08642137ec3
:10c5cc00dbb2927d12f0010f02d013f0010f55d1a6
:10c5dc004ff08642137edbb2927d12f0040f02d034
:10c5ec0013f0040f1ad138bd13f0800fe5d04ff0c3
:10c5fc0086435b8b13f00703dfd03f4ce38500f0e1
:10c60c0065fe4ff0864384221a75002384f82c3083
:10c61c00636a002bd1d0a06a9847cee7364b93f8cb
:10c62c002c30002bdfd0344b1a6adb699a42dad2f9
:10c63c004ff086439a6a5b6803f00703012b2e4b7d
:10c64c00196a9b6914bf5a5423f811202a4b1a6a91
:10c65c0001321a621a6adb699a42c4d1264b002253
:10c66c0083f82c20da614ff08642842111755b6ac5
:10c67c00002bb8d0204a906a9847b4e71e4b1b7d1c
:10c68c00002ba5d01c4b9a685c684ff086431b7e30
:10c69c0013f0010f19d0a24217d2174b1d684ff09f
:10c6ac0086414a6802f00702012a9a6814bfaa5c04
:10c6bc0035f812208a629a6801329a6098680a7e6c
:10c6cc0012f0010f01d08442ebd80b4b9a685b68d7
:10c6dc009a42fff47daf084b00221a755a604ff056
:10c6ec00864201211175db68002b3ff471af024ac1
:0cc6fc00106998476ce700bf5000002058
:020000040000fa
:10c70800f0b540f2ff7681ea030c16ea115e1ebf0f
:10c71800b64516ea1355b54252d021ea465141f4be
:10c728008011a1fb024723ea465343f48013ae4429
:10c73800a0fb03650cf0004c36197d41a1fb0347b3
:10c7480047f10003a0fb0217f619654153f10003f6
:10c75800094218bf46f0010640f2fe74b3f5007fa7
:10c7680013d2aef5806ea64523d24cea03312803d6
:10c7780041ea155140ea16503203450872f1004269
:10c7880050f1000051eb0e51f0bdaef2ff3ea64550
:10c798000fd24ceac321e80241ea555140ea56500b
:10c7a800f202450872f1004250f1000051eb0e51bf
:10c7b800f0bd1eea0e0f2dd50cf000410020f0bd93
:10c7c80016ea115f04bf01f000410020004218bfc3
:10c7d80041f0010116ea135f04bf03f00043002291
:10c7e800124218bf43f0010306ea1354b44218bfbb
:10c7f800b64503d00cf000410020f0bd21f0004107
:10c8080023f00043b1eb065f0cd8b3eb065f09d801
:10c8180041b13bb10cf0004141f0fe4141f47001df
:10c828000020f0bd40f20001c7f6f8710020f0bd0d
:020000040000fa
:10c838002de9f04f89461946d9e90153d9f8008006
:10c84800d9f80ca0002d8bb0a8bf28f002088346a9
:10c85800b8bf012518f010009646d2e9006702908b
:10c8680051d056ea07024ed0981e18f008040394d7
:10c87800d9f8104018bf00f1ff30401b013c4ff0c1
:10c88800000c049008f0020005900af804c0a1f119
:10c8980041000690012c0add56ea070235d1002d29
:10c8a80033dc049a5019002801dd059a6abb029a04
:10c8b80062b1dee9006756ea070207d00aeb040214
:10c8c800023c02f8011c30220af80420039a1ab12b
:10c8d800013c20220af80420d9f81020cdf8008065
:10c8e800013a121b0aeb0401584600f00ffadbf874
:10c8f8000430db0504d5d9f804309842b8bf18468f
:10c908000bb0bde8f08f1846afe706f00f00069aa7
:10c918000928d4bf30305730192a04f1ff340ed813
:10c9280040f0200cacf1610cbcf1190f07d8cde92f
:10c9380008e1079300f0d4fddde908e1079b0af858
:10c948000400300940ea07704fea171c013d06460b
:04c9580067469fe7a8
:020000040000fa
:02c95c00fee7f4
:020000040000fa
:02c95e00fee7f2
:020000040000fa
:10c9600053ec102bc3f30a512de9f04140f2fd7056
:10c970004e1e86421d4645d8a1f2ff30002835db09
:10c98000332831dc284bc0f120084ff0ff3c03fa7c
:10c9900008f2a1f21f412cfa00fc10ee104a4ceafa
:10c9a000020c23fa01f24cea020c23fa00fe04ea1c
:10c9b0000c0605ea0e0724ea0c0256ea070425eaeb
:10c9c0000e030fd0002a73f100040bda4ff4801528
:10c9d00005fa08f425fa01f10c43121925fa00f0c2
:10c9e00040eb030343ec102bbde8f081002a73f108
:10c9f000000303db9fed080bbde8f0819fed080b02
:10ca0000bde8f0810029efd10a4603f0004343ec72
:10ca1000102be9e7aff300800000000000000000e9
:0cca2000000000000000f0bfffff0f004e
:020000040000fa
:10ca2c002de9f041d2e900230c4686b007465feab7
:10ca3c00d37820684968a5680590e66841d05242d1
:10ca4c0063eb4303002908db20f002000590b8f1ea
:10ca5c00000f02d1059948072ad5691e05a8029036
:10ca6c000a20cde90010204600f0cbf9b8f1000ff8
:10ca7c0002d1059b59071fd5b8f1000f00f1ff300b
:10ca8c0014bf2d232b2333542269059b0093013aa9
:10ca9c002b46121a3118384600f036f97b68db0544
:10caac0003d563689842b8bf184606b0bde8f0815c
:10cabc000807d2d42946d1e71a07e5d50138202337
:08cacc00e1e70029c0dac5e72b
:020000040000fa
:10cad400882930b534d012dc81293fd003dc802989
:10cae4003cd0002030bd82290ed08429f9d11c68a5
:10caf40054f8041b1c60f2b10ab2d3171de0a0293c
:10cb040027d00cdc9029ecd11968073121f00701fa
:10cb1400f1e802451960c0e900450120e2e7c029b7
:10cb240001d0f029ddd11a68111d19601368036062
:10cb340000234360f1e78ab20023c0e90023ece755
:10cb44001c6854f8041b1c600ab14ab2d5e7cab287
:10cb5400f2e71a68111d19601268cee719680c1df6
:10cb64001c600ab10a68c8e70b68c0e90032d4e760
:020000040000fa
:10cb7400a00000201c000000000000005000002065
:10cb84003000000000000000c40000200400000089
:10cb94000000000000000020500000000000000021
:10cba400c8000020040000000000000080000020f5
:10cbb400200000000100000001000000030000004c
:10cbc4000000000000000000000000000000000061
:10cbd40000000000bc000020bc0000200800000091
:10cbe40000000000cc000020040000000000000051
:10cbf4000000000000000000222222222222222221
:020000040000fa
:10cc040008b5194b9847194b9847eff3108172b642
:10cc1400174ad2f8883043f47003c2f88830bff35f
:10cc24004f8fbff36f8f01b962b6124a936823f036
:10cc3400010393601346da6812f0010ffbd10d4b28
:10cc440024225a6001229a6000f01ef80a4b23f055
:10cc54007f03074a9360094b9847094b9847094b50
:10cc6400984700f093fbfee773d0000073d00000f8
:10cc740000ed00e00060004100b0000069cf00005a
:08cc840073d0000073d0000022
:020000040000fa
:10cc8c001e4b1f4a9342f0b438bf002103d203f865
:10cc9c00011b9342fbd11b4ad2e9000150ea01036c
:10ccac004ff0000610d09468034602f10c076cb9e3
:10ccbc0021b1014403f8016b9942fbd13a46d2e908
:10cccc00000150ea0103eed1f0bc704759b101f1fb
:10ccdc000c030c38801a1a443b461c1813f8015be1
:10ccec0025709342f9d111f0030318bf012303eb14
:10ccfc00910107eb81073a46e1e700bf00000020f5
:08cd0c000000002074cb0000c0
:020000040000fa
:10cd14002de9ff471d460c9b13f001080746894681
:10cd2400144624d1aa4222da2e1b102e32464ff08a
:10cd3400200128bf10226846b24600f0a4fb0f2e43
:10cd44001edc4fea1a136ff00f0202fb03a26946be
:10cd5400384600f033fab8f1000f04d122464946b0
:10cd6400384600f02bfa284604b0bde8f087224686
:10cd74004946384600f022faac42d5db2546f2e7b4
:0ecd840010226946384600f019fa103ed7e733
:020000040000fa
:10cd9200842910b523d00cdc812903d0822913d039
:10cda20080290bd119680c1d1c600b6803601a6086
:10cdb20013e0902921d003dc882917d0002010bd70
:10cdc200a029efd0c029ece719680c1d1c600b6884
:10cdd2000360d1171046c3e900010120efe719688b
:10cde2000c1d1c600b6803601a80f6e719680c1da5
:10cdf2001c600b6803601a70efe719680c1d1c6059
:0cce020009680160d317c1e90023e6e7ce
:020000040000fa
:10ce0e002de9f84f04460c9f6668d4f80cb02469df
:10ce1e0010463a68013c002502f0020a0b9a0bf804
:10ce2e000450002e1946b8bf0126012390464fea42
:10ce3e00e279002c03dcd3b12046bde8f88f50ea2e
:10ce4e00010209d1721b002a06dc0a9a521b002a23
:10ce5e00f1ddbaf1000feed042464b4600f04dfa2e
:10ce6e00013c134630320bf804200135e1e73b68f4
:08ce7e0023f010033b60dfe725
:020000040000fa
:10ce8600f0b50c4649682368a768e56887b00029ad
:10ce96000593a4bf23f00203059305ab0293082371
:10cea600cde900730646d2e900232046fff7acff22
:10ceb600059bd90642bf00f1ff3030232b54059b5a
:10cec6001a0742bf00f1ff3020232b542269059b2d
:10ced6000093013a3b46121a29183046fff717ff0e
:10cee6007368db0503d563689842b8bf184607b078
:02cef600f0bd8d
:020000040000fa
:10cef80080b310b40446194b1b7d6bbb174b1860ed
:10cf0800596001221a754ff086431b7e13f0010ffa
:10cf18001cd0e9b100234ff08640426802f00702b6
:10cf2800012a14bfe25c34f8132082620133027ec6
:10cf380012f0010f01d09942efd8084a93600120fe
:10cf48004ff0864398755df8044b70470023f4e76b
:10cf58000b46f2e7002070470020f4e7500000205d
:020000040000fa
:10cf68000e4a38b5002313600d4a0e4c13600e4a62
:10cf78000e4d13600e4a13600e4a13600e4a536238
:10cf880013610123936000f094fa00f0cafaac42ee
:10cf980000d338bd54f8043b9847f8e7c800002090
:10cfa8000c00002070b200000800002074b20000dd
:0ccfb800000000200400002010000020f9
:020000040000fa
:10cfc4002de9ff41134dd1f80080af88adf80c7006
:10cfd40006462868029002aca8798df80e00002a53
:10cfe40018bf1446d1e901571a461bb9204600f070
:10cff4006afa0246002d02dbaa4228bf2a46cdf86f
:10d0040000803b4621463046fff782fe04b0bde86f
:08d01400f08100bf1cd50000f3
:020000040000fa
:10d01c00f0b50c4649682368a668e76887b0002914
:10d02c000593a4bf23f00203059305ab02930a23d7
:10d03c00cde900630546d2e900232046fff7e1fe67
:10d04c002269059b0093013a3346121a3918284677
:10d05c00fff75afe6b68db0503d563689842b8bfcf
:06d06c00184607b0f0bdfc
:020000040000fa
:02d07200704705
:020000040000fa
:10d07400c1f30a5340f21e42d21a0edd202a0ad806
:10d08400cb0243ea505040f00040d04090eae170b7
:10d09400b0ebe1707047002070474b00004218bfae
:10d0a40043f0010313f5001f88bf21f0004111f084
:0cd0b400004058bf6ff00040704700bf04
:020000040000fa
:10d0c00010b50278202a034600f10100f9d0a2f140
:10d0d00009010429f5d92b2a07d02d2a11d10121c4
:10d0e0000133013b00200a2403e00021f8e76043fc
:10d0f000801a13f8012f303a092af8d901b94042b1
:06d1000010bd0021ede767
:020000040000fa
:02d10600fee742
:020000040000fa
:10d1080010b5054c227832b9044b13b10448aff37b
:10d1180000800123237010bda00000200000000043
:10d128000000000008b5034b1bb103490348aff3e7
:10d13800008008bd00000000a400002000000000de
:020000040000fa
:10d148000d4b4ff480321a60022183f850100022f0
:10d1580083f83820012083f8cc0083f8cd00222002
:10d1680083f8b6004ff40010c3f8000183f8551196
:0cd1780083f83a21704700bf008000419e
:020000040000fa
:10d184004ff4001c1ceb410f98bf1ceb430f11d84c
:10d1940051ea030c50ea4c0c5cea020c0cd004d2a9
:10d1a40082428b41804101307047904299418041d5
:0cd1b400013070470020704701207047d8
:020000040000fa
:10d1c00038b5436813f4807f0446154610d00369d0
:10d1d00040699a4228bf1d462a4600f037f9626925
:10d1e0005319636123695b1b23610023535538bdc9
:0ad1f000db06fcd400f096f9f9e725
:020000040000fa
:02d1fa00fee74e
:020000040000fa
:10d1fc0030b50c4a002312f8134024b902eb430358
:10d20c005b78184630bd01680d78a54209bf02eb6a
:10d21c00430301335b78013114bfdbb201600a2b8d
:08d22c00e9d9eee730d400005f
:020000040000fa
:10d234004ff4001c1ceb410f98bf1ceb430f11d89b
:10d2440051ea030c50ea4c0c5cea020c0ad004d2fa
:10d2540082428b41804140427047904299418041d3
:08d264004042704700207047b2
:020000040000fa
:10d26c004ff4001c1ceb410f98bf1ceb430f11d863
:10d27c0051ea030c50ea4c0c5cea020c0ad004d2c2
:10d28c009042994180414042704782428b4180419b
:08d29c0040427047002070477a
:020000040000fa
:10d2a4004ff4001c1ceb410f98bf1ceb430f0cd830
:10d2b40050ea410c08bf52ea430c08d0904208bf20
:10d2c40099420cbf012000207047002070470120c4
:04d2d400704700bfe0
:020000040000fa
:10d2d8004ff086435b8b13f0070f10d04ff0864357
:10d2e80080221a7607225a831b7e13f0040f06d079
:10d2f8004ff086439a6a1a7e12f0040ffad17047eb
:020000040000fa
:10d3080053b94ab9002908bf00281cbf4ff0ff31a4
:10d318004ff0ff30fdf7b6bfadf1080c6de904ce54
:10d32800fef7e0fdddf804e0dde9022304b0704714
:020000040000fa
:10d3380000b553ec112b83b051ec100b8ded002b85
:10d34800fff7def99ded002b53ec122bfef728ffbb
:0cd3580041ec100b03b05df804fb00bfbb
:020000040000fa
:10d36400802910db812901dd83290cd1136807335f
:10d3740023f0070303f108011160d3e90023c0e996
:0ad3840000230120704700207047cd
:020000040000fa
:02d38e00fee7b8
:020000040000fa
:10d3900008b5002000f0b5f8044800f00bf8044a86
:10d3a0004ff40013c2f81431fce700bfd8d30000db
:04d3b00000800041b8
:020000040000fa
:10d3b4000fb407b5064b04aa1b6852f8041b18687f
:10d3c400019200f025f803b05df804eb04b0704757
:04d3d4009c00002099
:020000040000fa
:10d3d8000d0a456e746572656420696e204c45447b
:10d3e800206170706c69636174696f6e000000bfc2
:020000040000fa
:10d3f80038b50d461446012801d0204638bd2146cf
:0cd408002846fff775fd0028f9d0f6e774
:020000040000fa
:10d4140013b50446019201aafef7ecfb636813f00e
:0cd42400100f18bf4ff0ff3002b010bd19
:020000040000fa
:10d4300068076c094c836a9074a07ac00080688881
:0cd4400000846c820081286e696c290059
:020000040000fa
:10d44c0010b5431e0a44914200d110bd11f8014b96
:06d45c0003f8014ff7e7a1
:020000040000fa
:02d46200fee7e3
:020000040000fa
:10d4640008b500f051f8024b1860586008bd00bfc1
:04d47400bc000020d8
:020000040000fa
:10d47800034611f8012b184603f8012b002af8d1ae
:02d488007047eb
:020000040000fa
:10d48a0002440346934200d1704703f8011bf9e7af
:020000040000fa
:10d49a00494e4600696e66004e414e006e616e004e
:10d4aa00494e4600696e66004e414e006e616e003e
:020000040000fa
:10d4ba0008b5fff7d2ff00f034f800f032f808bde3
:020000040000fa
:10d4ca0003461a46013311780029fad1101a704717
:020000040000fa
:0ed4da00a0f14103192b98bf40f020007047cd
:020000040000fa
:0ed4e800a0f16103192b98bf00f05f007047a0
:020000040000fa
:0cd4f60010b50446fff7bdff204610bd36
:020000040000fa
:08d5020008b5fff720fe08bd8b
:020000040000fa
:02d50a00fee73a
:020000040000fa
:08d50c00004870478000002078
:020000040000fa
:08d5140083f00043fef746be60
:020000040000fa
:07d51c00286e756c6c2900fc
:020000040000fa
:06d524000068fff767bf7d
:020000040000fa
:04d52a00704770478f
:020000040000fa
:0200000400807a
:044000003912003c35
:020000040000fa
:0200000400807a
:044004008000a82a66
:020000040000fa
:0200000400807a
:04400800ffffffffb8
:00000001FF
